:100000000C945D000C9485000C9485000C94850084
:100010000C9485000C9485000C9485000C9485004C
:100020000C9485000C9485000C9485000C9485003C
:100030000C9485000C9485000C9485000C9485002C
:100040000C9483080C9485000C94CB070C94A507A2
:100050000C9485000C9485000C9485000C9485000C
:100060000C94CD080C9485000000000800020100EB
:100070000003040700000000000000000000000072
:10008000250028002B0000000000240027002A0083
:10009000040404040404040402020202020203032E
:1000A0000303030301020408102040800102040836
:1000B0001020010204081020350B11241FBECFEFC1
:1000C000D8E0DEBFCDBF11E0A0E0B1E0E6E4FEE2A3
:1000D00002C005900D92AA39B107D9F724E0AAE928
:1000E000B1E001C01D92A935B207E1F710E0CDE5FE
:1000F000D0E004C02197FE010E949112CC35D107B7
:10010000C9F70E94BC0B0C9421170C940000CF92ED
:10011000DF92EF92FF920F931F93CF93DF936C01C7
:100120007A018B01C0E0D0E0CE15DF0589F0D8015F
:100130006D918D01D601ED91FC910190F081E02D42
:10014000C6010995892B11F47E0102C02196ECCFDE
:10015000C701DF91CF911F910F91FF90EF90DF903A
:10016000CF900895FC01918D828D981761F0828D5A
:10017000DF01A80FB11D5D968C91928D9F5F9F73DB
:10018000928F90E008958FEF9FEF0895FC01918D7D
:10019000828D981731F0828DE80FF11D858D90E0EA
:1001A00008958FEF9FEF0895FC01918D228D892F87
:1001B00090E0805C9F4F821B91098F73992708956F
:1001C00087E592E00E94D40021E0892B09F420E029
:1001D000822F0895FC01848DDF01A80FB11DA35A61
:1001E000BF4F2C91848D90E001968F739927848F57
:1001F000A689B7892C93A089B1898C9180648C934E
:10020000938D848D981306C00288F389E02D808138
:100210008F7D80830895EF92FF920F931F93CF936A
:10022000DF93EC0181E0888F9B8D8C8D981305C046
:10023000E889F989808185FD24C0F62E0B8D10E0B8
:100240000F5F1F4F0F731127E02E8C8DE8120CC02B
:100250000FB607FCFACFE889F989808185FFF5CFD1
:10026000CE010E94EA00F1CF8B8DFE01E80FF11D57
:10027000E35AFF4FF0820B8FEA89FB89808180620D
:1002800007C0EE89FF896083E889F98980818064ED
:10029000808381E090E0DF91CF911F910F91FF90DB
:1002A000EF900895CF93DF93EC01888D8823C9F0F8
:1002B000EA89FB89808185FD05C0A889B9898C916F
:1002C00086FD0FC00FB607FCF5CF808185FFF2CF0A
:1002D000A889B9898C9185FFEDCFCE010E94EA00F3
:1002E000E7CFDF91CF91089580E090E0892B29F04E
:1002F0000E94E00081110C94000008953FB7F8942B
:100300008091080290910902A0910A02B0910B021B
:1003100026B5A89B05C02F3F19F00196A11DB11D60
:100320003FBFBA2FA92F982F8827820F911DA11D9B
:10033000B11DBC01CD0143E0660F771F881F991FD7
:100340004A95D1F7089585ED8093BC008091BC005B
:1003500084FDFCCF1092520208954091E201262FB5
:1003600030E0240F311D21323105DCF4209152029E
:100370002430C9F4FC0180E090E0861758F43091F5
:10038000E2012191DC01A054BE4FA30FB11D2C93BB
:100390000196F3CF8091E201680F6093E20180E063
:1003A000089581E0089582E008950895E091BF01E5
:1003B0008091BE01E81730F4F0E0E45FFD4F8081EA
:1003C00090E008958FEF9FEF08959091BF01809185
:1003D000BE01981750F4E92FF0E0E45FFD4F208153
:1003E00030E09F5F9093BF0102C02FEF3FEFC90144
:1003F00008958091BE0190E02091BF01821B910978
:100400000895CF92DF92EF92FF920F931F93CF93B5
:10041000DF937C01262F972F8A018091BD018823CD
:1004200091F0C62FD72F6E01C40ED51ECC15DD0559
:1004300071F06991D701ED91FC910190F081E02D6F
:10044000C7010995F3CF642F822F0E94AD01C80127
:10045000DF91CF911F910F91FF90EF90DF90CF90A0
:100460000895CF93DF931F92CDB7DEB769832091B4
:10047000BD012223D1F02091BC01203240F021E0C7
:1004800030E0FC013383228380E090E015C080914E
:10049000BB01E82FF0E0E556FE4F998190838F5F16
:1004A0008093BB018093BC0105C061E0CE01019641
:1004B0000E94AD0181E090E00F90DF91CF9108950F
:1004C0002091BC0190919A01213208F04AC080919C
:1004D00052028111FCCF32E03093520231E030936E
:1004E00051023FEF3093500210924F0220934E0280
:1004F000ABE9B1E04CE252E0FA013E2F341B321777
:1005000018F43D913193F9CF10924D0220914D0294
:10051000990F922B90934D0290914C02913061F47F
:1005200010924C0290914D029093BB009091BC00B0
:1005300093FDF8CF95EC01C095EE9093BC0090919F
:1005400052029230E1F3909150029F3F79F08091F6
:100550005002803241F080915002803331F084E0CB
:1005600005C081E003C082E001C083E01092BB01BE
:100570001092BC011092BD01089581E08093BD01ED
:1005800060939A011092BB011092BC010895DC01A6
:10059000ED91FC910190F081E02D09941F93CF9390
:1005A000DF93EC01162F6C818A819B810E94BD0232
:1005B000612F012E000C770B8A819B810E94C7025C
:1005C0008A819B810E9460022FB7F8948091530228
:1005D00090915402A0915502B09156022FBF0C96F3
:1005E000A11DB11D8B8B9C8BAD8BBE8B1F8BDF91A7
:1005F000CF911F910895CF92DF92EF92FF92CF9308
:10060000DF93EC011F8A6C818A819B810E94BD026D
:1006100060E070E08A819B810E94C7028A819B8191
:100620000E9460026C818A819B810E94BD0263E00E
:100630008C810E94E30A1092BF018093BE018CEC72
:1006400097E00197F1F78A819B81DC01ED91FC91A4
:100650000480F581E02D09950397C4F18A819B817F
:10066000DC01ED91FC910680F781E02D09956C018C
:100670008A819B81DC01ED91FC910680F781E02D60
:1006800009950D2C000CEE08FF087601DD24CC2422
:10069000092E000CAA0BBB0BBA2FA92F982F882765
:1006A000C82AD92AEA2AFB2A8A819B81DC01ED919A
:1006B000FC910680F781E02D0995092E000CAA0B0C
:1006C000BB0BC82AD92AEA2AFB2A04C0CC24CA9424
:1006D000DC2C76018A819B810E946002C701B601F1
:1006E000DF91CF91FF90EF90DF90CF9008952F9200
:1006F0003F924F925F926F927F928F929F92AF92B2
:10070000BF92CF92DF92EF92FF920F931F93CF93FE
:10071000DF93CDB7DEB7E8970FB6F894DEBF0FBE14
:10072000CDBFDC0153960D911D912D913C915697B3
:10073000EFB7F894409153025091540260915502E2
:1007400070915602EFBF401751076207730708F414
:10075000DBC21C01FC0187898834A9F0883511F0BF
:1007600068E526C0CD010E94FB02D10158966D9329
:100770007D938D939C935B976F3F7F4F8F4F9F4FE0
:10078000A9F068E415C0CD010E94FB02698F7A8F41
:100790008B8F9C8FD1015C966D937D938D939C93F1
:1007A0005F976F3F7F4F8F4F9F4FE9F4F10167894C
:1007B000C101E8960FB6F894DEBF0FBECDBFDF9142
:1007C000CF911F910F91FF90EF90DF90CF90BF904E
:1007D000AF909F908F907F906F905F904F903F90E1
:1007E0002F900C94CE02D1011D968D919C911E9755
:1007F000A0E0B0E0BA2FA92F982F8827F101408DF3
:10080000518D628D738D8A019B01081B190B2A0B78
:100810003B0B0D8B1E8B2F8B388F0384F485E02DC3
:10082000D10117968D909C901897940140E050E06C
:1008300060E070E080E090E000E10E943012290169
:100840003A014B01898799839F0140E050E06D890F
:100850007E898F89988D0E94F611F22E032F142F16
:10086000B52FF62FE72FD82EE92EA0E00E94851293
:100870005CF4AFE70E947012F22E032F142FB52FF5
:10088000F62FE72FD82EE92E2F2D302F412F5B2F5B
:100890006F2F7E2F8D2D9E2D07E00E94491259014A
:1008A0006A017B018C019201A301B40189859981C0
:1008B0000E9467122FA338A749A75AA76BA77CA746
:1008C0008DA79EA7F101658176810185128580E063
:1008D00090E020E030E840E050E00E9405122983DB
:1008E00039872A013B014C01980140E050E06D89B5
:1008F0007E898F89988D0E94F611122FD32EE42EB7
:10090000B52FF62FE72FF82E092FA0E00E948512B1
:1009100084F421503F4F4F4F5F4F6F4F7F4F8F4FAA
:100920009F4F122FD32EE42EB52FF62FE72FF82E40
:10093000092F212F3D2D4E2D5B2F6F2F7E2F8F2DB9
:10094000902F08E00E94491259016A017B018C0135
:1009500029813985A201B301C4010E9467122FA722
:1009600038AB49AB5AAB6BAB7CAB8DAB9EABD1011B
:100970001F962D913C91509740E050E06D897E8903
:100980008F89988D0E94F611122FD32EE42EB52F49
:10099000F62FE72FF82E092FA0E00E94851284F48D
:1009A0002150310940485F4F6F4F7F4F8F4F9F4F0E
:1009B000122FD32EE42EB52FF62FE72FF82E092F66
:1009C000212F3D2D4E2D5B2F6F2F7E2F8F2D902FA2
:1009D00007E10E94491229873A874B875C876D8718
:1009E0007E878F87988B09851A852B853C850053D8
:1009F000184F2F4F3F4F0D8F1E8F2F8F38A3003D65
:100A00001740210531050CF0A4C029853A854B8596
:100A10005C85CA01B9010E944C119B01AC01A5E0A3
:100A2000B0E00E94D0164B015C01B594A794979456
:100A3000879489A29AA2ABA2BCA28B019C01330F1E
:100A4000000B102F980109831A832B833C83198193
:100A50001DA31EA318AF412F1FAB8B019C01F2E019
:100A60003595279517950795FA95D1F7098B1A8B28
:100A70002B8B3C8B69887A88CB88DC88E42EF42E1B
:100A80000E2D142F2D8D3E8D4F8D58A124323A4FAF
:100A90004F4F5F4F0CF06DC069857A858B859C85C3
:100AA0006455724F8F4F9F4F9B01AC010E944C11B8
:100AB0002B013C01A7E0B0E09B01AC010E94D016E5
:100AC0007B018C01DC01CB01BB0F880B982FDC0173
:100AD00089879A87AB87BC879401A5016981762FA6
:100AE000862F962F57016801E984FE2C0E2D1E2DAE
:100AF0000E94671229A33AA34BA35CA36DA37EA314
:100B000088AF9FABABE0B0E0A30192010E94D0168A
:100B10007B018C0115950795F794E7942B013C0117
:100B2000770C4408542C320129893A894B895C8915
:100B30006981762F862F962F57016801E42CF42CBB
:100B4000042D142D0E94671239016A017B018C016A
:100B500010C0612C712CC12CD12CE12CF12C00E0A7
:100B600010E019A21AA21BA21CA21DA21EA218AE5E
:100B70001FAA6D897E898F89988D20E030E840E03A
:100B800050E00E947E116D897E898F89988D0E9428
:100B90004C1120E030E041E050E00E947E118D8D4C
:100BA0009E8DAF8DB8A1821B930BA40BB50BF101E9
:100BB00080A391A3A2A3B3A3498D5A8D6B8D7C8D85
:100BC0009A01AB0160E070E0CB0129833A834B834B
:100BD0005C836D837E838F8398872FA538A949A96D
:100BE0005AA96BA97CA98DA99EA953010E947C12C8
:100BF00059016A017B018C0129813A814B815C8119
:100C000060E070E080E090E00E949D11F22E032FE2
:100C1000142FB52FF62FE72FD82EE92EA0E00E9433
:100C2000851284F421503109404E5F4F6F4F7F4F42
:100C30008F4F9F4FF22E032F142FB52FF62FE72F34
:100C4000D82EE92E2F2D302F412F5B2F6F2F7E2F87
:100C50008D2D9E2D05E10E94491239014A01B62FC2
:100C6000A72F582E492E2FA138A549A55AA56BA507
:100C70007CA58DA59EA5A9A0BAA0CBA0DCA0EDA0C7
:100C8000FEA008AD1FA90E947C1259016A017B01D8
:100C90008C019301A4016B2F7A2F852D942D0E9436
:100CA0007C12122FD32EE42EB52FF62FE72FF82E1D
:100CB000092FA0E00E94851284F4215030484F4F44
:100CC0005F4F6F4F7F4F8F4F9F4F122FD32EE42ECA
:100CD000B52FF62FE72FF82E092F212F3D2D4E2D62
:100CE0005B2F6F2F7E2F8F2D902F0FE00E944912C8
:100CF000D10194962C93949795963C9395979696BC
:100D00004C93969797965C93E8960FB6F894DEBF4F
:100D10000FBECDBFDF91CF911F910F91FF90EF904C
:100D2000DF90CF90BF90AF909F908F907F906F900B
:100D30005F904F903F902F9008959F92AF92BF92F7
:100D4000CF92DF92EF92FF920F931F93CF93DF9397
:100D5000EC0186E78C8366E78A819B810E94BD0255
:100D60008A819B810E9460028823F9F087E78C8347
:100D700067E78A819B810E94BD028A819B810E94D4
:100D80006002882379F088E391E0DF91CF911F9191
:100D90000F91FF90EF90DF90CF90BF90AF909F901A
:100DA0000C94270B85E591E002C086E691E00E9455
:100DB000270B6C818A819B810E94BD026EE170E0ED
:100DC0008A819B810E94C7028A819B810E94600266
:100DD0008CE39CE90197F1F77E0102EA10E08CECCC
:100DE000A82E87E0B82E6C818A819B810E94BD026B
:100DF000B8018A819B810E94C7028A819B810E94DF
:100E000060026C818A819B810E94BD0266E08C81B8
:100E10000E94E30A1092BF018093BE01C5010197B1
:100E2000F1F78A819B81DC01ED91FC910480F581D1
:100E3000E02D0995892BD1F08A819B81DC01ED9110
:100E4000FC910680F781E02D0995982E8A819B817F
:100E5000DC01ED91FC910680F781E02D0995D92CFC
:100E6000C12C8C299D29F701968385830E5F1F4F26
:100E7000F2E0EF0EF11C0E3A110509F0B4CFDF914C
:100E8000CF911F910F91FF90EF90DF90CF90BF9087
:100E9000AF909F900895EF92FF920F931F93CF937F
:100EA000DF93EC017B018A0188819981009729F009
:100EB0002A813B8124173507F8F4B8016F5F7F4F13
:100EC0000E946C14009759F0998388831B830A83CE
:100ED0002C813D81232B81F4FC0110820DC088817F
:100EE0009981009711F00E94D413198218821D82F3
:100EF0001C821B821A8207C01D830C83B701888164
:100F000099810E945815CE01DF91CF911F910F91C9
:100F1000FF90EF900895FC01808191810C94D4138F
:100F2000FC011182108213821282158214826115D3
:100F3000710551F0FB0101900020E9F73197AF01F5
:100F4000461B570B0C944B0708951F920F920FB638
:100F50000F9211242F933F934F935F936F937F933F
:100F60008F939F93AF93BF93EF93FF9387E592E0A7
:100F70000E94EA00FF91EF91BF91AF919F918F91F5
:100F80007F916F915F914F913F912F910F900FBE85
:100F90000F901F9018951F920F920FB60F92112469
:100FA0002F938F939F93EF93FF93E0916702F091BC
:100FB00068028081E0916D02F0916E0282FD12C0A4
:100FC0009081809170028F5F8F73209171028217E0
:100FD00051F0E0917002F0E0E95AFD4F958F809357
:100FE000700201C08081FF91EF919F918F912F91AD
:100FF0000F900FBE0F901F90189590E0FC01E859DC
:10100000FF4F3491FC01EC55FF4F2491FC01E05758
:10101000FF4FE491EE2309F43BC0332339F1333021
:1010200091F038F43130A9F0323001F584B58F7D7C
:1010300012C0373091F03830A1F03430B9F48091DB
:1010400080008F7D03C0809180008F778093800027
:101050000DC084B58F7784BD09C08091B0008F77B3
:1010600003C08091B0008F7D8093B000F0E0EE0F60
:10107000FF1FE458FF4FA591B4918FB7F894EC91FE
:10108000611103C020952E2301C02E2B2C938FBFFE
:1010900008958F929F92AF92BF92CF92DF92EF927C
:1010A000FF926B017C010E947E014B015C01C11427
:1010B000D104E104F104F1F00E947E01DC01CB01D6
:1010C00088199909AA09BB09883E9340A105B10571
:1010D00070F321E0C21AD108E108F10888EE880E09
:1010E00083E0981EA11CB11CC114D104E104F104D9
:1010F00019F7DDCFFF90EF90DF90CF90BF90AF90CA
:101100009F908F9008951F920F920FB60F92112407
:101110002F933F938F939F93AF93BF9380915302ED
:1011200090915402A0915502B0915602309107025D
:1011300026E0230F2D3720F40296A11DB11D05C016
:1011400029E8230F0396A11DB11D20930702809368
:10115000530290935402A0935502B093560280918B
:10116000080290910902A0910A02B0910B02019627
:10117000A11DB11D8093080290930902A0930A0259
:10118000B0930B02BF91AF919F918F913F912F919F
:101190000F900FBE0F901F9018951F920F920FB6D1
:1011A0000F9211242F933F934F935F936F937F93ED
:1011B0008F939F93AF93BF93EF93FF938091B90069
:1011C000887F803609F49CC068F5883209F45BC0DA
:1011D00090F4803109F454C038F4882309F4F6C03F
:1011E000883009F44DC0F6C0883109F44CC0803213
:1011F00009F45DC0EFC0803409F468C048F480335E
:1012000009F455C0883309F0E5C080935002D8C076
:10121000803509F44FC0883509F45DC0883409F081
:10122000D9C0D6C0883909F4C7C0A8F4883709F4F2
:1012300067C038F4883609F463C0803709F460C0A9
:10124000C9C0883809F4B8C0803909F45FC0803853
:1012500009F0C0C05BC0803B09F486C038F4803A16
:1012600009F466C0883A09F47FC0B4C0803C09F430
:10127000A7C0883C09F4A4C0883B09F48AC0AAC06E
:1012800080914D0210C090914F0280914E029817AC
:1012900070F5E0914F0281E08E0F80934F02F0E0F5
:1012A000E45DFD4F80818093BB0085EC86C0809318
:1012B00050028EC0E0914F0281E08E0F80934F026A
:1012C0008091BB00F0E0E45DFD4F808390914F0280
:1012D00080914E026EC0E0914F0281E08E0F8093AC
:1012E0004F028091BB00F0E0E45DFD4F8083809170
:1012F000510281116DC081E080934C0284EA61C08B
:1013000083E08093520210920602CFCF80910602B2
:10131000803208F051C0E091060281E08E0F809388
:1013200006028091BB00F0E0EA51FE4F8083BDCF02
:1013300085EC8093BC0010925202809106028032AC
:1013400030F4E0910602F0E0EA51FE4F1082609125
:10135000060270E0E091E401F091E50186EE91E093
:1013600009951092060236C084E0809352021092D2
:10137000E3011092E201E091E001F091E1010995B1
:101380008091E201811105C081E08093E201109219
:10139000C001E091E30181E08E0F8093E301F0E072
:1013A000E054FE4F80818093BB009091E3018091D7
:1013B000E201981708F479CF85E88093BC000AC051
:1013C00085EC8093BC001092520204C0109250022F
:1013D0000E94A301FF91EF91BF91AF919F918F91D7
:1013E0007F916F915F914F913F912F910F900FBE21
:1013F0000F901F90189590E0FC01EC55FF4F249141
:10140000FC01E057FF4F8491882399F090E0880F0A
:10141000991FFC01EA57FF4FA591B491FC01E458D4
:10142000FF4F859194918FB7F894EC91E22BEC9358
:101430008FBF0895FC01248135816217730720F462
:1014400080819181009729F41092F40284EF92E058
:101450000895860F971F0895009769F0FC01019089
:101460000020E9F73197AF01481B590BBC0187E514
:1014700092E00C94870080E090E00895CF93DF9392
:10148000FC0124813581232B61F0C081D1816AE286
:1014900070E0CE010E944D15009719F08C1B9D0B3A
:1014A00002C08FEF9FEFDF91CF9108950E94361514
:1014B000FC0180819181009711F00C946D1560E022
:1014C00070E0CB010895BF92CF92DF92EF92FF922E
:1014D0000F931F93CF93DF937C016B01EA01890186
:1014E0002417350720F48D2FE901042F182F69E701
:1014F00071E0C7010E949007D60114968D919C91CE
:101500001597C817D907C8F58017910708F48C01FB
:10151000D601ED91FC911197E00FF11FB080108280
:101520004D915C91BA016C0F7D1F6115710561F0E1
:10153000FB0101900020E9F73197AF01461B570BE3
:10154000C7010E944B0713C0F7018081918100976A
:1015500011F00E94D413D70111961C921E92159679
:101560001C921E92149713961C921E921297D601EB
:10157000ED91FC91E00FF11FB082C701DF91CF9197
:101580001F910F91FF90EF90DF90CF90BF90089543
:10159000FB0144815581FC012481358124173507E5
:1015A00078F080819181009759F0FB016081718111
:1015B0006115710529F00E945F1521E0892B09F062
:1015C00020E0822F0895909152029111FCCF91E07A
:1015D00090935202909351022FEF20935002109259
:1015E0004F02260F20934E0290934D0290914D0290
:1015F000880F892B80934D0280914C02813061F4D9
:1016000010924C0280914D028093BB008091BC00EF
:1016100083FDF8CF85EC01C085EE8093BC008091FE
:1016200052028130E1F380914F02861710F46091ED
:101630004F02ACE2B2E02CE032E0F9018E2F821BC7
:10164000861718F48D918193F9CF862F0895CF9343
:10165000DF930E942C0AEC0187E791E00E942C0A9C
:101660008C0F9D1FDF91CF910895CF93DF93E7E516
:10167000F2E01382128288EE93E0A0E0B0E084836F
:101680009583A683B78324E131E03183208325EC61
:1016900030E03587248724EC30E03787268720EC3C
:1016A00030E0318B208B21EC30E0338B228B22EC2D
:1016B00030E0358B248B26EC30E0378B268B118E77
:1016C000128E138E148EC1E2D4E01B821A828C8398
:1016D0009D83AE83BF8384E291E099838883ADE2EA
:1016E000B4E084E391E011969C938E931396DC937F
:1016F000CE93129714961C9214978FB7F89440913A
:1017000053025091540260915502709156028FBF5E
:101710004C505E4F6F4F7F4F53964D935D936D933B
:101720007C93569757961C92579716961C921E922A
:10173000159718961C921E9217971A961C921E9235
:1017400019971C961C921E921B971E961C921E9215
:101750001D9750961C921E921F9710922004F09392
:101760001C03E0931B0310921E0410921D041092A0
:101770001F04DF91CF910895CF93DF93CDB7DEB7EC
:10178000AC970FB6F894DEBF0FBECDBF789484B58A
:10179000826084BD84B5816084BD85B5826085BD6D
:1017A00085B5816085BD80916E00816080936E00FB
:1017B00010928100809181008260809381008091ED
:1017C000810081608093810080918000816080939E
:1017D00080008091B10084608093B1008091B0005E
:1017E00081608093B00080917A00846080937A0059
:1017F00080917A00826080937A0080917A008E7F57
:1018000080937A0080917A00806880937A001092A9
:10181000C10061E082E00E94FD07E0916702F09163
:10182000680282E08083E0916302F091640210829A
:10183000E0916502F091660280E1808310926F0270
:10184000E0916B02F0916C0286E08083E091690286
:10185000F0916A02808180618083E0916902F09159
:101860006A02808188608083E0916902F0916A0257
:10187000808180688083E0916902F0916A028081B2
:101880008F7D80838DE294E00E949D0680914404C8
:1018900081117EC060915104709152048091530473
:1018A000909154048B019C01015315472109310982
:1018B000073113472140310508F06AC00E94AE1578
:1018C000609313037093140380931503909316038E
:1018D00060930B0370930C0380930D0390930E039E
:1018E00060930F037093100380931103909312037E
:1018F00010920703109208031092090310920A0332
:101900001092200480E090E0A0E2B2E48093F5021F
:101910009093F602A093F702B093F80280E090E073
:10192000A0E2B4E48093FD029093FE02A093FF0234
:10193000B093000380E090E0A0E2B3EC8093F90262
:101940009093FA02A093FB02B093FC0280E090E037
:10195000A4EBB3EC8093010390930203A0930303E1
:10196000B09304033324339480EB282E80911B031F
:1019700090911C03DC01ED91FC910480F581E02D38
:10198000099520911F04892B91F0211110C020C4CA
:101990008DE294E00E94770388E991E00E942C0A8E
:1019A00068EE73E080E090E00E9449086FCF222348
:1019B00009F462C26DE173E0CE0182960E94900745
:1019C00010921E0410921D0410921F0410921D0309
:1019D0006AE771E0CE0101960E949007BE016F5F39
:1019E0007F4FCE0182960E94C80A882341F0CE0123
:1019F00082960E943E0A11E0181619060CF010E0BB
:101A0000CE0101960E948B07112391F104E010E0B2
:101A1000B801CE0182960E941A0AFC018081082E2C
:101A2000000C990B0E943B15892B19F40F5F1F4F77
:101A3000EFCFCE0182960E943E0A9C01A801BE0112
:101A40006E5D7F4FCE0101960E94630ACE01019622
:101A50000E94580ACE0101966CA70E948B076CA5C4
:101A60006B300CF06AE067FD60E06093200400C218
:101A70006FE771E0CE0101960E949007BE016F5F93
:101A80007F4FCE0182960E94C80A882349F0CE017A
:101A900082960E943E0A11E0181619060CF010E01A
:101AA000CE0101960E948B07112309F46CC004E05B
:101AB00010E0B801CE0182960E941A0ADC018C91D6
:101AC000082E000C990B0E943B15892B19F40F5F0F
:101AD0001F4FEFCFCE0182960E943E0A9C01A801C3
:101AE000BE016E5D7F4FCE0101960E94630ACE015A
:101AF00001960E94580A6B017C01CE0101960E945A
:101B00008B07C601B1E9CB16B1E0DB0614F080E922
:101B100091E0BC0197FF02C060E070E0072E000C6E
:101B2000880B990B0E94B0152DEC3CEC4CEC5FE35C
:101B30000E940F166B017C0120E030E048EC51E47C
:101B40000E94A91587FF06C0C12CD12C68ECE62E97
:101B500061E4F62EC092F502D092F602E092F7020E
:101B6000F092F80220E030E046E154E4C701B6010B
:101B70000E9498126093FD027093FE028093FF0210
:101B80009093000375C164E871E0CE0101960E9454
:101B90009007BE016F5F7F4FCE0182960E94C80AF8
:101BA000882349F0CE0182960E943E0A11E0181661
:101BB00019060CF010E0CE0101960E948B0711234C
:101BC00009F46CC004E010E0B801CE0182960E94D6
:101BD0001A0AFC018081082E000C990B0E943B150B
:101BE000892B19F40F5F1F4FEFCFCE0182960E9411
:101BF0003E0A9C01A801BE016E5D7F4FCE01019699
:101C00000E94630ACE0101960E94580A6B017C0172
:101C1000CE0101960E948B07C601F1E9CF16F1E0D3
:101C2000DF0614F080E991E0BC0197FF02C060E09C
:101C300070E0072E000C880B990B0E94B0152DEC5C
:101C40003CEC4CEC5FEB0E940F166B017C0120E03A
:101C500030E048EC51EC0E943A13181634F4C12CD1
:101C6000D12C58ECE52E51ECF52EC092F902D09211
:101C7000FA02E092FB02F092FC0220E030E048E43D
:101C800053E4C701B6010E94971260930103709359
:101C900002038093030390930403EAC069E871E0B0
:101CA000CE0101960E949007BE016F5F7F4FCE016B
:101CB00082960E94C80A882349F0CE0182960E942B
:101CC0003E0A11E0181619060CF010E0CE0101963C
:101CD0000E948B07112309F473C004E010E0B801DF
:101CE000CE0182960E941A0ADC018C91082E000C0B
:101CF000990B0E943B15892B19F40F5F1F4FEFCFF3
:101D0000CE0182960E943E0A9C01A801BE016E5D32
:101D10007F4FCE0101960E94630ACE0101960E9478
:101D2000580A6B017C01CE0101960E948B0787E562
:101D300092E00E945201E0916902F0916A02808172
:101D40008F7E8083E0916902F0916A028081877FB3
:101D50008083E0916902F0916A0280818F778083AD
:101D6000E0916902F0916A0280818F7D8083809189
:101D700071028093700280E00E94FB0981E00E9462
:101D8000FB0982E00E94FB0960E080E00E94FD0701
:101D900060E081E00E94FD07E8EEF3E0CE9EC00126
:101DA000CF9E900DDE9E900D1124BC01990F880BE3
:101DB000990B0E94490860E082E00E94FD0758C02C
:101DC0006EE871E0CE0101960E949007BE016F5F40
:101DD0007F4FCE0182960E94C80A882349F0CE0127
:101DE00082960E943E0A11E0181619060CF010E0C7
:101DF000CE0101960E948B071123D1F144E0E42E1D
:101E0000F12CB701CE0182960E941A0ADC018C9156
:101E1000082E000C990B0E943B15892B21F4FFEF33
:101E2000EF1AFF0AEECFCE0182960E943E0A9C0175
:101E3000A701BE016E5D7F4FCE0101960E94630A2D
:101E4000CE0101960E94580A0E94B0152DEC3CEC80
:101E50004CEC5FE30E940F16609317037093180316
:101E60008093190390931A03CE0101960E948B0769
:101E7000CE0182960E948B078DE294E00E94770348
:101E8000809144048111A1C14090510450905204AA
:101E90006090530470905404D301C201815395475C
:101EA000A109B10987319347A140B10508F08DC15F
:101EB000C301B2010E94AE156B017C016093130354
:101EC00070931403809315039093160380900F036F
:101ED00090901003A0901103B0901203A5019401FB
:101EE0000E9497122DEC3CEC4CEC5DE30E940F1627
:101EF0009B01AC01C501B4010E9498124B015C0129
:101F000060930F0370931003809311039093120357
:101F100080910B0390910C03A0910D03B0910E03DF
:101F200088A799A7AAA7BBA79C01AD01C701B601C5
:101F30000E9497122DEC3CEC4CE45DE30E940F16DE
:101F40009B01AC0168A579A58AA59BA50E94981262
:101F500060930B0370930C0380930D0390930E0317
:101F6000C0900703D0900803E0900903F0900A03A3
:101F7000A50194010E94971220E030E048E452E469
:101F80000E940F16A70196010E9497122DEC3CECBF
:101F90004CEC5DE30E940F169B01AC01C701B6013A
:101FA0000E949812609307037093080380930903BB
:101FB00090930A032091170330911803409119035D
:101FC00050911A030E949812B62EA72E982E892E91
:101FD000C0900103D0900203E0900303F09004034B
:101FE0009601A7010E94A91587FD16C0C090FD02A9
:101FF000D090FE02E090FF02F09000039601A7014E
:102000006B2D7A2D892D982D0E943A13181624F0E5
:10201000CB2CDA2CE92CF82C8090F9029090FA0263
:10202000A090FB02B090FC029401A501B601C7018B
:102030000E94A91587FF06C19401A501B601C70139
:102040000E9497124B015C01609105037091060399
:10205000072E000C880B990B0E94B0156B017C01B8
:1020600020E030E040EA51E4C501B4010E940F16BF
:1020700020E030E048EC53E40E9498129B01AC0150
:10208000C701B6010E9498120E9404137B0170934D
:1020900006036093050320E030E040E85FE3C501FC
:1020A000B4010E943A1318160CF0E0C01E141F046D
:1020B0000CF0DCC020E030E048EC53E4C501B40192
:1020C0000E9498120E940B139B01AC01672B682B96
:1020D000692B09F4D8C080912004882309F4D3C067
:1020E000219A60E079E08DE390E00E945C11CA01E2
:1020F000B901615071098109910961157105F1E01A
:102100008F07910508F4BDC0BB27A92F982F872FF3
:10211000BC01CD01615071098109910924E07093DE
:10212000870060938600C0908400D0908500E12CE9
:10213000F12C6C157D058E059F0520F470938500AC
:1021400060938400206120938100E09120040E2E92
:10215000000CFF0BEB5FFE4F208130E040E050E0D1
:102160000E945C1130938B0020938A003093890089
:10217000209388002092800083E991E00E942C0A3D
:1021800019A2CE018196B301A2014F70552766278F
:10219000772724E076946794579447942A95D1F74B
:1021A00001974A3051056105710508F073C0405D23
:1021B000DC014C93411451046104710421F70E9425
:1021C0002C0A87E791E00E942C0A0E947401CECB72
:1021D00080911B0390911C03DC01ED91FC91068022
:1021E000F781E02D0995F82EBAE08B1304C081E049
:1021F00080931F041FC08F2D0F2C000C990B0E9481
:102200003D15892B09F4B2CB20911D0430911E0499
:10221000C901019690931E0480931D04F901E55EA7
:10222000FC4FF2828F3F910529F020F010921E049E
:1022300010921D04E0911D04F0911E04E55EFC4F18
:10224000128294CB8090F5029090F602A090F70253
:10225000B090F8029401A501B601C7010E943A139B
:1022600018160CF4E9CE46015701E6CE20E030E026
:1022700040E85FEBC501B4010E94A91587FF03C0C8
:1022800019CF21E04CCF82E0809381003092800012
:10229000299872CF495C8CCFDB018F939F930E946A
:1022A000D016BF91AF91A29F800D911DA39F900D5D
:1022B000B29F900D11240895A1E21A2EAA1BBB1BF8
:1022C000FD010DC0AA1FBB1FEE1FFF1FA217B30702
:1022D000E407F50720F0A21BB30BE40BF50B661F18
:1022E000771F881F991F1A9469F7609570958095DC
:1022F00090959B01AC01BD01CF010895052E97FB80
:102300001EF400940E94951157FD07D00E945C11A5
:1023100007FC03D04EF40C949511509540953095E0
:1023200021953F4F4F4F5F4F089590958095709541
:1023300061957F4F8F4F9F4F0895DF93CF931F93EA
:102340000F939A9DF02D219FF00D8B9DF00D8A9D8E
:10235000E02DF10D039FF00D029FE00DF11D4E9D4C
:10236000E00DF11D5E9DF00D4F9DF00D7F936F937D
:10237000BF92AF925F934F93D5010E9412178B01CA
:10238000AC01D7010E941217EB01E80FF91FD6012B
:102390000E94ED112F913F91D6010E941217C60F96
:1023A000D71FE81FF91FAF91BF910E94ED112F9128
:1023B0003F910E941217C60FD71FE81FF91FD601C1
:1023C0000E941217E60FF71F9801BE01CF011124DA
:1023D0000F911F91CF91DF9108950E941217460F20
:1023E000571FC81FD91F08F43196089597FB57FF50
:1023F0000C9406129F938F930E9406126E1B7F0B04
:10240000AF91BF918A0B9B0B0895E894DF93CF9314
:10241000FC01DB010E9412177F936F93E9019A017F
:10242000AC01BF93AF933F932F93DF010E9412172C
:1024300026F46C1B7D0B820B930B9E01EB01FC01C0
:102440000E94ED11AF91BF912F913F910E94ED112C
:10245000BE01CF01F9012F913F91CF91DF910895F6
:102460000F93083090F0982F872F762F652F542FD9
:10247000432F322F22270850F4CF220F331F441F3F
:10248000551F661F771F881F991F0A95B2F70F9176
:10249000089597FB10F8169400080F93083098F0F1
:1024A0000850232F342F452F562F672F782F892F31
:1024B000902DF4CF059497958795779567955795C7
:1024C0004795379527950A95AAF70F9108952A0DF4
:1024D0003B1D4C1D5D1D6E1D7F1D801F911F0895AE
:1024E0000024A7FD00942A0F301D401D501D601DC3
:1024F000701D801D901D08952A193B094C095D0926
:102500006E097F09800B910B08950024A7FD0094AC
:102510002A173005400550056005700580059005B7
:102520000895EE0FFF1F0590F491E02D0994505887
:10253000BB27AA270E94AF120C9496160E948816F9
:1025400038F00E948F1620F039F49F3F19F426F4DA
:102550000C9485160EF4E095E7FB0C947F16E92F9A
:102560000E94A71658F3BA176207730784079507E6
:1025700020F079F4A6F50C94C9160EF4E0950B2E14
:10258000BA2FA02D0B01B90190010C01CA01A001C5
:102590001124FF27591B99F0593F50F4503E68F120
:1025A0001A16F040A22F232F342F4427585FF3CF61
:1025B000469537952795A795F0405395C9F77EF432
:1025C0001F16BA0B620B730B840BBAF09150A1F07B
:1025D000FF0FBB1F661F771F881FC2F70EC0BA0F01
:1025E000621F731F841F48F4879577956795B79589
:1025F000F7959E3F08F0B0CF9395880F08F0992784
:10260000EE0F9795879508950E940B136894B1116A
:102610000C94CA1608950E94AF1688F09F5798F040
:10262000B92F9927B751B0F0E1F0660F771F881FD7
:10263000991F1AF0BA95C9F714C0B13091F00E94F1
:10264000C916B1E008950C94C916672F782F882712
:10265000B85F39F0B93FCCF3869577956795B39518
:10266000D9F73EF490958095709561957F4F8F4F87
:102670009F4F08950E94EB1508F48FEF0895CF93B4
:10268000DF938230910510F482E090E0E0915704EE
:10269000F091580420E030E0C0E0D0E0309711F134
:1026A0004081518148175907C0F04817590761F414
:1026B00082819381209719F09B838A832BC090930A
:1026C00058048093570426C02115310519F042178C
:1026D000530718F49A01BE01DF01EF010280F38174
:1026E000E02DDCCF2115310509F1281B390B2430F1
:1026F000310590F412968D919C9113976115710597
:1027000021F0FB019383828304C09093580480934B
:102710005704FD01329644C0FD01E20FF31F81937F
:102720009193225031092D933C933AC02091550446
:1027300030915604232B41F4209102013091030182
:1027400030935604209355042091000130910101EB
:102750002115310541F42DB73EB740910401509148
:102760000501241B350BE0915504F0915604E21746
:10277000F307A0F42E1B3F0B2817390778F0AC01A4
:102780004E5F5F4F2417350748F04E0F5F1F509381
:102790005604409355048193919302C0E0E0F0E029
:1027A000CF01DF91CF9108950F931F93CF93DF93C4
:1027B000009709F48CC0FC013297138212820091B9
:1027C0005704109158040115110581F420813181BD
:1027D000820F931F20915504309156042817390712
:1027E00079F5F0935604E093550471C0D80140E0A8
:1027F00050E0AE17BF0750F412962D913C911397FD
:10280000AD012115310509F1D901F3CF9D01DA019F
:102810003383228360817181860F971F821793070C
:1028200069F4EC0128813981260F371F2E5F3F4F55
:10283000318320838A819B8193838283452B29F472
:10284000F0935804E093570442C01396FC93EE9320
:102850001297ED01499159919E01240F351FE217FE
:10286000F30771F480819181840F951F0296119670
:102870009C938E938281938113969C938E9312974F
:10288000E0E0F0E0D80112968D919C9113970097AB
:1028900019F0F8018C01F6CF8D919C9198012E5F73
:1028A0003F4F820F931F20915504309156042817F3
:1028B000390769F4309729F410925804109257049C
:1028C00002C0138212821093560400935504DF91C4
:1028D000CF911F910F910895A0E0B0E0E2E7F4E1FD
:1028E0000C94DF16EC01009721F4CB010E943F13FA
:1028F000B8C0FC01E60FF71F9C0122503109E21716
:10290000F30708F4ACC0D9010D911C91119706177B
:102910001707B0F00530110508F49FC0C8010497EF
:102920008617970708F499C002501109061B170B68
:10293000019311936D937C93CF010E94D4138DC0AA
:102940005B01A01AB10A4C01800E911EA0915704A0
:10295000B091580440E050E0E12CF12C109709F4BC
:102960004AC0A815B905D1F56D907C901197630107
:1029700082E0C80ED11CCA14DB0480F1A3014A19FD
:102980005B096A0182E0C80ED11C1296BC901297B6
:102990001396AC91B5E0CB16D10440F0B282A3837C
:1029A00051834083D9016D937C930AC00E5F1F4F02
:1029B000C301800F911FF90191838083EB2DFA2FC2
:1029C000E114F10431F0D7011396FC93EE931297C2
:1029D00044C0F0935804E09357043FC08D919C91FC
:1029E00011974817590708F4AC017D0112960D9014
:1029F000BC91A02DB3CF80915504909156048815B9
:102A00009905E1F446175707C8F4809100019091A9
:102A10000101009741F48DB79EB740910401509198
:102A20000501841B950BE817F907C8F4F0935604C9
:102A3000E0935504F901718360830FC0CB010E94BC
:102A40003F137C01009759F0A801BE010E94441574
:102A5000CE010E94D413C70104C0CE0102C080E0A1
:102A600090E0CDB7DEB7EEE00C94FB1681E090E08D
:102A7000F8940C942117803209F091110C947C1673
:102A800080528F55D8F70895FB01DC0102C00190F8
:102A90000D9241505040D8F70895FC01819186175E
:102AA00021F08823D9F7992708953197CF01089508
:102AB000FB01DC0101900D920020E1F70895FB017C
:102AC000DC014150504030F08D910190801919F493
:102AD0000020B9F7881B990B08951F93FC019927D3
:102AE0008827BC01E89411911032E9F3193010F0F5
:102AF0001E30C8F31B3251F01D3249F4689406C0F1
:102B00000E949415610F711D811D911D119110532B
:102B10001A30B0F33EF490958095709561957F4F93
:102B20008F4F9F4F1F910895592F482F372F262FD2
:102B3000660F771F881F991F660F771F881F991FC1
:102B4000620F731F841F951F660F771F881F991FC1
:102B500008950E94EB1508F481E00895E89409C0F7
:102B600097FB3EF490958095709561957F4F8F4FC0
:102B70009F4F9923A9F0F92F96E9BB279395F695D6
:102B8000879577956795B795F111F8CFFAF4BB0F54
:102B900011F460FF1BC06F5F7F4F8F4F9F4F16C0B8
:102BA000882311F096E911C0772321F09EE8872F42
:102BB000762F05C0662371F096E8862F70E060E0FE
:102BC0002AF09A95660F771F881FDAF7880F969577
:102BD000879597F90895990F0008550FAA0BE0E81B
:102BE000FEEF16161706E807F907C0F012161306CF
:102BF000E407F50798F0621B730B840B950B39F40F
:102C00000A2661F0232B242B252B21F408950A2674
:102C100009F4A140A6958FEF811D811D08950E94A2
:102C200022160C9496160E94881638F00E948F1671
:102C300020F0952311F00C947F160C948516112426
:102C40000C94CA160E94A71670F3959FC1F3950FB6
:102C500050E0551F629FF001729FBB27F00DB11D20
:102C6000639FAA27F00DB11DAA1F649F6627B00DB0
:102C7000A11D661F829F2227B00DA11D621F739F99
:102C8000B00DA11D621F839FA00D611D221F749FA7
:102C90003327A00D611D231F849F600D211D822FEE
:102CA000762F6A2F11249F5750409AF0F1F0882315
:102CB0004AF0EE0FFF1FBB1F661F771F881F915042
:102CC0005040A9F79E3F510580F00C947F160C945C
:102CD000CA165F3FE4F3983ED4F3869577956795DF
:102CE000B795F795E7959F5FC1F7FE2B880F911D6C
:102CF0009695879597F9089599278827089597F9C4
:102D00009F6780E870E060E008959FEF80EC089591
:102D100000240A94161617061806090608950024BA
:102D20000A9412161306140605060895092E039434
:102D3000000C11F4882352F0BB0F40F4BF2B11F4A8
:102D400060FF04C06F5F7F4F8F4F9F4F089557FD07
:102D50009058440F551F59F05F3F71F04795880F09
:102D600097FB991F61F09F3F79F0879508951216A0
:102D700013061406551FF2CF4695F1DF08C016164C
:102D800017061806991FF1CF8695710561050894FD
:102D90000895E894BB2766277727CB0197F9089514
:102DA0000E941217A59F900DB49F900DA49F800DB7
:102DB000911D112408952F923F924F925F926F922E
:102DC0007F928F929F92AF92BF92CF92DF92EF92BB
:102DD000FF920F931F93CF93DF93CDB7DEB7CA1B3C
:102DE000DB0B0FB6F894DEBF0FBECDBF09942A8867
:102DF000398848885F846E847D848C849B84AA840F
:102E0000B984C884DF80EE80FD800C811B81AA819B
:102E1000B981CE0FD11D0FB6F894DEBF0FBECDBF66
:102E2000ED010895A29FB001B39FC001A39F700D53
:102E3000811D1124911DB29F700D811D1124911DC2
:062E40000895F894FFCF95
:102E4600000059048000C864433228211D160A0276
:102E5600000000000B018700D400B200C60052013A
:102E66000000000031020102F901E501D601D50199
:102E76000000000077039D06416464726573206656
:102E86006F72204D5335363131206E6F7420666F68
:102E9600756E6421004D5335363131206F6E20201A
:102EA6003078373721004D5335363131206F6E205B
:102EB600203078373621000D0A002442564C002473
:102EC6004255500024424457002452535400245380
:0A2ED600494D0050525320002E0019
:00000001FF
