:100000000C945D000C9485000C9485000C94850084
:100010000C9485000C9485000C9485000C9485004C
:100020000C9485000C9485000C9485000C9485003C
:100030000C9485000C9485000C9485000C9485002C
:100040000C94E4080C9485000C947B020C945502EB
:100050000C9485000C9485000C9485000C9485000C
:100060000C942E090C948500000000080002010089
:100070000003040700000000000000000000000072
:10008000250028002B0000000000240027002A0083
:10009000040404040404040402020202020203032E
:1000A0000303030301020408102040800102040836
:1000B0001020010204081020010F11241FBECFEFF1
:1000C000D8E0DEBFCDBF11E0A0E0B1E0E0ECFAE2A5
:1000D00002C005900D92A235B107D9F724E0A2E540
:1000E000B1E001C01D92A130B207E1F710E0CDE50B
:1000F000D0E004C02197FE010E94CE10CC35D1077C
:10010000C9F70E94E90A0C945E150C940000CF9286
:10011000DF92EF92FF920F931F93CF93DF936C01C7
:100120007A018B01C0E0D0E0CE15DF0589F0D8015F
:100130006D918D01D601ED91FC910190F081E02D42
:10014000C6010995892B11F47E0102C02196ECCFDE
:10015000C701DF91CF911F910F91FF90EF90DF903A
:10016000CF900895FC01918D828D981761F0828D5A
:10017000DF01A80FB11D5D968C91928D9F5F9F73DB
:10018000928F90E008958FEF9FEF0895FC01918D7D
:10019000828D981731F0828DE80FF11D858D90E0EA
:1001A00008958FEF9FEF0895FC01918D228D892F87
:1001B00090E0805C9F4F821B91098F73992708956F
:1001C00086E292E00E94D40021E0892B09F420E02D
:1001D000822F0895FC01848DDF01A80FB11DA35A61
:1001E000BF4F2C91848D90E001968F739927848F57
:1001F000A689B7892C93A089B1898C9180648C934E
:10020000938D848D981306C00288F389E02D808138
:100210008F7D80830895EF92FF920F931F93CF936A
:10022000DF93EC0181E0888F9B8D8C8D981305C046
:10023000E889F989808185FD24C0F62E0B8D10E0B8
:100240000F5F1F4F0F731127E02E8C8DE8120CC02B
:100250000FB607FCFACFE889F989808185FFF5CFD1
:10026000CE010E94EA00F1CF8B8DFE01E80FF11D57
:10027000E35AFF4FF0820B8FEA89FB89808180620D
:1002800007C0EE89FF896083E889F98980818064ED
:10029000808381E090E0DF91CF911F910F91FF90DB
:1002A000EF900895CF93DF93EC01888D8823C9F0F8
:1002B000EA89FB89808185FD05C0A889B9898C916F
:1002C00086FD0FC00FB607FCF5CF808185FFF2CF0A
:1002D000A889B9898C9185FFEDCFCE010E94EA00F3
:1002E000E7CFDF91CF91089580E090E0892B29F04E
:1002F0000E94E00081110C94000008950E94731385
:10030000FB0144815581FC01248135812417350787
:1003100078F080819181009759F0FB0160817181B3
:100320006115710529F00E949C1321E0892B09F0C9
:1003300020E0822F0895EF92FF920F931F93CF93A7
:10034000DF93EC017B018A0188819981009729F074
:100350002A813B8124173507F8F4B8016F5F7F4F7E
:100360000E94A912009759F0998388831B830A83FE
:100370002C813D81232B81F4FC0110820DC08881EA
:100380009981009711F00E941112198218821D8222
:100390001C821B821A8207C01D830C83B7018881CF
:1003A00099810E949513CE01DF91CF911F910F91FA
:1003B000FF90EF900895FC01118210821382128247
:1003C000158214826115710551F0FB010190002026
:1003D000E9F73197AF01461B570B0C949B01089529
:1003E000BF92CF92DF92EF92FF920F931F93CF9322
:1003F000DF937C016B01EA0189012417350720F4A2
:100400008D2FE901042F182F6FE471E0C7010E94BE
:10041000DB01D60114968D919C911597C817D907C9
:10042000C8F58017910708F48C01D601ED91FC9175
:100430001197E00FF11FB08010824D915C91BA01CD
:100440006C0F7D1F6115710561F0FB0101900020AB
:10045000E9F73197AF01461B570BC7010E949B017B
:1004600013C0F70180819181009711F00E94111251
:10047000D70111961C921E9215961C921E921497EB
:1004800013961C921E921297D601ED91FC91E00FEB
:10049000F11FB082C701DF91CF911F910F91FF90A3
:1004A000EF90DF90CF90BF9008951F920F920FB6FC
:1004B0000F9211242F933F934F935F936F937F93EA
:1004C0008F939F93AF93BF93EF93FF9386E292E056
:1004D0000E94EA00FF91EF91BF91AF919F918F91A0
:1004E0007F916F915F914F913F912F910F900FBE30
:1004F0000F901F9018951F920F920FB60F92112414
:100500002F938F939F93EF93FF93E0913602F09197
:1005100037028081E0913C02F0913D0282FD12C0E1
:10052000908180913F028F5F8F73209140028217EC
:1005300051F0E0913F02F0E0EA5DFD4F958F80932E
:100540003F0201C08081FF91EF919F918F912F9188
:100550000F900FBE0F901F9018953FB7F8948091A1
:10056000D7019091D801A091D901B091DA0126B5B7
:10057000A89B05C02F3F19F00196A11DB11D3FBFDB
:10058000BA2FA92F982F8827820F911DA11DB11D69
:10059000BC01CD0143E0660F771F881F991F4A9564
:1005A000D1F7089585ED8093BC008091BC0084FD57
:1005B000FCCF1092210208954091B101262F30E026
:1005C000240F311D21323105DCF420912102243029
:1005D000C9F4FC0180E090E0861758F43091B10135
:1005E0002191DC01A157BE4FA30FB11D2C930196A1
:1005F000F3CF8091B101680F6093B10180E008955D
:1006000081E0089582E008950895E0918E0180913F
:100610008D01E81730F4F0E0E552FE4F808190E064
:1006200008958FEF9FEF089590918E0180918D0135
:10063000981750F4E92FF0E0E552FE4F208130E0AA
:100640009F5F90938E0102C02FEF3FEFC901089585
:1006500080918D0190E020918E01821B9109089577
:10066000CF92DF92EF92FF920F931F93CF93DF937E
:100670007C01262F972F8A0180918C01882391F08D
:10068000C62FD72F6E01C40ED51ECC15DD0571F017
:100690006991D701ED91FC910190F081E02DC701A6
:1006A0000995F3CF642F822F0E94DC02C801DF91ED
:1006B000CF911F910F91FF90EF90DF90CF90089511
:1006C000CF93DF931F92CDB7DEB7698320918C0162
:1006D0002223D1F020918B01203240F021E030E044
:1006E000FC013383228380E090E015C080918A0171
:1006F000E82FF0E0E659FE4F998190838F5F809359
:100700008A0180938B0105C061E0CE0101960E94B1
:10071000DC0281E090E00F90DF91CF91089520916D
:100720008B0190916901213208F04AC08091210229
:100730008111FCCF32E03093210231E0309320026E
:100740003FEF30931F0210921E0220931D02AAE673
:10075000B1E04BEF51E0FA013E2F341B321718F491
:100760003D913193F9CF10921C0220911C02990FF8
:10077000922B90931C0290911B02913061F4109285
:100780001B0290911C029093BB009091BC0093FDC2
:10079000F8CF95EC01C095EE9093BC0090912102AA
:1007A0009230E1F390911F029F3F79F080911F02F8
:1007B000803241F080911F02803331F084E005C027
:1007C00081E003C082E001C083E010928A011092B0
:1007D0008B0110928C010895DC01ED91FC91019048
:1007E000F081E02D09941F93CF93DF93EC01162F36
:1007F0008C8191E090938C018093690110928A0121
:1008000010928B01062E000C770B8A819B810E942F
:10081000EC038A819B810E948F032FB7F89480910B
:10082000220290912302A0912402B09125022FBFB1
:100830000C96A11DB11D8B8B9C8BAD8BBE8B1F8B22
:10084000DF91CF911F910895CF92DF92EF92FF92A7
:100850001F93CF93DF93EC011F8A8C8111E01093DB
:100860008C018093690110928A0110928B0160E0E3
:1008700070E08A819B810E94EC038A819B810E94A7
:100880008F038C8110938C018093690110928A01EF
:1008900010928B0163E00E945C0A10928E0180939B
:1008A0008D018CEC97E00197F1F78A819B81DC0147
:1008B000ED91FC910480F581E02D09950397C4F139
:1008C0008A819B81DC01ED91FC910680F781E02D0E
:1008D00009956C018A819B81DC01ED91FC91068078
:1008E000F781E02D09950D2C000CEE08FF0876012C
:1008F000DD24CC24092E000CAA0BBB0BBA2FA92F88
:10090000982F8827C82AD92AEA2AFB2A8A819B811C
:10091000DC01ED91FC910680F781E02D0995092E0F
:10092000000CAA0BBB0BC82AD92AEA2AFB2A04C04E
:10093000CC24CA94DC2C76018A819B810E948F038F
:10094000C701B601DF91CF911F91FF90EF90DF902B
:10095000CF9008952F923F924F925F926F927F9225
:100960008F929F92AF92BF92CF92DF92EF92FF92BF
:100970000F931F93CF93DF93CDB7DEB7E8970FB6F2
:10098000F894DEBF0FBECDBFDC0153960D911D91D3
:100990002D913C915697EFB7F894409122025091D7
:1009A00023026091240270912502EFBF4017510786
:1009B0006207730708F4DBC21C01FC0187898834D5
:1009C000A9F0883511F068E526C0CD010E94240405
:1009D000D10158966D937D938D939C935B976F3F58
:1009E0007F4F8F4F9F4FA9F068E415C0CD010E9443
:1009F0002404698F7A8F8B8F9C8FD1015C966D93C5
:100A00007D938D939C935F976F3F7F4F8F4F9F4F49
:100A1000E9F4F1016789C101E8960FB6F894DEBFE9
:100A20000FBECDBFDF91CF911F910F91FF90EF903F
:100A3000DF90CF90BF90AF909F908F907F906F90FE
:100A40005F904F903F902F900C94F303D1011D962F
:100A50008D919C911E97A0E0B0E0BA2FA92F982FFE
:100A60008827F101408D518D628D738D8A019B0124
:100A7000081B190B2A0B3B0B0D8B1E8B2F8B388FF2
:100A80000384F485E02DD10117968D909C901897E2
:100A9000940140E050E060E070E080E090E000E130
:100AA0000E946D1029013A014B01898799839F01AA
:100AB00040E050E06D897E898F89988D0E943310C7
:100AC000F22E032F142FB52FF62FE72FD82EE92E55
:100AD000A0E00E94C2105CF4AFE70E94AD10F22EBD
:100AE000032F142FB52FF62FE72FD82EE92E2F2DF9
:100AF000302F412F5B2F6F2F7E2F8D2D9E2D07E0E6
:100B00000E94861059016A017B018C019201A301A8
:100B1000B401898599810E94A4102FA338A749A701
:100B20005AA76BA77CA78DA79EA7F1016581768147
:100B30000185128580E090E020E030E840E050E060
:100B40000E944210298339872A013B014C019801F8
:100B500040E050E06D897E898F89988D0E94331026
:100B6000122FD32EE42EB52FF62FE72FF82E092FB4
:100B7000A0E00E94C21084F421503F4F4F4F5F4FBE
:100B80006F4F7F4F8F4F9F4F122FD32EE42EB52FD5
:100B9000F62FE72FF82E092F212F3D2D4E2D5B2FFD
:100BA0006F2F7E2F8F2D902F08E00E948610590105
:100BB0006A017B018C0129813985A201B301C4013D
:100BC0000E94A4102FA738AB49AB5AAB6BAB7CABE0
:100BD0008DAB9EABD1011F962D913C91509740E07B
:100BE00050E06D897E898F89988D0E943310122F75
:100BF000D32EE42EB52FF62FE72FF82E092FA0E0E5
:100C00000E94C21084F42150310940485F4F6F4F59
:100C10007F4F8F4F9F4F122FD32EE42EB52FF62FDD
:100C2000E72FF82E092F212F3D2D4E2D5B2F6F2FF3
:100C30007E2F8F2D902F07E10E94861029873A87FB
:100C40004B875C876D877E878F87988B09851A8590
:100C50002B853C850053184F2F4F3F4F0D8F1E8F14
:100C60002F8F38A3003D1740210531050CF0A4C09B
:100C700029853A854B855C85CA01B9010E94890F97
:100C80009B01AC01A5E0B0E00E940D154B015C0199
:100C9000B594A7949794879489A29AA2ABA2BCA278
:100CA0008B019C01330F000B102F980109831A83CD
:100CB0002B833C8319811DA31EA318AF412F1FABAB
:100CC0008B019C01F2E03595279517950795FA95CC
:100CD000D1F7098B1A8B2B8B3C8B69887A88CB8850
:100CE000DC88E42EF42E0E2D142F2D8D3E8D4F8D8D
:100CF00058A124323A4F4F4F5F4F0CF06DC06985B9
:100D00007A858B859C856455724F8F4F9F4F9B01D1
:100D1000AC010E94890F2B013C01A7E0B0E09B01D0
:100D2000AC010E940D157B018C01DC01CB01BB0FD6
:100D3000880B982FDC0189879A87AB87BC87940141
:100D4000A5016981762F862F962F57016801E984C6
:100D5000FE2C0E2D1E2D0E94A41029A33AA34BA3F6
:100D60005CA36DA37EA388AF9FABABE0B0E0A30113
:100D700092010E940D157B018C0115950795F79442
:100D8000E7942B013C01770C4408542C320129894B
:100D90003A894B895C896981762F862F962F570176
:100DA0006801E42CF42C042D142D0E94A4103901A8
:100DB0006A017B018C0110C0612C712CC12CD12CDB
:100DC000E12CF12C00E010E019A21AA21BA21CA237
:100DD0001DA21EA218AE1FAA6D897E898F89988DCB
:100DE00020E030E840E050E00E94BB0F6D897E8932
:100DF0008F89988D0E94890F20E030E041E050E01B
:100E00000E94BB0F8D8D9E8DAF8DB8A1821B930B61
:100E1000A40BB50BF10180A391A3A2A3B3A3498DA9
:100E20005A8D6B8D7C8D9A01AB0160E070E0CB0137
:100E300029833A834B835C836D837E838F8398877A
:100E40002FA538A949A95AA96BA97CA98DA99EA942
:100E500053010E94B91059016A017B018C0129815B
:100E60003A814B815C8160E070E080E090E00E941C
:100E7000DA0FF22E032F142FB52FF62FE72FD82ECF
:100E8000E92EA0E00E94C21084F421503109404EA6
:100E90005F4F6F4F7F4F8F4F9F4FF22E032F142FB7
:100EA000B52FF62FE72FD82EE92E2F2D302F412FDB
:100EB0005B2F6F2F7E2F8D2D9E2D05E10E948610BA
:100EC00039014A01B62FA72F582E492E2FA138A538
:100ED00049A55AA56BA57CA58DA59EA5A9A0BAA0DC
:100EE000CBA0DCA0EDA0FEA008AD1FA90E94B91008
:100EF00059016A017B018C019301A4016B2F7A2FA8
:100F0000852D942D0E94B910122FD32EE42EB52FCB
:100F1000F62FE72FF82E092FA0E00E94C21084F4CC
:100F2000215030484F4F5F4F6F4F7F4F8F4F9F4F34
:100F3000122FD32EE42EB52FF62FE72FF82E092FE0
:100F4000212F3D2D4E2D5B2F6F2F7E2F8F2D902F1C
:100F50000FE00E948610D10194962C939497959659
:100F60003C93959796964C93969797965C93E896B4
:100F70000FB6F894DEBF0FBECDBFDF91CF911F91AA
:100F80000F91FF90EF90DF90CF90BF90AF909F9028
:100F90008F907F906F905F904F903F902F9008952B
:100FA0008F929F92AF92BF92CF92DF92EF92FF9279
:100FB0000F931F93CF93DF93EC018C8191E090937B
:100FC0008C018093690110928A0110928B016EE16D
:100FD00070E08A819B810E94EC038A819B810E9440
:100FE0008F038CE39CE90197F1F77E0102EA10E0A0
:100FF000BB24B3948CEC882E87E0982E8C81B09221
:101000008C018093690110928A0110928B01B801C2
:101010008A819B810E94EC038A819B810E948F03BD
:101020008C81B0928C018093690110928A01109298
:101030008B0166E00E945C0A10928E0180938D0104
:10104000C4010197F1F78A819B81DC01ED91FC914C
:101050000480F581E02D0995892BD1F08A819B814F
:10106000DC01ED91FC910680F781E02D0995A82E19
:101070008A819B81DC01ED91FC910680F781E02D56
:101080000995DA2CC12C8C299D29F701968385833B
:101090000E5F1F4FF2E0EF0EF11C0E3A110509F042
:1010A000ADCFDF91CF911F910F91FF90EF90DF9027
:1010B000CF90BF90AF909F908F90089590E0FC01EB
:1010C000E859FF4F3491FC01EC55FF4F2491FC018E
:1010D000E057FF4FE491EE2309F43BC0332339F18D
:1010E000333091F038F43130A9F0323001F584B565
:1010F0008F7D12C0373091F03830A1F03430B9F420
:10110000809180008F7D03C0809180008F778093D5
:1011100080000DC084B58F7784BD09C08091B00078
:101120008F7703C08091B0008F7D8093B000F0E096
:10113000EE0FFF1FE458FF4FA591B4918FB7F894BD
:10114000EC91611103C020952E2301C02E2B2C930E
:101150008FBF08958F929F92AF92BF92CF92DF92EE
:10116000EF92FF926B017C010E94AD024B015C018A
:10117000C114D104E104F104F1F00E94AD02DC01DC
:10118000CB0188199909AA09BB09883E9340A1059A
:10119000B10570F321E0C21AD108E108F10888EE28
:1011A000880E83E0981EA11CB11CC114D104E10477
:1011B000F10419F7DDCFFF90EF90DF90CF90BF9053
:1011C000AF909F908F9008951F920F920FB60F923D
:1011D00011242F933F938F939F93AF93BF9380914D
:1011E000220290912302A0912402B0912502309115
:1011F000D60126E0230F2D3720F40296A11DB11D44
:1012000005C029E8230F0396A11DB11D2093D60127
:101210008093220290932302A0932402B09325028C
:101220008091D7019091D801A091D901B091DA01B4
:101230000196A11DB11D8093D7019093D801A09371
:10124000D901B093DA01BF91AF919F918F913F91F6
:101250002F910F900FBE0F901F9018951F920F9215
:101260000FB60F9211242F933F934F935F936F9379
:101270007F938F939F93AF93BF93EF93FF9380914F
:10128000B900887F803609F49CC068F5883209F47B
:101290005BC090F4803109F454C038F4882309F419
:1012A000F6C0883009F44DC0F6C0883109F44CC04E
:1012B000803209F45DC0EFC0803409F468C048F49E
:1012C000803309F455C0883309F0E5C080931F02CC
:1012D000D8C0803509F44FC0883509F45DC0883422
:1012E00009F0D9C0D6C0883909F4C7C0A8F4883736
:1012F00009F467C038F4883609F463C0803709F40C
:1013000060C0C9C0883809F4B8C0803909F45FC02A
:10131000803809F0C0C05BC0803B09F486C038F457
:10132000803A09F466C0883A09F47FC0B4C0803CB2
:1013300009F4A7C0883C09F4A4C0883B09F48AC01A
:10134000AAC080911C0210C090911E0280911D02C3
:10135000981770F5E0911E0281E08E0F80931E02B7
:10136000F0E0E550FE4F80818093BB0085EC86C0A5
:1013700080931F028EC0E0911E0281E08E0F809349
:101380001E028091BB00F0E0E550FE4F80839091FB
:101390001E0280911D026EC0E0911E0281E08E0F40
:1013A00080931E028091BB00F0E0E550FE4F8083E9
:1013B0008091200281116DC081E080931B0284EA3C
:1013C00061C083E0809321021092D501CFCF80913C
:1013D000D501803208F051C0E091D50181E08E0F37
:1013E0008093D5018091BB00F0E0EB54FE4F8083E9
:1013F000BDCF85EC8093BC00109221028091D50175
:10140000803230F4E091D501F0E0EB54FE4F1082D1
:101410006091D50170E0E091B301F091B40185EBEA
:1014200091E009951092D50136C084E080932102A5
:101430001092B2011092B101E091AF01F091B001B0
:1014400009958091B101811105C081E08093B101BE
:1014500010928F01E091B20181E08E0F8093B20172
:10146000F0E0E157FE4F80818093BB009091B20184
:101470008091B101981708F479CF85E88093BC007A
:101480000AC085EC8093BC001092210204C0109227
:101490001F020E94D202FF91EF91BF91AF919F91E5
:1014A0008F917F916F915F914F913F912F910F900D
:1014B0000FBE0F901F901895909121029111FCCFB3
:1014C00091E090932102909320022FEF20931F022E
:1014D00010921E02260F20931D0290931C029091E1
:1014E0001C02880F892B80931C0280911B02813083
:1014F00061F410921B0280911C028093BB008091CA
:10150000BC0083FDF8CF85EC01C085EE8093BC0064
:10151000809121028130E1F380911E02861710F440
:1015200060911E02ABEFB1E02BED31E0F9018E2F9F
:10153000821B861718F48D918193F9CF862F089519
:1015400090E0FC01EC55FF4F2491FC01E057FF4F68
:101550008491882399F090E0880F991FFC01EA5745
:10156000FF4FA591B491FC01E458FF4F85919491F0
:101570008FB7F894EC91E22BEC938FBF089500970E
:1015800069F0FC0101900020E9F73197AF01481B99
:10159000590BBC0186E292E00C94870080E090E059
:1015A0000895CF93DF93FC0124813581232B61F0D3
:1015B000C081D1816AE270E0CE010E948A13009757
:1015C00019F08C1B9D0B02C08FEF9FEFDF91CF9125
:1015D0000895CF93DF93CDB7DEB7AC970FB6F894ED
:1015E000DEBF0FBECDBF789484B5826084BD84B564
:1015F000816084BD85B5826085BD85B5816085BD0E
:1016000080916E00816080936E00109281008091C5
:10161000810082608093810080918100816080934D
:101620008100809180008160809380008091B10072
:1016300084608093B1008091B00081608093B0009D
:1016400080917A00846080937A0080917A00826031
:1016500080937A0080917A008E7F80937A008091C7
:101660007A00806880937A001092C10061E082E085
:101670000E945E08E0913602F091370282E080839A
:10168000E0913202F09133021082E0913402F09145
:10169000350280E1808310923E02E0913A02F0919F
:1016A0003B0286E08083E0913802F091390280812C
:1016B00080618083E0913802F091390280818860F6
:1016C0008083E0913802F0913902808180688083C4
:1016D000E0913802F091390280818F7D808388E328
:1016E00091E00E94BF0A89EC93E00E94D0078091AC
:1016F000E003811145C06091ED037091EE0380918C
:10170000EF039091F0038B019C01015315472109D0
:101710003109073113472140310590F50E94EB1341
:1017200060936501709366018093670190936801EF
:1017300060935D0170935E0180935F0190936001FF
:1017400060936101709362018093630190936401DF
:101750001092C80388EE282E83E0382E8091C302B1
:101760009091C402DC01ED91FC910480F581E02DA3
:1017700009952091C703892B91F0211110C0D0C287
:1017800089EC93E00E94AA0480E591E00E94BF0AE0
:1017900068EE73E080E090E00E94AA08A8CF2223C0
:1017A00009F416C165EC72E0CE0182960E94DB015D
:1017B0001092C6031092C5031092C7031092C5027F
:1017C0006EE371E0CE0101960E94DB01BE016F5F06
:1017D0007F4FCE0182960E948001882341F0CE0186
:1017E00082960E94D10A11E0181619060CF010E03A
:1017F00089819A810E941112112309F443C0EEA03D
:10180000FFA0CAA0DBA004E010E00E151F0518F42D
:10181000C114D10429F410925201E2E5F1E003C0B1
:10182000F601E00FF11F8081082E000C990B0E9439
:101830007813892B19F40F5F1F4FE7CFCE018296E3
:101840000E94D10A9C01A801BE016E5D7F4FCE01AE
:1018500001960E94F00109811A810115110521F0FC
:10186000C8010E94AA1301C060E0C8016CA70E94D1
:1018700011126CA56B300CF06AE067FD60E06093BC
:10188000C803A2C063E471E0CE0101960E94DB01AF
:10189000BE016F5F7F4FCE0182960E948001882338
:1018A00049F0CE0182960E94D10A11E0181619065D
:1018B0000CF010E089819A810E941112112309F421
:1018C00083C0EEA0FFA0CAA0DBA004E010E00E15CC
:1018D0001F0518F4C114D10429F410925201E2E555
:1018E000F1E003C0F601E00FF11F8081082E000C2B
:1018F000990B0E947813892B19F40F5F1F4FE7CFC4
:10190000CE0182960E94D10A9C01A801BE016E5DA3
:101910007F4FCE0101960E94F00109811A810115C5
:10192000110531F0C8010E94AA136B017C0103C0AC
:10193000C12CD12C7601C8010E94111286E292E0DE
:101940000E945201E0913802F091390280818F7E2D
:101950008083E0913802F09139028081877F808313
:10196000E0913802F091390280818F778083E09195
:101970003802F091390280818F7D8083809140020E
:1019800080933F0280E00E94A00A81E00E94A00AAA
:1019900082E00E94A00A60E080E00E945E0860E0B1
:1019A00081E00E945E08C29CC001C39C900DD29C45
:1019B000900D1124BC01990F880B990B0E94AA0865
:1019C00060E082E00E945E088AA19BA10E94111241
:1019D00089EC93E00E94AA048091E00381119DC1EB
:1019E0004090ED035090EE036090EF037090F00391
:1019F000D301C20181539547A109B10987319347AA
:101A0000A140B10508F089C1C301B2010E94EB13E6
:101A10006B017C016093650170936601809367019F
:101A2000909368018090610190906201A0906301A1
:101A3000B0906401A50194010E94D4102DEC3CECFF
:101A40004CEC5DE30E944C149B01AC01C501B40158
:101A50000E94D5104B015C0160936101709362019B
:101A6000809363019093640180915D0190915E0188
:101A7000A0915F01B091600188A799A7AAA7BBA711
:101A80009C01AD01C701B6010E94D4102DEC3CECC5
:101A90004CE45DE30E944C149B01AC0168A579A560
:101AA0008AA59BA50E94D51060935D0170935E018D
:101AB00080935F0190936001C0905501D0905601D2
:101AC000E0905701F0905801A50194010E94D410B4
:101AD00020E030E048E452E40E944C14A701960153
:101AE0000E94D4102DEC3CEC4CEC5DE30E944C14B5
:101AF0009B01AC01C701B6010E94D510162F072F1C
:101B0000F82EE92E862F902FAF2DBE2D80935501F4
:101B100090935601A0935701B093580120E030E014
:101B200048EC51EC612F702F8F2D9E2D0E94E613F3
:101B300087FD34C120E030E048EC51E4612F702F84
:101B40008F2D9E2D0E94771118160CF422C1B8011A
:101B5000C701272F362F492F582F612F702F8F2D18
:101B60009E2D0E94D4107B018C0120E030E046E9DC
:101B700053EC0E94E61387FF16C1E12CF12C06E915
:101B800013ECC701D8018093590190935A01A09397
:101B90005B01B0935C016091530170915401072E79
:101BA000000C880B990B0E94ED134B015C0120E0A7
:101BB00030E040EA51E4B701C8010E944C1420E033
:101BC00030E048EC53E40E94D5109B01AC01C50104
:101BD000B4010E94D5100E9441116B017093540111
:101BE0006093530120E030E040E85FE3B701C801B3
:101BF0000E94771118160CF0E6C01C141D040CF09E
:101C0000E2C020E030E848E154E4B701C8010E9496
:101C1000D5100E9448119B01AC01672B682B692BE2
:101C200009F4DCC08091C803882309F4D7C0219A45
:101C300060E079E08DE390E00E94990FCA01B9015C
:101C400061507109810991096115710521E08207CF
:101C5000910508F4CAC0BB27A92F982F872FBC0174
:101C6000CD01615071098109910924E070938700C9
:101C700060938600C0908400D0908500E12CF12C08
:101C80006C157D058E059F0520F47093850060938B
:101C90008400206120938100E091C8030E2E000C87
:101CA000FF0BEB5FFE4F208130E040E050E00E94F0
:101CB000990F30938B0020938A00309389002093F2
:101CC000880040EB4093800088E491E00E94BF0AC6
:101CD00019A2CE018196B301A2014F705527662744
:101CE000772724E076946794579447942A95D1F700
:101CF00001974A3051056105710508F080C0405DCB
:101D0000DC014C93411451046104710421F70E94D9
:101D1000BF0A8DE491E00E94BF0A0E9474011ECDAB
:101D20008091C3029091C402DC01ED91FC91068088
:101D3000F781E02D0995182F8A3021F481E08093F6
:101D4000C7031FC0812F012E000C990B0E947A132C
:101D5000892B09F403CD2091C5033091C603C90135
:101D600001969093C6038093C503F901ED53FD4F8F
:101D700012838F3F910529F020F01092C603109234
:101D8000C503E091C503F091C603ED53FD4F1282E8
:101D9000E5CC70E060E098EC81E4DBCE70E060E0E0
:101DA00098EC81ECD6CE20E030E04AEF53E4B70166
:101DB000C8010E94771118160CF0E3CEE12CF12C2B
:101DC0000AEF13E4DECE20E030E040E85FEBB7013D
:101DD000C8010E94E61387FF0AC013CF82E08093F8
:101DE0008100F1E0F093800008C021E03FCF82E065
:101DF0008093810081E080938000299865CF495CC1
:101E00007FCFCF93DF93E6E2F2E01382128288EE77
:101E100093E0A0E0B0E084839583A683B78324E1B8
:101E200031E03183208325EC30E03587248724ECB2
:101E300030E03787268720EC30E0318B208B21EC97
:101E400030E0338B228B22EC30E0358B248B26EC78
:101E500030E0378B268B118E128E138E148EC1EFCD
:101E6000D3E01B821A828C839D83AE83BF8384E27E
:101E700091E099838883A9ECB3E084E391E0119623
:101E80009C938E931396DC93CE93129786E71496C9
:101E90008C9314978FB7F8944091220250912302AB
:101EA00060912402709125028FBF4C505E4F6F4F9E
:101EB0007F4F53964D935D936D937C9356975796B2
:101EC0001C92579716961C921E92159718961C9264
:101ED0001E9217971A961C921E9219971C961C9286
:101EE0001E921B971E961C921E921D9750961C9236
:101EF0001E921F971092C803F093C402E093C3028E
:101F00001092C6031092C5031092C703DF91CF91C0
:101F10000895DB018F939F930E940D15BF91AF91A0
:101F2000A29F800D911DA39F900DB29F900D112433
:101F30000895A1E21A2EAA1BBB1BFD010DC0AA1F0A
:101F4000BB1FEE1FFF1FA217B307E407F50720F022
:101F5000A21BB30BE40BF50B661F771F881F991F9D
:101F60001A9469F760957095809590959B01AC01E6
:101F7000BD01CF010895052E97FB1EF400940E9429
:101F8000D20F57FD07D00E94990F07FC03D04EF4E3
:101F90000C94D20F50954095309521953F4F4F4F5F
:101FA0005F4F089590958095709561957F4F8F4F05
:101FB0009F4F0895DF93CF931F930F939A9DF02D1A
:101FC000219FF00D8B9DF00D8A9DE02DF10D039F5B
:101FD000F00D029FE00DF11D4E9DE00DF11D5E9D87
:101FE000F00D4F9DF00D7F936F93BF92AF925F9373
:101FF0004F93D5010E944F158B01AC01D7010E9470
:102000004F15EB01E80FF91FD6010E942A102F91FE
:102010003F91D6010E944F15C60FD71FE81FF91F29
:10202000AF91BF910E942A102F913F910E944F15AE
:10203000C60FD71FE81FF91FD6010E944F15E60FE4
:10204000F71F9801BE01CF0111240F911F91CF916D
:10205000DF9108950E944F15460F571FC81FD91FC3
:1020600008F43196089597FB57FF0C9443109F9303
:102070008F930E9443106E1B7F0BAF91BF918A0B11
:102080009B0B0895E894DF93CF93FC01DB010E9442
:102090004F157F936F93E9019A01AC01BF93AF9302
:1020A0003F932F93DF010E944F1526F46C1B7D0B8D
:1020B000820B930B9E01EB01FC010E942A10AF9151
:1020C000BF912F913F910E942A10BE01CF01F901CB
:1020D0002F913F91CF91DF9108950F93083090F0A9
:1020E000982F872F762F652F542F432F322F22279B
:1020F0000850F4CF220F331F441F551F661F771F50
:10210000881F991F0A95B2F70F91089597FB10F851
:10211000169400080F93083098F00850232F342F9E
:10212000452F562F672F782F892F902DF4CF0594A8
:1021300097958795779567955795479537952795FF
:102140000A95AAF70F9108952A0D3B1D4C1D5D1DA0
:102150006E1D7F1D801F911F08950024A7FD009410
:102160002A0F301D401D501D601D701D801D901DCB
:1021700008952A193B094C095D096E097F09800BF6
:10218000910B08950024A7FD00942A1730054005FF
:10219000500560057005800590050895EE0FFF1F3E
:1021A0000590F491E02D09945058BB27AA270E946E
:1021B000EC100C94D3140E94C51438F00E94CC1477
:1021C00020F039F49F3F19F426F40C94C2140EF455
:1021D000E095E7FB0C94BC14E92F0E94E41458F33B
:1021E000BA17620773078407950720F079F4A6F5FC
:1021F0000C9406150EF4E0950B2EBA2FA02D0B01B2
:10220000B90190010C01CA01A0011124FF27591B3B
:1022100099F0593F50F4503E68F11A16F040A22F41
:10222000232F342F4427585FF3CF469537952795B2
:10223000A795F0405395C9F77EF41F16BA0B620BB1
:10224000730B840BBAF09150A1F0FF0FBB1F661FF8
:10225000771F881FC2F70EC0BA0F621F731F841F3B
:1022600048F4879577956795B795F7959E3F08F061
:10227000B0CF9395880F08F09927EE0F9795879523
:1022800008950E9448116894B1110C94071508959F
:102290000E94EC1488F09F5798F0B92F9927B751F6
:1022A000B0F0E1F0660F771F881F991F1AF0BA95FA
:1022B000C9F714C0B13091F00E940615B1E008953D
:1022C0000C940615672F782F8827B85F39F0B93F2F
:1022D000CCF3869577956795B395D9F73EF49095AD
:1022E0008095709561957F4F8F4F9F4F08950E9405
:1022F000281408F48FEF0895CF93DF93823091056F
:1023000010F482E090E0E091FF03F091000420E0FF
:1023100030E0C0E0D0E0309711F1408151814817A2
:102320005907C0F04817590761F4828193812097BB
:1023300019F09B838A832BC0909300048093FF0342
:1023400026C02115310519F04217530718F49A01D8
:10235000BE01DF01EF010280F381E02DDCCF21150A
:10236000310509F1281B390B2430310590F4129600
:102370008D919C9113976115710521F0FB01938359
:10238000828304C0909300048093FF03FD01329682
:1023900044C0FD01E20FF31F819391932250310954
:1023A0002D933C933AC02091FD033091FE03232BE3
:1023B00041F420910201309103013093FE032093F8
:1023C000FD0320910001309101012115310541F4F7
:1023D0002DB73EB74091040150910501241B350BE8
:1023E000E091FD03F091FE03E217F307A0F42E1B2A
:1023F0003F0B2817390778F0AC014E5F5F4F241769
:10240000350748F04E0F5F1F5093FE034093FD03C6
:102410008193919302C0E0E0F0E0CF01DF91CF9192
:1024200008950F931F93CF93DF93009709F48CC007
:10243000FC013297138212820091FF031091000475
:102440000115110581F420813181820F931F2091A4
:10245000FD033091FE032817390779F5F093FE0349
:10246000E093FD0371C0D80140E050E0AE17BF0714
:1024700050F412962D913C911397AD012115310521
:1024800009F1D901F3CF9D01DA0133832283608101
:102490007181860F971F8217930769F4EC012881D9
:1024A0003981260F371F2E5F3F4F318320838A816A
:1024B0009B8193838283452B29F4F0930004E0935E
:1024C000FF0342C01396FC93EE931297ED014991DE
:1024D00059919E01240F351FE217F30771F4808193
:1024E0009181840F951F029611969C938E93828101
:1024F000938113969C938E931297E0E0F0E0D801BD
:1025000012968D919C911397009719F0F8018C0108
:10251000F6CF8D919C9198012E5F3F4F820F931FB4
:102520002091FD033091FE032817390769F4309795
:1025300029F4109200041092FF0302C01382128249
:102540001093FE030093FD03DF91CF911F910F9134
:102550000895A0E0B0E0EFEAF2E10C941C15EC0164
:10256000009721F4CB010E947C11B8C0FC01E60F5A
:10257000F71F9C0122503109E217F30708F4ACC0A1
:10258000D9010D911C91119706171707B0F005306E
:10259000110508F49FC0C80104978617970708F42F
:1025A00099C002501109061B170B019311936D93EB
:1025B0007C93CF010E9411128DC05B01A01AB10A59
:1025C0004C01800E911EA091FF03B091000440E0E9
:1025D00050E0E12CF12C109709F44AC0A815B90578
:1025E000D1F56D907C901197630182E0C80ED11CEB
:1025F000CA14DB0480F1A3014A195B096A0182E075
:10260000C80ED11C1296BC9012971396AC91B5E0EF
:10261000CB16D10440F0B282A38351834083D90109
:102620006D937C930AC00E5F1F4FC301800F911FF3
:10263000F90191838083EB2DFA2FE114F10431F03D
:10264000D7011396FC93EE93129744C0F0930004C5
:10265000E093FF033FC08D919C9111974817590754
:1026600008F4AC017D0112960D90BC91A02DB3CF62
:102670008091FD039091FE0388159905E1F44617BA
:102680005707C8F48091000190910101009741F42F
:102690008DB79EB74091040150910501841B950BA5
:1026A000E817F907C8F4F093FE03E093FD03F9017E
:1026B000718360830FC0CB010E947C117C01009765
:1026C00059F0A801BE010E948113CE010E9411128F
:1026D000C70104C0CE0102C080E090E0CDB7DEB7F4
:1026E000EEE00C94381581E090E0F8940C945E15BF
:1026F000803209F091110C94B91480528F55D8F79B
:102700000895FB01DC0102C001900D924150504040
:10271000D8F70895FC018191861721F08823D9F715
:10272000992708953197CF010895FB01DC010190AD
:102730000D920020E1F70895FB01DC01415050406B
:1027400030F08D910190801919F40020B9F7881BA1
:10275000990B08951F93FC0199278827BC01E894E1
:1027600011911032E9F3193010F01E30C8F31B320A
:1027700051F01D3249F4689406C00E94D113610FD4
:10278000711D811D911D119110531A30B0F33EF44B
:1027900090958095709561957F4F8F4F9F4F1F91BA
:1027A0000895592F482F372F262F660F771F881F20
:1027B000991F660F771F881F991F620F731F841F51
:1027C000951F660F771F881F991F08950E94281470
:1027D00008F481E00895E89409C097FB3EF49095D1
:1027E0008095709561957F4F8F4F9F4F9923A9F0EA
:1027F000F92F96E9BB279395F69587957795679579
:10280000B795F111F8CFFAF4BB0F11F460FF1BC0BC
:102810006F5F7F4F8F4F9F4F16C0882311F096E94F
:1028200011C0772321F09EE8872F762F05C06623FD
:1028300071F096E8862F70E060E02AF09A95660FB6
:10284000771F881FDAF7880F9695879597F908956F
:10285000990F0008550FAA0BE0E8FEEF16161706B1
:10286000E807F907C0F012161306E407F50798F019
:10287000621B730B840B950B39F40A2661F0232B32
:10288000242B252B21F408950A2609F4A140A695AE
:102890008FEF811D811D08950E945F140C94D31445
:1028A0000E94C51438F00E94CC1420F0952311F03A
:1028B0000C94BC140C94C21411240C9407150E949F
:1028C000E41470F3959FC1F3950F50E0551F629F7C
:1028D000F001729FBB27F00DB11D639FAA27F00D79
:1028E000B11DAA1F649F6627B00DA11D661F829FA0
:1028F0002227B00DA11D621F739FB00DA11D621F85
:10290000839FA00D611D221F749F3327A00D611DA1
:10291000231F849F600D211D822F762F6A2F112483
:102920009F5750409AF0F1F088234AF0EE0FFF1FB6
:10293000BB1F661F771F881F91505040A9F79E3F0D
:10294000510580F00C94BC140C9407155F3FE4F320
:10295000983ED4F3869577956795B795F795E79563
:102960009F5FC1F7FE2B880F911D9695879597F96C
:10297000089599278827089597F99F6780E870E060
:1029800060E008959FEF80EC089500240A941616E5
:10299000170618060906089500240A94121613064D
:1029A000140605060895092E0394000C11F48823DB
:1029B00052F0BB0F40F4BF2B11F460FF04C06F5FF7
:1029C0007F4F8F4F9F4F089557FD9058440F551FCD
:1029D00059F05F3F71F04795880F97FB991F61F0A1
:1029E0009F3F79F087950895121613061406551F18
:1029F000F2CF4695F1DF08C0161617061806991F84
:102A0000F1CF86957105610508940895E894BB2778
:102A100066277727CB0197F908950E944F15A59F48
:102A2000900DB49F900DA49F800D911D11240895C9
:102A30002F923F924F925F926F927F928F929F92CE
:102A4000AF92BF92CF92DF92EF92FF920F931F93BC
:102A5000CF93DF93CDB7DEB7CA1BDB0B0FB6F8946D
:102A6000DEBF0FBECDBF09942A88398848885F84AD
:102A70006E847D848C849B84AA84B984C884DF801E
:102A8000EE80FD800C811B81AA81B981CE0FD11D02
:102A90000FB6F894DEBF0FBECDBFED010895A29F23
:102AA000B001B39FC001A39F700D811D1124911D22
:102AB000B29F700D811D1124911D0895F894FFCFD0
:102AC000000001048000C864433228211D160A0258
:102AD000000000000B018700D400B200C6005201C4
:102AE00000000000600330032803140305030403FF
:102AF00000000000AA04D0075374617274002442DD
:102B0000564C00245253540050525320000D0A00DA
:022B10002E0095
:00000001FF
