:020000040000FA
:100000000C945D000C9485000C9485000C94850084
:100010000C9485000C9485000C9485000C9485004C
:100020000C9485000C9485000C9485000C9485003C
:100030000C9485000C9485000C9485000C9485002C
:100040000C94660D0C9485000C94340D0C940E0DDC
:100050000C9485000C9485000C9485000C9485000C
:100060000C94B00D0C948500000000080002010003
:100070000003040700000000000000000000000072
:10008000250028002B0000000000240027002A0083
:10009000040404040404040402020202020203032E
:1000A0000303030301020408102040800102040836
:1000B0001020010204081020CB0E11241FBECFEF28
:1000C000D8E0DEBFCDBF26E0AEE2B3E001C01D92B6
:1000D000AB32B207E1F713E0A0E0B1E0E2EAFCE303
:1000E00002C005900D92AE32B107D9F710E0CDE510
:1000F000D0E004C02197FE010E949419CC35D107AD
:10010000C9F70E94BE0F0C944F1E0C94000091E0A2
:100110009093F7038093F6031092F5031092F40383
:100120000895CF92DF92EF92FF929B01AC018091F4
:10013000EF059091F005A091F105B091F2058217BD
:100140009307A407B50709F1821B930BA40BB50B0A
:1001500080359105A105B105C0F02093EF053093DE
:10016000F0054093F1055093F20521153105410545
:10017000510521F08091EE0581110CC082E0809341
:10018000810081E0809380002998FF90EF90DF90BC
:10019000CF900895219A60E079E08DE390E00E948D
:1001A0006118CA01B901615071098109910961158C
:1001B000710521E082079105C0F1672F782F892F03
:1001C0009927615071098109910924E07093870092
:1001D00060938600C0908400D0908500F12CE12CC3
:1001E0006C157D058E059F0520F470938500609346
:1001F0008400206120938100E091EE050E2E000C1A
:10020000FF0BEB5FFE4F208130E050E040E00E94AA
:10021000611830938B0020938A00309389002093DB
:10022000880080EB80938000B0CF21E0CFCF90E0BA
:10023000FC01EC55FF4F249180579F4FFC018491A6
:10024000882399F090E0880F991FFC01EA57FF4F2F
:10025000A591B491FC01E458FF4F859194918FB71B
:10026000F894EC91E22BEC938FBF0895FC0124816C
:1002700035816217730720F480819181009729F4FA
:1002800010929D038DE993E00895860F971F0895BE
:10029000AF92BF92CF92DF92EF92FF920F931F9394
:1002A000CF93DF936C017B018B01040F151FEB01D2
:1002B0005E01AE18BF08C017D10759F06991D60189
:1002C000ED91FC910190F081E02DC6010995892BFB
:1002D00079F7C501DF91CF911F910F91FF90EF90BA
:1002E000DF90CF90BF90AF900895FC01538D448D67
:1002F000252F30E0842F90E0821B930B541710F0D1
:10030000CF96089501970895FC01918D828D9817DD
:1003100061F0A28DAE0FBF2FB11D5D968C91928DB5
:100320009F5F9F73928F90E008958FEF9FEF0895E6
:10033000FC01918D828D981731F0828DE80FF11DAF
:10034000858D90E008958FEF9FEF0895FC01918DCA
:10035000228D892F90E0805C9F4F821B91098F73C3
:10036000992708958CE494E00E94A60121E0892B4E
:1003700009F420E0822F089580E090E0892B29F095
:100380000E94B20181110C9400000895FC01A48D1B
:10039000A80FB92FB11DA35ABF4F2C91848D90E0A7
:1003A00001968F739927848FA689B7892C93A0898A
:1003B000B1898C91837080648C93938D848D981314
:1003C00006C00288F389E02D80818F7D80830895A7
:1003D000EF92FF920F931F93CF93DF93EC0181E095
:1003E000888F9B8D8C8D98131AC0E889F98980813C
:1003F00085FF15C09FB7F894EE89FF896083E8896F
:10040000F98980818370806480839FBF81E090E060
:10041000DF91CF911F910F91FF90EF900895F62EED
:100420000B8D10E00F5F1F4F0F731127E02E8C8D87
:100430008E110CC00FB607FCFACFE889F9898081CC
:1004400085FFF5CFCE010E94C601F1CFEB8DEC0FF9
:10045000FD2FF11DE35AFF4FF0829FB7F8940B8FE9
:10046000EA89FB8980818062CFCFCF93DF93EC0153
:10047000888D8823B9F0AA89BB89E889F9898C918C
:1004800085FD03C0808186FD0DC00FB607FCF7CF48
:100490008C9185FFF2CF808185FFEDCFCE010E9448
:1004A000C601E9CFDF91CF91089590E0FC01E859B2
:1004B000FF4F2491FC01EC55FF4F3491FC01E057B4
:1004C000FF4FE491EE23C9F0222339F0233001F1EC
:1004D000A8F4213019F1223029F1F0E0EE0FFF1FCE
:1004E000E458FF4FA591B4918FB7F894EC91611146
:1004F00026C030953E233C938FBF08952730A9F046
:100500002830C9F0243049F7809180008F7D03C0E6
:10051000809180008F7780938000DFCF84B58F77C4
:1005200084BDDBCF84B58F7DFBCF8091B0008F770A
:100530008093B000D2CF8091B0008F7DF9CF3E2B59
:10054000DACF3FB7F8948091990390919A03A091E4
:100550009B03B0919C0326B5A89B05C02F3F19F0C3
:100560000196A11DB11D3FBFBA2FA92F982F882733
:10057000BC01CD01620F711D811D911D43E0660F0D
:10058000771F881F991F4A95D1F708958F929F92E0
:10059000AF92BF92CF92DF92EF92FF926B017C01FC
:1005A0000E94A1024B015C01C114D104E104F104D9
:1005B000B9F00E94A102681979098A099B09683E6D
:1005C00073408105910580F321E0C21AD108E1084A
:1005D000F10888EE880E83E0981EA11CB11CE4CFC0
:1005E000FF90EF90DF90CF90BF90AF909F908F9053
:1005F00008952FB7F89460919503709196038091B8
:100600009703909198032FBF08951F93CF93DF9383
:10061000C1E0C0935003882399F1D091B8001091A4
:10062000BA008091BC008A7B8093BC0060E082E1CC
:100630000E94550260E083E10E94550210923E0440
:10064000C0931D041092180461E082E10E945502DB
:1006500061E083E10E9455028091B9008E7F809312
:10066000B9008091B9008D7F8093B90080E28093BA
:10067000B80085E48093BC001093BA00D093B80012
:10068000DF91CF911F910895CF92DF92EF92FF9269
:100690000F931F93CF93DF93D82FC62F613208F0AB
:1006A00098C00E94A1026B017C0180913E048111DF
:1006B0006BC081E080933E0480931D049FEF909374
:1006C0001C0410921B049C0F90931A04809319042D
:1006D00080911904DD0FD82BD09319048091180450
:1006E000813009F078C0109218040E94A1026B01B9
:1006F0007C01809119048093BB008091400490910B
:100700004104A0914204B0914304892B8A2B8B2B86
:10071000A1F00E94A1020091400410914104209197
:100720004204309143046C197D098E099F09061714
:1007300017072807390708F448C08091BC0083FDDB
:10074000D8CF85EC8093BC000E94A1026B017C0194
:1007500080913E04813009F440C080911B048C17C5
:1007600010F4C0911B04E8EFF3E0AEE1B4E080E0E8
:100770008C1355C08C2FDF91CF911F910F91FF905B
:10078000EF90DF90CF9008958091400490914104C4
:10079000A0914204B0914304892B8A2B8B2B09F43E
:1007A00084CF0E94A1020091400410914104209145
:1007B0004204309143046C197D098E099F09061784
:1007C00017072807390708F070CF80913F040E946F
:1007D0000503C0E0CFCF85EEB5CF80914004909166
:1007E0004104A0914204B0914304892B8A2B8B2BA6
:1007F00009F4AECF0E94A10200914004109141047F
:1008000020914204309143046C197D098E099F099F
:10081000061717072807390708F09ACFD6CF919106
:100820009D938F5FA5CF20917103260F3327331F30
:1008300021323105ECF420913E04FC0190E080E08F
:10084000243069F082E00895A09171032191AC01F8
:100850004F5A5C4FA40FB52FB11D2C9301968617EC
:1008600098F380917103680F6093710380E008959D
:1008700081E008950895E0914F0380914E03E817B9
:1008800030F4F0E0E25EFB4F808190E008958FEF5E
:100890009FEF089590914F0380914E032FEF3FEF0C
:1008A000981748F4E92FF0E0E25EFB4F208130E03A
:1008B0009F5F90934F03C901089580914E039091DB
:1008C0004F03891B990B0895CF92DF92EF92FF920D
:1008D0000F931F93CF93DF937C01CB018A0120916B
:1008E000F703222389F0EB016B01C40ED51ECC1552
:1008F000DD0569F06991D701ED91FC910190F081DE
:10090000E02DC7010995F3CF642F0E941304C8019D
:10091000DF91CF911F910F91FF90EF90DF90CF90DB
:100920000895CF93DF931F92CDB7DEB769832091EF
:10093000F7032223F9F02091F403203258F021E04C
:1009400030E0FC013383228390E080E00F90DF9160
:10095000CF9108958091F503E82FF0E0E25DFC4F20
:10096000998190838F5F8093F5038093F40381E0F6
:1009700090E0ECCF61E0CE0101960E941304F7CF26
:10098000CF92DF92EF92FF920F931F93CF93DF935B
:10099000D091F40381E0D13208F09CC0C091F603FD
:1009A0000E94A1026B017C0180913E0481116CC008
:1009B00082E080933E0481E080931D048FEF80935A
:1009C0001C0410921B04D0931A04AEE2B3E0E8EFCB
:1009D000F3E080E0D8138DC01092190480911904BF
:1009E000CC0FC82BC093190480911804813009F0F2
:1009F00084C0109218040E94A1026B017C018091B6
:100A000019048093BB008091400490914104A0910F
:100A10004204B0914304892B8A2B8B2BA1F00E94B6
:100A2000A1020091400410914104209142043091B0
:100A300043046C197D098E099F09061717072807BB
:100A4000390708F442C08091BC0083FDD8CF85EC03
:100A50008093BC000E94A1026B017C0180913E0446
:100A6000823009F44CC080911C048F3F09F469C0A6
:100A700080911C04803209F466C080911C0480338C
:100A800009F463C084E026C0809140049091410441
:100A9000A0914204B0914304892B8A2B8B2B09F43B
:100AA00083CF0E94A1020091400410914104209143
:100AB0004204309143046C197D098E099F09061781
:100AC00017072807390708F06FCF80913F040E946D
:100AD000050385E01092F5031092F4031092F703DA
:100AE000DF91CF911F910F91FF90EF90DF90CF900A
:100AF00008959D9191938F5F6DCF85EEA9CF8091E1
:100B0000400490914104A0914204B0914304892B88
:100B10008A2B8B2B09F4A2CF0E94A10200914004E2
:100B20001091410420914204309143046C197D09D5
:100B30008E099F09061717072807390708F08ECF77
:100B4000C4CF80E0C7CF82E0C5CF83E0C3CF90E0C1
:100B500080E008958B30910514F08AE090E097FDD5
:100B600080E08093EE058093470460E070E0CB0165
:100B70000C949100CF92DF92EF92FF92CF93DF938C
:100B8000EC01C13981E0D80714F0C0E9D1E0D7FF0A
:100B900002C0D0E0C0E0BE010D2E000C880B990B06
:100BA0000E94B0152DEC3CEC4CEC5FEB0E940F1654
:100BB0006B017C0120E030E048EC51EC0E944C18C5
:100BC000181634F4C12CD12C88ECE82E81ECF82EC8
:100BD000C092A203D092A303E092A403F092A503D3
:100BE00020E030E048E453E4C701B6010E94371723
:100BF0006093AA037093AB038093AC039093AD030F
:100C0000D0934B04C0934A04DF91CF91FF90EF90B3
:100C1000DF90CF900895CF92DF92EF92FF92CF9323
:100C2000DF93EC01C13981E0D80714F0C0E9D1E0CD
:100C3000D7FF02C0D0E0C0E0BE010D2E000C880B33
:100C4000990B0E94B0152DEC3CEC4CEC5FE30E943C
:100C50000F166B017C0120E030E048EC51E40E946B
:100C6000A91587FF06C0C12CD12C88ECE82E81E4A1
:100C7000F82EC0929E03D0929F03E092A003F092C0
:100C8000A10320E030E046E154E4C701B6010E9430
:100C900038176093A6037093A7038093A8039093DB
:100CA000A903D0934904C0934804DF91CF91FF90EA
:100CB000EF90DF90CF900895CF92DF92EF92FF9266
:100CC000CF93DF93EC01069714F0C5E0D0E0D7FF97
:100CD00002C0D0E0C0E0BE01DD0F880B990B0E947E
:100CE000B01520E030E040EA50E40E94381720E0E0
:100CF00030E048E452E40E94A4176B017C01C092EA
:100D0000E403D092E503E092E603F092E70320E0EB
:100D100030E040E05FE30E940F166093DC037093C5
:100D2000DD038093DE039093DF0320E030E04AEFA1
:100D300053E4C701B6010E940F169B01AC0120933A
:100D4000D8033093D9034093DA035093DB03C701F0
:100D5000B6010E940F166093CE037093CF03809369
:100D6000D0039093D103C0934604DF91CF91FF90BD
:100D7000EF90DF90CF900895DC01ED91FC91019010
:100D8000F081E02D09941F93CF93DF93EC01162F90
:100D90008C810E948700612F012E000C770B8A81C5
:100DA0009B810E94BC068A819B810E94C0040E9494
:100DB000F902645F7F4F8F4F9F4F6B8B7C8B8D8BC6
:100DC0009E8B1F8BDF91CF911F9108950895CF9235
:100DD000DF92EF92FF92CF93DF93EC011F8A8C8119
:100DE0000E94870070E060E08A819B810E94BC06BF
:100DF0008A819B810E94C0048C810E94870063E0ED
:100E00008C810E94440310924F0380934E038CEC1C
:100E100097E00197F1F78A819B81DC01ED91FC91CC
:100E20000084F185E02D099503970CF444C08A8174
:100E30009B81DC01ED91FC910284F385E02D099505
:100E40006C018A819B81DC01ED91FC910284F38528
:100E5000E02D09950D2C000CEE08FF087601DD242D
:100E6000CC24092E000CAA0BBB0BBA2FA92F982F4C
:100E70008827C82AD92AEA2AFB2A8A819B81DC0191
:100E8000ED91FC910284F385E02D0995092E000C6B
:100E9000AA0BBB0BC82AD92AEA2AFB2A8A819B8182
:100EA0000E94C004C701B601DF91CF91FF90EF907F
:100EB000DF90CF900895CC24CA94DC2C7601EECF3D
:100EC0002F923F924F925F926F927F928F929F925A
:100ED000AF92BF92CF92DF92EF92FF920F931F9348
:100EE000CF93DF93CDB7DEB7E2970FB6F894DEBFAE
:100EF0000FBECDBF1C01DC015396CD90DD90ED906F
:100F0000FC9056970E94F9026C157D058E059F0591
:100F100008F4BFC2F1018789883489F168E5883512
:100F200089F4C1010E94E706D10158966D937D9323
:100F30008D939C935B976F3F7F4F8F4F9F4FE9F44B
:100F4000F1016789C101E2960FB6F894DEBF0FBECA
:100F5000CDBFDF91CF911F910F91FF90EF90DF9068
:100F6000CF90BF90AF909F908F907F906F905F9049
:100F70004F903F902F900C94C30668E4E3CFC101DB
:100F80000E94E706698B7A8B8B8B9C8BD1015C96D8
:100F90006D937D938D939C935F975B016C01AD2066
:100FA000AC20AB20A09419F457966C91CBCF1D9632
:100FB0008D919C91B0E0A0E0BA2FA92F982F88279F
:100FC000F101408C518C628C738C481A590A6A0A60
:100FD0007B0A6385748590E080E0A30192010E9402
:100FE000FA18122F39874983B52FF62FE72FF82EDD
:100FF000092FA0E00E9488195CF4AFE70E947319E2
:10100000122F39874983B52FF62FE72FF82E092F96
:10101000212F398549815B2F6F2F7E2F8F2D902FA8
:1010200007E00E944D19490149875983B62FA72F20
:101030008D879D8BF101A780B084950140E050E041
:1010400060E070E080E090E000E10E943419590116
:101050006A017B018C019401498559816B2F7A2F9C
:101060008D859D890E946A1929A33AA34BA35CA38D
:101070006DA37EA38FA398A76185728590E080E021
:10108000A30192010E94FA18122F39874983B52FC4
:10109000F62FE72FF82E092FA0E00E94881984F47C
:1010A00021503F4F4F4F5F4F6F4F7F4F8F4F9F4F9D
:1010B000122F39874983B52FF62FE72FF82E092FE6
:1010C000212F398549815B2F6F2F7E2F8F2D902FF8
:1010D00008E00E944D19490149875983B62FA72F6F
:1010E0008D879D8BF101A580B680D12CC12C9501F7
:1010F000A60160E070E080E090E00FE00E9434190B
:1011000059016A017B018C019401498559816B2F3A
:101110007A2F8D859D890E946A1929A73AA74BA726
:101120005CA76DA77EA78FA798AB6785708990E0B5
:1011300080E0A30192010E94FA18122F3987498397
:10114000B52FF62FE72FF82E092FA0E00E9488195F
:1011500084F42150310940485F4F6F4F7F4F8F4FCC
:101160009F4F122F39874983B52FF62FE72FF82E7F
:10117000092F212F398549815B2F6F2F7E2F8F2DCE
:10118000902F07E10E944D1929833A834B835C839A
:1011900009811A812B813C810053184F2F4F3F4FFB
:1011A0000D8B1E8B2F8B388F003D1740210531058D
:1011B0000CF088C1A5E0B0E029813A814B815C81C7
:1011C0000E94E6169B01AC0169817A818B819C812A
:1011D0000E9451187B018C0115950795F794E794AF
:1011E000E98EFA8E0B8F1C8F5B016C01DD0CAA0857
:1011F000BA2C6501A986BA86CB86DC86B984BD8EF9
:10120000BE8EBF8E2B2DB8A25B016C01F2E0D5948F
:10121000C794B794A794FA95D1F7AD86BE86CF86CA
:10122000D88AAD84BE84CF84D8882AAB29AB822EDD
:10123000922E8D899E89AF89B88D84329A4FAF4F97
:10124000BF4F0CF063C029813A814B815C812455EA
:10125000324F4F4F5F4F29833A834B835C83A7E024
:10126000B0E00E94E6169B01AC0169817A818B8116
:101270009C810E9451184B015C01BB0C8808982C82
:1012800054019B01AC01682D782D882D982D5701B4
:101290006801E984FE2C0E2D1E2D0E946A19298FEB
:1012A0003A8F4B8F5C8F6D8F7E8F8F8F98A3ABE0C3
:1012B000B0E029813A814B815C810E94E6169B0156
:1012C000AC0169817A818B819C810E9451184B010C
:1012D0005C01B594A794979487946B017C01FF0CF3
:1012E000CC08DC2C76019401A5016C2D7C2D8C2D75
:1012F0009C2DAD84BE84CF84D888E02EF02E0E9431
:101300006A1959016A016AAB79AB4C01C301B20198
:1013100020E030E840E050E00E948318C301B201B1
:101320000E94511820E030E041E050E00E94831814
:101330008D899E89AF89B88D821B930BA40BB50B49
:10134000F10180A391A3A2A3B3A329A53AA54BA51C
:101350005CA56DA57EA58FA598A9EAA8F9A884012A
:101360000E947F19C988DA88EB88FC8856016701DA
:10137000E12CF12C8701A982BA82CB82DC82ED823A
:10138000FE820F831887E12CF12C00E010E00E9410
:10139000A218122F39874983B52FF62FE72FF82E81
:1013A000092FA0E00E94881984F421503109404E91
:1013B0005F4F6F4F7F4F8F4F9F4F122F398749835A
:1013C000B52FF62FE72FF82E092F212F39854981C8
:1013D0005B2F6F2F7E2F8F2D902F05E10E944D19CF
:1013E000490149875983B62FA72FF82FE92F29A143
:1013F0003AA14BA15CA16DA17EA18FA198A5A98C5A
:10140000BA8CCB8CDC8CED8CFE8C0F8D18A10E94DD
:101410007F1959016A017B018C0194014985598129
:101420006B2F7A2F8F2F9E2F0E947F19122F3987B3
:101430004983B52FF62FE72FF82E092FA0E00E9441
:10144000881984F4215030484F4F5F4F6F4F7F4FC2
:101450008F4F9F4F122F39874983B52FF62FE72FD4
:10146000F82E092F212F398549815B2F6F2F7E2F71
:101470008F2D902F0FE00E944D19D10194962C933F
:10148000949795963C93959796964C9396979796A6
:101490005C93E2960FB6F894DEBF0FBECDBFDF912E
:1014A000CF911F910F91FF90EF90DF90CF90BF9061
:1014B000AF909F908F907F906F905F904F903F90F4
:1014C0002F900895A12CB12CC12CD12C1AAA19AAA5
:1014D000812C912C198E1A8E1B8E1C8E1D8E1E8EA9
:1014E0001F8E18A213CF0F931F93CF93DF938C01FE
:1014F000EB010E94D0168883C80101960E94D01685
:101500008983CE01DF91CF911F910F910895DF92D2
:10151000EF92FF920F931F93CF93DF9300D0CDB73D
:10152000DEB77C018B01BE016F5F7F4FC8010E9457
:10153000730AF7018081918129813A81821793078B
:10154000D9F081399140C0F4F701D080C8010E94E0
:10155000D0168D1521F06D2DC8010E94D816F70107
:10156000F1800F5F1F4FC8010E94D016F81621F0BE
:101570006F2DC8010E94D8160F900F90DF91CF9168
:101580001F910F91FF90EF90DF900895CF93DF931D
:10159000EB010E94D0168883CE01DF91CF91089590
:1015A000CF92DF92EF92FF920F931F93CF93DF932F
:1015B0001F92CDB7DEB78C017B016A01BE016F5F60
:1015C0007F4FC7010E94C60AF80110818981181750
:1015D00069F01C151D0409F04CF4C7010E94D016D7
:1015E000181721F0612FC7010E94D8160F90DF91C4
:1015F000CF911F910F91FF90EF90DF90CF900895C2
:10160000FC0101900020E9F73197AF01481B590B0D
:10161000BC018CE494E00C944801CF93DF930E94CA
:10162000000BEC0184E491E00E94000B8C0F9D1FE5
:10163000DF91CF910895BF92CF92DF92EF92FF9208
:101640000F931F93CF93DF93EC0186E78C830E9467
:1016500087008A819B810E94C004882309F484C08A
:1016600087E78C830E9487008A819B810E94C00447
:10167000882369F087E491E0DF91CF911F910F916A
:10168000FF90EF90DF90CF90BF900C940D0B84E60D
:1016900091E00E940D0B8C810E9487006EE170E04A
:1016A0008A819B810E94BC068A819B810E94C00422
:1016B0008CE39CE90197F1F702EA10E08CECC82E6C
:1016C00087E0D82E8C810E948700B8018A819B8197
:1016D0000E94BC068A819B810E94C0048C810E946A
:1016E000870066E08C810E94440310924F03809330
:1016F0004E03C6010197F1F78A819B81DC01ED91D0
:10170000FC910084F185E02D0995892BE9F08A810F
:101710009B81DC01ED91FC910284F385E02D09951C
:10172000B82E8A819B81DC01ED91FC910284F385C6
:10173000E02D0995F801ED59F109EC0FFD1FE12CA1
:101740008E299B29918380830E5F1F4F0E3A1105CE
:1017500009F0B8CFDF91CF911F910F91FF90EF90DB
:10176000DF90CF90BF90089585E791E092CFCF931F
:10177000DF93FC0124813581232B71F0C081D1815D
:101780006AE270E0CE010E948E1B009729F08C1B4C
:101790009D0BDF91CF9108958FEF9FEFFACFFC0162
:1017A00080819181009711F00C946D1560E070E0DC
:1017B000CB010895FB0144815581FC0124813581D1
:1017C0002417350778F080819181009759F0FB014B
:1017D000608171816115710529F00E94A01B21E0D3
:1017E000892B09F020E0822F08950F931F93CF9348
:1017F000DF93EC0188819981009759F02A813B8120
:101800002617370730F081E0DF91CF911F910F91BC
:1018100008958B016F5F7F4F0E94BF1A009759F0A8
:10182000998388831B830A832C813D81232B59F75D
:10183000FC011082E8CF80E0E7CFCF93DF93EC018B
:1018400088819981009711F00E94361A19821882B6
:101850001D821C821B821A82DF91CF910895EF9224
:10186000FF920F931F93CF93DF93EC01198218829D
:101870001B821A821D821C826115710521F18B0168
:10188000FB0101900020E9F731977F01E61AF70A82
:10189000B7010E94F50B811109C0CE01DF91CF91F4
:1018A0001F910F91FF90EF900C941D0CFD82EC8224
:1018B000B80188819981DF91CF911F910F91FF909D
:1018C000EF900C94991BDF91CF911F910F91FF9096
:1018D000EF9008959F92AF92BF92CF92DF92EF92D6
:1018E000FF920F931F93CF93DF937C016B015A01FB
:1018F00089012417350720F48B2D5901042F182F47
:1019000066E471E0C7010E942F0CD6011496CD91B8
:10191000DC91AC16BD0650F50C171D0708F4E80164
:10192000D601ED91FC911197EC0FFD1F9080108274
:101930000D911C910A0D1B1D0115110571F0F80187
:1019400001900020E9F731975F01A01AB10AB501B3
:10195000C7010E94F50B811116C0C7010E941D0C22
:10196000D6018D919C91C80FD91F9882C701DF9134
:10197000CF911F910F91FF90EF90DF90CF90BF908C
:10198000AF909F900895F701B582A482B80180813D
:1019900091810E94991BE4CFFC0180819181009785
:1019A00011F00C94361A08950C94361A85ED809334
:1019B000BC008091400490914104A0914204B091F8
:1019C00043040796A11DB11D23E0B695A7959795F1
:1019D00087952A95D1F72091BC0024FD03C0109271
:1019E0003E040895409140045091410460914204A6
:1019F00070914304452B462B472B69F30097A105B3
:101A0000B10541F02AE12A95F1F700C00197A1093B
:101A1000B109E1CF80913F040C9405031F920F920E
:101A20000FB60F9211242F933F934F935F936F93B1
:101A30007F938F939F93AF93BF93EF93FF938CE428
:101A400094E00E94C601FF91EF91BF91AF919F91E9
:101A50008F917F916F915F914F913F912F910F9057
:101A60000FBE0F901F9018951F920F920FB60F92F6
:101A700011242F938F939F93EF93FF93E0915C0436
:101A8000F0915D048081E0916204F091630482FD35
:101A90001BC09081809165048F5F8F7320916604D5
:101AA000821741F0E0916504F0E0E45BFB4F958F15
:101AB00080936504FF91EF919F918F912F910F90EB
:101AC0000FBE0F901F9018958081F4CF1F920F9238
:101AD0000FB60F9211242F933F938F939F93AF9341
:101AE000BF938091950390919603A0919703B09135
:101AF00098033091940326E0230F2D3758F5029672
:101B0000A11DB11D20939403809395039093960398
:101B1000A0939703B09398038091990390919A03AF
:101B2000A0919B03B0919C030196A11DB11D8093D0
:101B3000990390939A03A0939B03B0939C03BF9146
:101B4000AF919F918F913F912F910F900FBE0F906A
:101B50001F90189529E8230F0396A11DB11DD2CF20
:101B60001F920F920FB60F9211242F933F934F9312
:101B70005F936F937F938F939F93AF93BF93EF93F5
:101B8000FF938091B900887F803609F44AC0F0F550
:101B9000883209F4A5C018F5803109F499C0B8F469
:101BA000882309F4F5C0883009F492C0FF91EF91C1
:101BB000BF91AF919F918F917F916F915F914F9165
:101BC0003F912F910F900FBE0F901F901895883165
:101BD00009F486C0803251F780931C0414C080340D
:101BE00009F49BC040F48033B9F38833F9F680934D
:101BF0001C0485ECAEC0803509F483C0883509F437
:101C000094C0883499F60E94D60CD0CF883909F454
:101C10008AC038F5883729F050F4883611F08037BB
:101C200029F683E080933E041092930355C08838D0
:101C300009F479C0803919F0803809F0B7CF809164
:101C40009303803208F06FC0E091930381E08E0F20
:101C5000809393038091BB00F0E0ED58FC4F8083AC
:101C60003BC0803B39F0D0F4803A09F477C0883A21
:101C700009F09CCF84E080933E041092720310928E
:101C80007103F0E0E0E009958091710381110FC0CC
:101C900081E0809371031092510309C0803C09F4E4
:101CA000A8CF883C09F4A5CF883B09F07FCFE0910D
:101CB000720381E08E0F80937203F0E0EF5AFC4FC5
:101CC00080818093BB00909172038091710329C041
:101CD000809119048093BB0085EC8093BC0066CF93
:101CE00090911B0480911A04981758F5E0911B04F9
:101CF00081E08E0F80931B04F0E0E850FC4F808160
:101D0000E9CFE0911B0481E08E0F80931B0480914A
:101D1000BB00F0E0E850FC4F808390911B04809161
:101D20001A049817C8F285E8D8CFE0911B0481E027
:101D30008E0F80931B048091BB00F0E0E850FC4FB5
:101D4000808380911D0481115ECF81E0809318040F
:101D500084EA8093BC0010923E0428CF85EC8093E7
:101D6000BC0010923E0480919303803230F4E091E5
:101D70009303F0E0ED58FC4F10826091930370E004
:101D800083E793E0F0E0E0E00995109293030ECF33
:101D900010921C0438CFCF93DF9300D0CDB7DEB7BD
:101DA00010924F0410924E0488EE93E0A0E0B0E051
:101DB0008093500490935104A0935204B093530421
:101DC00024E131E030934D0420934C0425EC30E0C5
:101DD000309359042093580424EC30E030935B0492
:101DE00020935A0420EC30E030935D0420935C048F
:101DF00021EC30E030935F0420935E0422EC30E06D
:101E0000309361042093600426EC30E03093630447
:101E10002093620410926504109266041092670485
:101E2000109268041092F6051092F5058093F7055C
:101E30009093F805A093F905B093FA0586E291E036
:101E40009093F4058093F30580E491E0909300066D
:101E50008093FF0583EF95E090930206809301063F
:101E6000109203060E94F9026C507E4F8F4F9F4FD5
:101E700060931206709313068093140690931506D0
:101E8000109216061092050610920406109207068C
:101E900010920606109209061092080610920B0680
:101EA00010920A0610920D0610920C0610920F0660
:101EB00010920E061092EE058CE494E09093EA04E2
:101EC0008093E9041092EC051092EB051092ED0559
:101ED00088E391E0909345048093440483E08093E9
:101EE00046048093470489E190E0909349048093ED
:101EF000480484E690E090934B0480934A04BE012A
:101F00006F5F7F4F90E080E00E94C60A89818B302E
:101F100010F480934704BE016F5F7F4F81E090E033
:101F20000E94C60A8981863010F480934604BE015F
:101F30006F5F7F4F82E090E00E94730A89819A81EF
:101F4000813921E0920720F490934904809348045A
:101F5000BE016F5F7F4F84E090E00E94730A898129
:101F60009A81813921E0920720F490934B04809369
:101F70004A040F900F90DF91CF910895CF93DF9394
:101F8000CDB7DEB76E970FB6F894DEBF0FBECDBFEC
:101F9000789484B5826084BD84B5816084BD85B544
:101FA000826085BD85B5816085BD80916E00816050
:101FB00080936E00109281008091810082608093F6
:101FC00081008091810081608093810080918000F8
:101FD0008160809380008091B10084608093B10023
:101FE0008091B00081608093B00080917A0084601D
:101FF00080937A0080917A00826080937A00809149
:102000007A008E7F80937A0080917A008068809336
:102010007A001092C10061E082E00E945502E091D6
:102020005C04F0915D0482E08083E0915804F091BB
:1020300059041082E0915A04F0915B0480E180839E
:1020400010926404E0916004F091610486E0808362
:10205000E0915E04F0915F04808180618083E09173
:102060005E04F0915F04808188608083E0915E046B
:10207000F0915F04808180688083E0915E04F0913C
:102080005F0480818F7D80838FEF95E00E941B0B22
:102090008091460490E00E945C06809116068111B2
:1020A00072C060912306709124068091250690915C
:1020B00026068B019C01015315472109310907317F
:1020C00013472140310508F05EC00E94AE156093B1
:1020D000E0037093E1038093E2039093E303609342
:1020E000E8037093E9038093EA039093EB03109263
:1020F000D4031092D5031092D6031092D703809187
:10210000470490E00E94AA058091480490914904F8
:102110000E940B0680914A0490914B040E94BA05DC
:102120008E010F5F1F4F6EEA262E61E0362E8091E2
:10213000E9049091EA04DC01ED91FC910084F185C1
:10214000E02D0995E090ED05892B09F44CC0E110D4
:102150004AC08091E9049091EA04DC01ED91FC9180
:102160000284F385E02D0995F82EBAE08B131AC08E
:10217000E1E0E093ED05E091EB05F091EC05E7512E
:10218000FB4F1282D4CF8FEF95E00E94600786E864
:1021900091E00E94000B68EE73E080E090E00E9406
:1021A000C6027BCF082E000C990B0E947E1B892B48
:1021B00009F4BDCF8091EB059091EC059C012F5F58
:1021C0003F4F3093EC052093EB0587519B4FDC018B
:1021D0001296FC922F3F310571F268F21092EC05D5
:1021E0001092EB05C8CFEE2009F459C06BEE74E0F5
:1021F000CE0141960E942F0C1092EC051092EB0537
:102200001092ED051092EB0468E871E0C8010E949D
:102210002F0CB801CE0141960E94DA0B882349F0B9
:10222000CE0141960E94B70BFF24F39418161906AD
:102230000CF0F12CC8010E94CC0CFF2009F4BDC1A8
:1022400054E0E52EF12CB701CE0141960E943601F3
:10225000FC018081082E000C990B0E947C1B892BAD
:1022600021F4FFEFEF1AFF0AEECFCE0141960E9454
:10227000B70B9C01A701BE016F5E7F4FC8010E9492
:102280006A0CC8010E94CF0B6B01C8010E94CC0CE4
:10229000C6010E94AA05CE0141960E94CC0C8FEF88
:1022A00095E00E94600780911606811179C18091A6
:1022B000230690912406A0912506B09126068F8BC7
:1022C000988FA98FBA8F81539547A109B10987319A
:1022D0009347A140B10508F063C16F89788D898D5E
:1022E0009A8D0E94AE152B013C01C090E803D0905E
:1022F000E903E090EA03F090EB038091E40390910E
:10230000E503A091E603B091E7038B8F9C8FAD8F1F
:10231000BE8FA7019601C301B2010E9437172B8D12
:102320003C8D4D8D5E8D0E940F16A70196010E9477
:1023300038176B017C01C092E803D092E903E09268
:10234000EA03F092EB038090E0039090E103A09009
:10235000E203B090E303A5019401C301B2010E941E
:1023600037172091DC033091DD034091DE0350915B
:10237000DF030E940F16A50194010E943817609395
:10238000E0037093E1038093E2039093E303809072
:10239000D4039090D503A090D603B090D703A701A3
:1023A00096010E9437172091D8033091D9034091AC
:1023B000DA035091DB030E940F16A50194010E94DD
:1023C00037172B8D3C8D4D8D5E8D0E940F16A5010C
:1023D00094010E9438176093D4037093D5038093BF
:1023E000D6039093D7032091F0033091F1034091ED
:1023F000F2035091F3030E9438174B015C01C09027
:10240000AA03D090AB03E090AC03F090AD0396012B
:10241000A7010E94A91587FD12C0C090A603D09005
:10242000A703E090A803F090A9039601A701B401C7
:10243000C5010E944C18181614F0640175018090B3
:10244000A2039090A303A090A403B090A5039601CB
:10245000A701B401C5010E944C18181694F0809091
:102460009E0390909F03A090A003B090A1039401BD
:10247000A501B601C7010E944C18181614F04601B8
:1024800057019401A501B601C7010E9437176B01DE
:102490007C016091D2037091D303072E000C880B4E
:1024A000990B0E94B0154B015C0120E030E040E246
:1024B00051E4C701B6010E940F1620E030E04AE760
:1024C00054E40E9438179B01AC01C501B4010E947D
:1024D00038170E9416185B017093D3036093D203E0
:1024E0004090CE035090CF036090D0037090D10302
:1024F000A7019601C301B2010E94A91587FF03C07D
:102500001A141B0454F0C301B2019058A70196019C
:102510000E944C1818160CF0DCC220E030E0A90133
:10252000C701B6010E944C1818160CF4CDC260E029
:1025300070E081EE93E4A70196010E9438170E9493
:102540001D180E9491000E94F902C090EC03D090E7
:10255000ED03E090EE03F090EF03C616D706E80611
:10256000F906F0F49A8D9F93A98DAF93B88DBF9320
:10257000EF89EF9385E293E09F938F93EEEAF3E088
:10258000FF93EF930E94AE1BAC016EEA73E08CE404
:1025900094E00E9448010FB6F894DEBF0FBECDBF95
:1025A00080E090E0892B09F4C2CD0E94B20188231B
:1025B00009F4BDCD0E940000BACD6DE871E0C801FC
:1025C0000E942F0CB801CE0141960E94DA0B88239D
:1025D00051F0CE0141960E94B70BFF24F3941816D8
:1025E00019060CF0F12CC8010E94CC0CFF2061F1FF
:1025F00044E0E42EF12CB701CE0141960E94360151
:10260000DC018C91082E000C990B0E947C1B892BFD
:1026100021F4BFEFEB1AFB0AEECFCE0141960E94E8
:10262000B70B9C01A701BE016F5E7F4FC8010E94DE
:102630006A0CC8010E94CF0B6B01C8010E94CC0C30
:10264000C6010E940B0627CE62E971E0C8010E9414
:102650002F0CB801CE0141960E94DA0B882351F06D
:10266000CE0141960E94B70BFF24F3941816190669
:102670000CF0F12CC8010E94CC0CFF2061F134E079
:10268000E32EF12CB701CE0141960E943601FC01E8
:102690008081082E000C990B0E947C1B892B21F451
:1026A000FFEFEF1AFF0AEECFCE0141960E94B70B63
:1026B0009C01A701BE016F5E7F4FC8010E946A0C9A
:1026C000C8010E94CF0B6B01C8010E94CC0CC6014F
:1026D0000E94BA05E0CD67E971E0C8010E942F0CA5
:1026E000B801CE0141960E94DA0B882351F0CE0149
:1026F00041960E94B70BFF24F394181619060CF0AC
:10270000F12CC8010E94CC0CFF2009F471C024E018
:10271000E22EF12CB701CE0141960E943601DC0178
:102720008C91082E000C990B0E947C1B892B21F4A4
:10273000BFEFEB1AFB0AEECFCE0141960E94B70B1A
:102740009C01A701BE016F5E7F4FC8010E946A0C09
:10275000C8010E94CF0B6B01C8010E94CC0C8CE415
:1027600094E00E943502E0915E04F0915F04808164
:102770008F7E8083E0915E04F0915F048081877F8B
:102780008083E0915E04F0915F0480818F77808385
:10279000E0915E04F0915F0480818F7D8083809161
:1027A00066048093650480E00E94170181E00E9426
:1027B000170182E00E94170160E080E00E9455024C
:1027C00060E081E00E945502E8EEF3E0CE9EB001A9
:1027D000CF9E700DDE9E700D1124072E000C880B0D
:1027E000990B0E94C60260E082E00E94550253CD20
:1027F0006CE971E0C8010E942F0CB801CE0141962E
:102800000E94DA0B882351F0CE0141960E94B70B4B
:10281000FF24F394181619060CF0F12CC8010E943D
:10282000CC0CFF20E9F04AE050E070E060E087E483
:1028300094E00E94D00A45E050E061E070E086E458
:1028400094E00E94D00A62E070E088E494E00E9484
:10285000870A64E070E08AE494E00E94870A1BCD56
:1028600061EA71E0C8010E942F0CB801CE014196C7
:102870000E94DA0B882351F0CE0141960E94B70BDB
:10288000FF24F394181619060CF0F12CC8010E94CD
:10289000CC0CFF2061F194E0E92EF12CB701CE01C0
:1028A00041960E943601DC018C91082E000C990B98
:1028B0000E947C1B892B21F4BFEFEB1AFB0AEECFA1
:1028C000CE0141960E94B70B9C01A701BE016F5E2D
:1028D0007F4FC8010E946A0CC8010E94CF0B6B0198
:1028E000C8010E94CC0CC6010E945C06D4CC66EAEA
:1028F00071E0C8010E942F0CB801CE0141960E94E0
:10290000DA0B882351F0CE0141960E94B70BFF24C9
:10291000F394181619060CF0F12CC8010E94CC0C87
:10292000FF20C1F184E0E82EF12CB701CE014196E1
:102930000E943601FC018081082E000C990B0E9438
:102940007C1B892B21F4FFEFEF1AFF0AEECFCE019B
:1029500041960E94B70B9C01A701BE016F5E7F4F9D
:10296000C8010E946A0CC8010E94CF0B0E94B015DA
:102970002DEC3CEC4CEC5FE30E940F166093F003EF
:102980007093F1038093F2039093F303C8010E94C4
:10299000CC0C81CC6BEA71E0C8010E942F0CB8010D
:1029A000CE0141960E94DA0B81110AC0CE014196F8
:1029B0000E94B70BEE24E394181619060CF0E12CD4
:1029C000C8010E94CC0CEE2009F465CC0E94F902EB
:1029D000605F784D8F4F9F4F6093EC037093ED03D2
:1029E0008093EE039093EF038CE494E00E94350211
:1029F000809147041F928F933F922F921F930F93C2
:102A00000E94AE1BC8010E940D0B809149048F9358
:102A1000809148048F9387EB91E09F938F931F934E
:102A20000F930E94AE1BC8010E940D0B80914B04B6
:102A30008F9380914A048F93E0ECF1E0FF93EF9342
:102A40001F930F930E94AE1BC8010E940D0B809133
:102A500046041F928F9389EC91E09F938F931F936D
:102A60000F930E94AE1BC8010E940D0B84E491E0FD
:102A70000E94000B82ED91E00E940D0B8FED91E022
:102A80000E940D0B8AE092E00E940D0B83E492E01D
:102A90000E940D0B8EE792E00E940D0B89EA92E0F6
:102AA0000E940D0B8FEC92E00E940D0B89E093E0E9
:102AB0000E940D0B84E491E00E94000B0FB6F89485
:102AC000DEBF0FBECDBFE7CB60E070E889E094E4E5
:102AD00032CD60E070E0CB0134CD1F93FC0199272B
:102AE0008827BC01E89411911032E9F3193010F0F5
:102AF0001E30C8F31B3251F01D3249F4689406C0F1
:102B00000E949415610F711D811D911D119110532B
:102B10001A30B0F33EF490958095709561957F4F93
:102B20008F4F9F4F1F910895592F482F372F262FD2
:102B3000660F771F881F991F660F771F881F991FC1
:102B4000620F731F841F951F660F771F881F991FC1
:102B500008950E94EB1508F481E00895E89409C0F7
:102B600097FB3EF490958095709561957F4F8F4FC0
:102B70009F4F9923A9F0F92F96E9BB279395F695D6
:102B8000879577956795B795F111F8CFFAF4BB0F54
:102B900011F460FF1BC06F5F7F4F8F4F9F4F16C0B8
:102BA000882311F096E911C0772321F09EE8872F42
:102BB000762F05C0662371F096E8862F70E060E0FE
:102BC0002AF09A95660F771F881FDAF7880F969577
:102BD000879597F90895990F0008550FAA0BE0E81B
:102BE000FEEF16161706E807F907C0F012161306CF
:102BF000E407F50798F0621B730B840B950B39F40F
:102C00000A2661F0232B242B252B21F408950A2674
:102C100009F4A140A6958FEF811D811D08950E94A2
:102C200022160C9496160E94881638F00E948F1671
:102C300020F0952311F00C947F160C948516112426
:102C40000C94CA160E94A71670F3959FC1F3950FB6
:102C500050E0551F629FF001729FBB27F00DB11D20
:102C6000639FAA27F00DB11DAA1F649F6627B00DB0
:102C7000A11D661F829F2227B00DA11D621F739F99
:102C8000B00DA11D621F839FA00D611D221F749FA7
:102C90003327A00D611D231F849F600D211D822FEE
:102CA000762F6A2F11249F5750409AF0F1F0882315
:102CB0004AF0EE0FFF1FBB1F661F771F881F915042
:102CC0005040A9F79E3F510580F00C947F160C945C
:102CD000CA165F3FE4F3983ED4F3869577956795DF
:102CE000B795F795E7959F5FC1F7FE2B880F911D6C
:102CF0009695879597F9089599278827089597F9C4
:102D00009F6780E870E060E008959FEF80EC089591
:102D100000240A94161617061806090608950024BA
:102D20000A9412161306140605060895092E039434
:102D3000000C11F4882352F0BB0F40F4BF2B11F4A8
:102D400060FF04C06F5F7F4F8F4F9F4F089557FD07
:102D50009058440F551F59F05F3F71F04795880F09
:102D600097FB991F61F09F3F79F0879508951216A0
:102D700013061406551FF2CF4695F1DF08C016164C
:102D800017061806991FF1CF8695710561050894FD
:102D90000895E894BB2766277727CB0197F9089514
:102DA000F999FECF92BD81BDF89A992780B5089513
:102DB000262FF999FECF1FBA92BD81BD20BD0FB657
:102DC000F894FA9AF99A0FBE019608950E9428176E
:102DD000A59F900DB49F900DA49F800D911D11246F
:102DE00008952F923F924F925F926F927F928F92AF
:102DF0009F92AF92BF92CF92DF92EF92FF920F938A
:102E00001F93CF93DF93CDB7DEB7CA1BDB0B0FB693
:102E1000F894DEBF0FBECDBF09942A883988488850
:102E20005F846E847D848C849B84AA84B984C884E6
:102E3000DF80EE80FD800C811B81AA81B981CE0FDD
:102E4000D11D0FB6F894DEBF0FBECDBFED010895C2
:102E5000A29FB001B39FC001A39F700D811D1124DB
:102E6000911DB29F700D811D1124911D0895505820
:102E7000BB27AA270E944F170C9496160E9488160B
:102E800038F00E948F1620F039F49F3F19F426F491
:102E90000C9485160EF4E095E7FB0C947F16E92F51
:102EA0000E94A71658F3BA1762077307840795079D
:102EB00020F079F4A6F50C94C9160EF4E0950B2ECB
:102EC000BA2FA02D0B01B90190010C01CA01A0017C
:102ED0001124FF27591B99F0593F50F4503E68F1D7
:102EE0001A16F040A22F232F342F4427585FF3CF18
:102EF000469537952795A795F0405395C9F77EF4E9
:102F00001F16BA0B620B730B840BBAF09150A1F031
:102F1000FF0FBB1F661F771F881FC2F70EC0BA0FB7
:102F2000621F731F841F48F4879577956795B7953F
:102F3000F7959E3F08F0B0CF9395880F08F099273A
:102F4000EE0F9795879508950E94B8170C949616E2
:102F50000E948F1658F00E94881640F029F45F3FB7
:102F600029F00C947F1651110C94CA160C948516F6
:102F70000E94A71668F39923B1F3552391F3951B8B
:102F8000550BBB27AA2762177307840738F09F5F8A
:102F90005F4F220F331F441FAA1FA9F335D00E2EF7
:102FA0003AF0E0E832D091505040E695001CCAF764
:102FB0002BD0FE2F29D0660F771F881FBB1F261727
:102FC00037074807AB07B0E809F0BB0B802DBF01FE
:102FD000FF2793585F4F3AF09E3F510578F00C94CD
:102FE0007F160C94CA165F3FE4F3983ED4F386959F
:102FF00077956795B795F7959F5FC9F7880F911DEE
:103000009695879597F90895E1E0660F771F881FD9
:10301000BB1F621773078407BA0720F0621B730B8C
:10302000840BBA0BEE1F88F7E09508950E941D18D7
:103030006894B1110C94CA1608950E94AF1688F0D6
:103040009F5798F0B92F9927B751B0F0E1F0660F6C
:10305000771F881F991F1AF0BA95C9F714C0B130AD
:1030600091F00E94C916B1E008950C94C916672F1B
:10307000782F8827B85F39F0B93FCCF386957795DC
:103080006795B395D9F73EF49095809570956195C5
:103090007F4F8F4F9F4F08950E94EB1508F48FEFDD
:1030A0000895DB018F939F930E94E616BF91AF9125
:1030B000A29F800D911DA39F900DB29F900D112492
:1030C0000895A1E21A2EAA1BBB1BFD010DC0AA1F69
:1030D000BB1FEE1FFF1FA217B307E407F50720F081
:1030E000A21BB30BE40BF50B661F771F881F991FFC
:1030F0001A9469F760957095809590959B01AC0145
:10310000BD01CF010895052E97FB1EF400940E9487
:103110009A1857FD07D00E94611807FC03D04EF49F
:103120000C949A1850954095309521953F4F4F4FEC
:103130005F4F089590958095709561957F4F8F4F63
:103140009F4F0895DF93CF931F930F939A9DF02D78
:10315000219FF00D8B9DF00D8A9DE02DF10D039FB9
:10316000F00D029FE00DF11D4E9DE00DF11D5E9DE5
:10317000F00D4F9DF00D7F936F93BF92AF925F93D1
:103180004F93D5010E9428178B01AC01D7010E94F3
:103190002817EB01E80FF91FD6010E94F1182F91B3
:1031A0003F91D6010E942817C60FD71FE81FF91FAD
:1031B000AF91BF910E94F1182F913F910E94281763
:1031C000C60FD71FE81FF91FD6010E942817E60F68
:1031D000F71F9801BE01CF010F911F91CF91DF9191
:1031E00008950E942817460F571FC81FD91F08F4BB
:1031F0003196089597FB57FF0C940A199F938F936C
:103200000E940A196E1B7F0BAF91BF918A0B9B0B1B
:103210000895E894DF93CF93FC01DB010E94281707
:103220007F936F93E9019A01AC01BF93AF933F93F2
:103230002F93DF010E94281726F46C1B7D0B820B55
:10324000930B9E01EB01FC010E94F118AF91BF911D
:103250002F913F910E94F118BE01CF01F9012F91EA
:103260003F91CF91DF910895002E083090F0982F74
:10327000872F762F652F542F432F322F2227085068
:10328000F4CF220F331F441F551F661F771F881F5F
:10329000991F0A95B2F7002D089597FD1094002EFE
:1032A000083098F00850232F342F452F562F672FC2
:1032B000782F892F912DF4CF159497958795779531
:1032C000679557954795379527950A95AAF711243D
:1032D000002D08952A0D3B1D4C1D5D1D6E1D7F1D8B
:1032E000801F911F08950024A7FD00942A0F301D10
:1032F000401D501D601D701D801D901D08952A19D0
:103300003B094C095D096E097F09800B910B0895FB
:103310000024A7FD00942A173005400550056005DC
:103320007005800590050895EE0FFF1F0590F4913C
:10333000E02D09940F931F93CF93DF938230910573
:1033400010F482E090E0E0912906F0912A0630E046
:1033500020E0B0E0A0E0309799F42115310509F4A0
:103360004AC0281B390B24303105D8F58A819B814E
:103370006115710589F1FB0193838283FE0111C000
:10338000408151810281138148175907E0F04817A5
:10339000590799F4109761F012960C9312971396AF
:1033A0001C933296CF01DF91CF911F910F91089519
:1033B0000093290610932A06F4CF2115310551F008
:1033C0004217530738F0A901DB019A01BD01DF0163
:1033D000F801C1CFEF01F9CF90932A068093290617
:1033E000CDCFFE01E20FF31F81939193225031095B
:1033F00039832883D7CF2091270630912806232BA5
:1034000041F420910201309103013093280620936A
:10341000270620910001309101012115310541F469
:103420002DB73EB74091040150910501241B350B87
:10343000E0912706F0912806E217F307A0F42E1B6F
:103440003F0B2817390778F0AC014E5F5F4F241708
:10345000350748F04E0F5F1F50932806409327060C
:10346000819391939FCFF0E0E0E09CCFCF93DF93E7
:103470000097E9F0FC01329713821282A09129068D
:10348000B0912A06ED0130E020E01097A1F42081F0
:103490003181820F931F209127063091280628172B
:1034A000390709F061C0F0932806E0932706DF9101
:1034B000CF910895EA01CE17DF07E8F54A815B81D5
:1034C0009E0141155105B1F7E901FB83EA8349915A
:1034D0005991C40FD51FEC17FD0761F480819181CC
:1034E0000296840F951FE9019983888382819381D5
:1034F0009B838A83F0E0E0E012968D919C91139774
:103500000097B9F52D913C911197CD010296820F4C
:10351000931F20912706309128062817390739F67E
:10352000309751F510922A0610922906B09328067A
:10353000A0932706BCCFD383C28340815181840FDF
:10354000951FC817D90761F44E5F5F4F8881998135
:10355000480F591F518340838A819B8193838283C3
:103560002115310509F0B0CFF0932A06E093290622
:103570009ECFFD01DC01C0CF13821282D7CFB0E015
:10358000A0E0E5ECFAE10C94F3168C01009751F4FD
:10359000CB010E949A198C01C801CDB7DEB7E0E1DA
:1035A0000C940F17FC01E60FF71F9C012250310904
:1035B000E217F30708F49DC0D901CD91DC91119772
:1035C000C617D70798F0C530D10530F3CE01049760
:1035D0008617970708F3C61BD70B2297C193D19381
:1035E0006D937C93CF010E94361AD6CF5B01AC1A43
:1035F000BD0A4C018C0E9D1EA0912906B0912A0691
:10360000512C412CF12CE12C109731F5809127069B
:10361000909128068815990509F05CC04616570652
:1036200008F058C08091000190910101009741F489
:103630008DB79EB74091040150910501841B950BF5
:10364000E817F90708F055C0F0932806E09327061D
:10365000F90171836083A0CF8D919C91119712968F
:103660006C90129713967C901397A815B90559F58D
:103670006C0142E0C40ED11CCA14DB0420F1AC0181
:103680004A195B09DA011296159780F062827382FB
:1036900051834083D9016D937C93E114F10471F05F
:1036A000D7011396FC93EE93129776CF22968C0F48
:1036B0009D1FF90191838083F301EFCFF0932A06D8
:1036C000E093290669CF4816590608F42C017D01BC
:1036D000D3019ACFCB010E949A197C01009749F03F
:1036E000AE01B8010E94851BC8010E94361A8701ED
:1036F00053CF10E000E050CF803209F091110C94CC
:103700007C1680528F55D8F70895FB01DC0102C06A
:1037100001900D9241505040D8F70895FC018191DD
:10372000861721F08823D9F7992708953197CF017B
:103730000895FB01DC0101900D920020E1F708954E
:10374000FB01DC014150504030F08D910190801917
:1037500019F40020B9F7881B990B0895AEE0B0E08A
:10376000E4EBFBE10C94FF160D891E8986E08C8347
:103770001A8309838FEF9FE79E838D83AE01475E97
:103780005F4F6F89788DCE0101960E94D11B2F81EA
:103790003885020F131FF80110822E96E4E00C9476
:1037A0001B17ABE0B0E0E7EDFBE10C94F1167C01F8
:1037B0003B018A01FC0117821682838181FFC8C107
:1037C000CE0101965C01F7019381F30193FD859190
:1037D00093FF81913F01882309F453C1853239F465
:1037E00093FD859193FF81913F01853229F4B701C3
:1037F00090E00E94C11DE7CF912C212C312CFFE1DC
:10380000F31538F08B3211F190F4803209F18332E4
:1038100029F137FC3CC020ED280F2A3050F536FE48
:1038200020C08AE0989E200D1124922E06C08D3271
:1038300091F0803371F7689430F8F30193FD85912E
:1038400093FF81913F018111DACF21C0689431F853
:10385000689432F8F2CF689433F8EFCF689434F874
:10386000ECCFEAE02E9E200D1124222E689435F82C
:10387000E4CF8E3229F436FC04C1689436F8DDCFEB
:103880008C3619F4689437F8D8CF8836B1F2982F6F
:103890009F7D95549330E0F08336A1F18337C1F1D9
:1038A000833509F063C02801F2E04F0E511CF80186
:1038B000C080D180692D70E036FC02C06FEF7FEFD1
:1038C000C6010E94AB1D4C01689437F882010AC002
:1038D0000C5F1F4FFFE3F98388248394912C6501CB
:1038E000E89437F833FE2DC0522C8114910471F501
:1038F000552009F468CFB70180E290E00E94C11D15
:103900005A94F6CFF801808189830E5F1F4FE4CF70
:103910002801F2E04F0E511CF801C080D180692DC2
:1039200070E036FC02C06FEF7FEFC6010E94B61D4B
:103930004C018201D5CFB70180E290E00E94C11D09
:103940002A942814190409F0B0F7CECFF60137FCF9
:10395000859137FE81916F01B70190E00E94C11DF2
:1039600051105A94F1E08F1A9108BFCF843619F0A4
:10397000893609F077C0F80137FE6BC0608171812C
:10398000828193810C5F1F4FF32DFF763F2E97FFAF
:1039900009C090958095709561957F4F8F4F9F4F8F
:1039A000689437F82AE030E0A5010E94F11DC82E86
:1039B000CA188C2C432C36FE0CC0E89440F8C9146D
:1039C00040F434FE05C032FC03C0F32DFE7E4F2EC2
:1039D000892C44FE95C0FE01EC0DF11D80818033E1
:1039E00009F087C0242D297E422E842D8870582E00
:1039F00043FC95C040FE8FC09C2C821418F42C0C04
:103A0000922C981844FE91C0B70180E390E00E9488
:103A1000C11D42FE09C088E790E041FE02C088E572
:103A200090E0B7010E94C11DC91408F48AC0CA946D
:103A3000D12C9FEFC91AD90ACA0CDB1CF60182915E
:103A40006F01B70190E00E94C11DAC14BD04B1F735
:103A50004FCF60817181072E000C880B990B0E5F90
:103A60001F4F92CFD32CE894D4F82AE030E085376A
:103A700039F1232D297FD22E8F3601F148F4883574
:103A8000A9F0F701868197812B96E2E10C940D173E
:103A9000803749F08837A9F7D4FE02C06894D2F87D
:103AA00020E130E00DC06894D4F8F6CF34FE03C0B6
:103AB000822F8660D82E20E132E002C028E030E07C
:103AC000F801D7FE0FC060817181828193810C5F04
:103AD0001F4FA5010E94F11DC82ECA183D2CE89465
:103AE00037F867CF6081718190E080E00E5F1F4FF3
:103AF000F0CF42FC02C0839478CF8394839475CF37
:103B0000842D867809F471CFF6CFB70180E290E07A
:103B10000E94C11D83948214C0F3512C73CF522C88
:103B20005818821408F46ECFF8CF842D867809F4E3
:103B30007BCF8BE241FE80E247FC8DE2B70190E053
:103B400071CFB70180E390E00E94C11D9A946CCFC1
:103B50008FEF9FEF99CFFC010590615070400110ED
:103B6000D8F7809590958E0F9F1F0895FC016150A6
:103B7000704001900110D8F7809590958E0F9F1F8F
:103B800008950F931F93CF93DF93182F092FEB0105
:103B90008B8181FD09C01FEF0FEF812F902FDF91E7
:103BA000CF911F910F91089582FF14C02E813F8104
:103BB0008C819D81281739073CF4E881F981CF0178
:103BC00001969983888310838E819F8101969F83BC
:103BD0008E83E3CFE885F985812F0995892BA1F3A1
:103BE000DACFFA01AA27283051F1203181F1E89487
:103BF0006F936E7F6E5F7F4F8F4F9F4FAF4FB1E0E0
:103C00003ED0B4E03CD0670F781F891F9A1FA11DDA
:103C1000680F791F8A1F911DA11D6A0F711D811DDB
:103C2000911DA11D20D009F468943F912AE0269FA0
:103C300011243019305D3193DEF6CF010895462FFF
:103C40004770405D4193B3E00FD0C9F7F6CF462FE0
:103C50004F70405D4A3318F0495D31FD4052419349
:103C600002D0A9F7EACFB4E0A69597958795779506
:103C70006795BA95C9F700976105710508959B018D
:103C8000AC010A2E06945795479537952795BA9516
:103C9000C9F7620F731F841F951FA01D0895F89424
:103CA000FFCF00002B068000FFDFBF9F7F3F1F0F6D
:103CB000040200000000E801480175013502A60178
:103CC000840198010000000091046404A7053A04EF
:103CD0005D044A043B0400000000E606D40C00002A
:103CE000000060071B0B0D0A0041646472657320BD
:103CF000666F72204D5335363131206E6F742066F9
:103D00006F756E6421004D5335363131206F6E2052
:103D1000203078373721004D5335363131206F6EE2
:103D200020203078373621002E002442564C0024C3
:103D30004255500024424457002452535400245505
:103D40005044002453454E002453494D00243F0065
:103D50002442564C2025642A0024425550202564D4
:103D60002A00244244572025642A002453454E202B
:103D700025642A00496E666F726D6174696F6E3AD0
:103D800000092442564C2076616C75652A2020205B
:103D90002D2073657420626565702076616C756591
:103DA000202830203C2D3E20313029000924425566
:103DB0005020626172726965722A202D20736574C9
:103DC00020757020626172726965722028303D3002
:103DD0002C32356D2F73203C2D3E203430303D3752
:103DE0006D2F732900092442445720626172726961
:103DF00065722A202D2073657420646F776E2062AF
:103E00006172726965722028303D302C32356D2F19
:103E100073203C2D3E203430303D376D2F73290008
:103E2000092453454E2073656E73792A2020202D76
:103E3000207365742073656E73697469766974792B
:103E4000202830203C2D3E2035290009245550449F
:103E5000202A20202020202020202D20736176651C
:103E600020636F6E66696720746F20666C6173688B
:103E700000092453494D2073696D2A2020202020F9
:103E80002D2073696D756C61746520736574206491
:103E90006F776E206261727269657220282D3630EC
:103EA00030203C2D3E20363030290009243F202A86
:103EB000202020202020202020202D207072696EBC
:103EC0007420746869730050525320256C580A009E
:107800000C94343C0C94513C0C94513C0C94513CE1
:107810000C94513C0C94513C0C94513C0C94513CB4
:107820000C94513C0C94513C0C94513C0C94513CA4
:107830000C94513C0C94513C0C94513C0C94513C94
:107840000C94513C0C94513C0C94513C0C94513C84
:107850000C94513C0C94513C0C94513C0C94513C74
:107860000C94513C0C94513C11241FBECFEFD8E036
:10787000DEBFCDBF11E0A0E0B1E0EAE8FFE702C063
:1078800005900D92A230B107D9F712E0A2E0B1E065
:1078900001C01D92AD30B107E1F70E942D3D0C945F
:1078A000C33F0C94003C982F95959595959595958B
:1078B000905D8F708A307CF0282F295A8091C0000B
:1078C00085FFFCCF9093C6008091C00085FFFCCF60
:1078D0002093C6000895282F205DF0CF982F809127
:1078E000C00085FFFCCF9093C6000895EF92FF92F1
:1078F0000F931F93EE24FF2487018091C00087FD22
:1079000017C00894E11CF11C011D111D81E2E8164D
:1079100081EAF80687E0080780E0180770F3E09135
:107920000401F091050109958091C00087FFE9CF1E
:107930008091C6001F910F91FF90EF9008950E94D3
:10794000763C982F8091C00085FFFCCF9093C600B5
:1079500091362CF490330CF09053892F089597555D
:10796000892F08951F930E949F3C182F0E949F3CCF
:107970001295107F810F1F9108951F93182F882350
:1079800021F00E94763C1150E1F71F9108951F935A
:10799000182F0E94763C803249F0809103018F5F5E
:1079A000809303018530C1F01F9108958091C0003C
:1079B00085FFFCCF84E18093C6008091C00085FFE5
:1079C000FCCF1093C6008091C00085FFFCCF80E102
:1079D0008093C6001F910895E0910401F091050184
:1079E00009951F9108950E94763C803241F0809164
:1079F00003018F5F80930301853081F008958091AA
:107A0000C00085FFFCCF84E18093C6008091C00058
:107A100085FFFCCF80E18093C6000895E0910401CA
:107A2000F09105010995089548EC50E08823A1F0F4
:107A30002D9A28EE33E0FA013197F1F721503040CA
:107A4000D1F72D9828EE33E0FA013197F1F7215064
:107A50003040D1F7815061F708953F924F925F9285
:107A60006F927F928F929F92AF92BF92CF92DF924E
:107A7000EF92FF920F931F93CF93DF93000082E06A
:107A80008093C00080E18093C4001092C50088E11B
:107A90008093C10086E08093C2005098589A259A3E
:107AA00081E00E94143D24E1F22E9EE1E92E85E959
:107AB000D82E0FE0C02E10E1B12EAA24A394B1E479
:107AC0009B2EA6E58A2EF2E57F2EE0E26E2E79E46B
:107AD000572E63E5462E50E5352E0E94763C8033C6
:107AE000B1F18133B9F1803409F46FC0813409F404
:107AF00076C0823409F485C0853409F488C08035A5
:107B000031F1823521F1813511F1853509F485C0D6
:107B1000863509F48DC0843609F496C0843709F49B
:107B200003C1853709F472C1863709F466C08091B4
:107B300003018F5F80930301853079F6E0910401A2
:107B4000F091050109950E94763C803351F60E9420
:107B5000F33CC3CF0E94763C803249F78091C0004D
:107B600085FFFCCFF092C6008091C00085FFFCCF5E
:107B70009092C6008091C00085FFFCCF8092C60025
:107B80008091C00085FFFCCF7092C6008091C0003C
:107B900085FFFCCF6092C6008091C00085FFFCCFBE
:107BA0005092C6008091C00085FFFCCF4092C60075
:107BB0008091C00085FFFCCF3092C6008091C0004C
:107BC00085FFFCCFB092C60088CF0E94763C8638F5
:107BD00008F4BDCF0E94763C0E94F33C7ECF0E9409
:107BE000763C803809F49CC0813809F40BC1823896
:107BF00009F430C1883909F48FC080E00E94C73C85
:107C00006CCF84E10E94BD3C0E94F33C66CF85E0CE
:107C10000E94BD3C0E94F33C60CF0E94763C809362
:107C200006010E94763C809307010E94F33C55CFE9
:107C30000E94763C803309F411C183E00E94BD3C70
:107C400080E00E94C73C49CF0E94763C80930902A5
:107C50000E94763C8093080280910C028E7F809374
:107C60000C020E94763C853409F409C18091080217
:107C700090910902892B89F000E010E00E94763C87
:107C8000F801E85FFE4F80830F5F1F4F809108026D
:107C9000909109020817190788F30E94763C8032F8
:107CA00009F045CF80910C0280FFF5C0609106017C
:107CB00070910701660F771F7093070160930601AB
:107CC000A0910802B09109021097C9F0E8E0F1E034
:107CD0009B01AD014E0F5F1FF999FECF32BD21BD53
:107CE000819180BDFA9AF99A2F5F3F4FE417F5070B
:107CF00099F76A0F7B1F70930701609306018091CB
:107D0000C00085FFFCCFF092C6008091C00085FFC7
:107D1000FCCFB092C600E1CE83E00E94C73CDDCE2E
:107D200082E00E94C73CD9CE0E94763C8093090233
:107D30000E94763C80930802809106019091070191
:107D4000880F991F90930701809306010E94763C4B
:107D5000853409F49AC080910C028E7F80930C02C6
:107D60000E94763C803209F0B8CE8091C00085FF39
:107D7000FCCFF092C600A0910802B09109021097C2
:107D8000C1F180910C02082F0170182F1695117007
:107D9000E0910601F0910701AF014F5F5F4FBA011B
:107DA00020E030E00023B1F4112339F49491809164
:107DB000C00085FFFCCF9093C6002F5F3F4FCB01E3
:107DC0000196FA012A173B0780F4BC014F5F5F4F11
:107DD000002351F3F999FECFF2BDE1BDF89A90B5B9
:107DE0008091C00085FFFCCFE6CF709307016093C0
:107DF00006018091C00085FDE5CE8091C00085FF21
:107E0000F8CFE0CE81E00E94C73C67CE0E94763C6E
:107E1000803209F08CCE8091C00085FFFCCFF092BB
:107E2000C6008091C00085FFFCCFE092C600809123
:107E3000C00085FFFCCFD092C6008091C00085FFB6
:107E4000FCCFC092C6008091C00085FFFCCFB092ED
:107E5000C60043CE80E10E94C73C3FCE0E94763CE4
:107E60000E94763C182F0E94763C112309F483C0AF
:107E7000113009F484C08FE00E94C73C2ECE80915F
:107E80000C02816080930C02F1CE80910C02816023
:107E900080930C0265CF809107018823880F880B9F
:107EA0008A2180930B028091060190910701880F2F
:107EB000991F90930701809306018091080280FF2B
:107EC00009C08091080290910902019690930902DD
:107ED00080930802F894F999FECF1127E0910601EA
:107EE000F0910701C8E0D1E0809108029091090269
:107EF000103091F40091570001700130D9F303E084
:107F000000935700E8950091570001700130D9F3B4
:107F100001E100935700E8950990199000915700EE
:107F200001700130D9F301E000935700E8951395F3
:107F3000103498F011270091570001700130D9F3E7
:107F400005E000935700E89500915700017001305B
:107F5000D9F301E100935700E8953296029709F0B2
:107F6000C7CF103011F00296E5CF11248091C000E8
:107F700085FFC5CEC8CE8EE10E94C73CAECD85E957
:0C7F80000E94C73CAACDF894FFCF8000FF
:00000001FF
