:100000000C945D000C9485000C9485000C94850084
:100010000C9485000C9485000C9485000C9485004C
:100020000C9485000C9485000C9485000C9485003C
:100030000C9485000C9485000C9485000C9485002C
:100040000C9467080C9485000C94AF070C948907F6
:100050000C9485000C9485000C9485000C9485000C
:100060000C94B1080C948500000000080002010007
:100070000003040700000000000000000000000072
:10008000250028002B0000000000240027002A0083
:10009000040404040404040402020202020203032E
:1000A0000303030301020408102040800102040836
:1000B00010200102040810200B0B11241FBECFEFEB
:1000C000D8E0DEBFCDBF11E0A0E0B1E0E4EFFDE29B
:1000D00002C005900D92AC35B107D9F724E0ACE52C
:1000E000B1E001C01D92AB31B207E1F710E0CDE500
:1000F000D0E004C02197FE010E946812CC35D107E0
:10010000C9F70E94930B0C94F8160C940000CF9240
:10011000DF92EF92FF920F931F93CF93DF936C01C7
:100120007A018B01C0E0D0E0CE15DF0589F0D8015F
:100130006D918D01D601ED91FC910190F081E02D42
:10014000C6010995892B11F47E0102C02196ECCFDE
:10015000C701DF91CF911F910F91FF90EF90DF903A
:10016000CF900895FC01918D828D981761F0828D5A
:10017000DF01A80FB11D5D968C91928D9F5F9F73DB
:10018000928F90E008958FEF9FEF0895FC01918D7D
:10019000828D981731F0828DE80FF11D858D90E0EA
:1001A00008958FEF9FEF0895FC01918D228D892F87
:1001B00090E0805C9F4F821B91098F73992708956F
:1001C00089E192E00E94D40021E0892B09F420E02B
:1001D000822F0895FC01848DDF01A80FB11DA35A61
:1001E000BF4F2C91848D90E001968F739927848F57
:1001F000A689B7892C93A089B1898C9180648C934E
:10020000938D848D981306C00288F389E02D808138
:100210008F7D80830895EF92FF920F931F93CF936A
:10022000DF93EC0181E0888F9B8D8C8D981305C046
:10023000E889F989808185FD24C0F62E0B8D10E0B8
:100240000F5F1F4F0F731127E02E8C8DE8120CC02B
:100250000FB607FCFACFE889F989808185FFF5CFD1
:10026000CE010E94EA00F1CF8B8DFE01E80FF11D57
:10027000E35AFF4FF0820B8FEA89FB89808180620D
:1002800007C0EE89FF896083E889F98980818064ED
:10029000808381E090E0DF91CF911F910F91FF90DB
:1002A000EF900895CF93DF93EC01888D8823C9F0F8
:1002B000EA89FB89808185FD05C0A889B9898C916F
:1002C00086FD0FC00FB607FCF5CF808185FFF2CF0A
:1002D000A889B9898C9185FFEDCFCE010E94EA00F3
:1002E000E7CFDF91CF91089580E090E0892B29F04E
:1002F0000E94E00081110C94000008953FB7F8942B
:100300008091CA019091CB01A091CC01B091CD0117
:1003100026B5A89B05C02F3F19F00196A11DB11D60
:100320003FBFBA2FA92F982F8827820F911DA11D9B
:10033000B11DBC01CD0143E0660F771F881F991FD7
:100340004A95D1F7089585ED8093BC008091BC005B
:1003500084FDFCCF1092140208954091A401262F31
:1003600030E0240F311D21323105DCF420911402DC
:100370002430C9F4FC0180E090E0861758F43091F5
:10038000A4012191DC01AE57BE4FA30FB11D2C93E8
:100390000196F3CF8091A401680F6093A40180E0DF
:1003A000089581E0089582E008950895E091810123
:1003B00080918001E81730F4F0E0E253FE4F808135
:1003C00090E008958FEF9FEF0895909181018091C3
:1003D0008001981750F4E92FF0E0E253FE4F20819E
:1003E00030E09F5F9093810102C02FEF3FEFC90182
:1003F00008958091800190E020918101821B9109F4
:100400000895CF92DF92EF92FF920F931F93CF93B5
:10041000DF937C01262F972F8A0180917F0188230B
:1004200091F0C62FD72F6E01C40ED51ECC15DD0559
:1004300071F06991D701ED91FC910190F081E02D6F
:10044000C7010995F3CF642F822F0E94AD01C80127
:10045000DF91CF911F910F91FF90EF90DF90CF90A0
:100460000895CF93DF931F92CDB7DEB769832091B4
:100470007F012223D1F020917E01203240F021E043
:1004800030E0FC013383228380E090E015C080914E
:100490007D01E82FF0E0E35AFE4F998190838F5F52
:1004A00080937D0180937E0105C061E0CE010196BD
:1004B0000E94AD0181E090E00F90DF91CF9108950F
:1004C00020917E0190915C01213208F04AC0809118
:1004D00014028111FCCF32E03093140231E03093EA
:1004E00013023FEF30931202109211022093100278
:1004F000ADE5B1E04EEE51E0FA013E2F341B32176C
:1005000018F43D913193F9CF10920F0220910F0210
:10051000990F922B90930F0290910E02913061F4FB
:1005200010920E0290910F029093BB009091BC002C
:1005300093FDF8CF95EC01C095EE9093BC0090919F
:1005400014029230E1F3909112029F3F79F0809172
:100550001202803241F080911202803331F084E047
:1005600005C081E003C082E001C083E010927D01FC
:1005700010927E0110927F010895DC01ED91FC91B3
:100580000190F081E02D09941F93CF93DF93EC014C
:10059000162F8C8191E090937F0180935C011092E3
:1005A0007D0110927E01062E000C770B8A819B81C3
:1005B0000E94BD028A819B810E9460022FB7F8943D
:1005C0008091150290911602A0911702B091180225
:1005D0002FBF0C96A11DB11D8B8B9C8BAD8BBE8B41
:1005E0001F8BDF91CF911F910895CF92DF92EF92F1
:1005F000FF921F93CF93DF93EC011F8A8C8111E050
:1006000010937F0180935C0110927D0110927E0116
:1006100060E070E08A819B810E94BD028A819B819B
:100620000E9460028C8110937F0180935C01109284
:100630007D0110927E0163E00E94C70A1092810141
:10064000809380018CEC97E00197F1F78A819B8180
:10065000DC01ED91FC910480F581E02D0995039773
:10066000C4F18A819B81DC01ED91FC910680F781C8
:10067000E02D09956C018A819B81DC01ED91FC9153
:100680000680F781E02D09950D2C000CEE08FF087F
:100690007601DD24CC24092E000CAA0BBB0BBA2F4B
:1006A000A92F982F8827C82AD92AEA2AFB2A8A81C3
:1006B0009B81DC01ED91FC910680F781E02D09958D
:1006C000092E000CAA0BBB0BC82AD92AEA2AFB2A3E
:1006D00004C0CC24CA94DC2C76018A819B810E94C0
:1006E0006002C701B601DF91CF911F91FF90EF909B
:1006F000DF90CF9008952F923F924F925F926F922A
:100700007F928F929F92AF92BF92CF92DF92EF92A1
:10071000FF920F931F93CF93DF93CDB7DEB7E89788
:100720000FB6F894DEBF0FBECDBFDC0153960D911E
:100730001D912D913C915697EFB7F8944091150279
:10074000509116026091170270911802EFBF401786
:1007500051076207730708F4DBC21C01FC0187899B
:100760008834A9F0883511F068E526C0CD010E94D3
:10077000F502D10158966D937D938D939C935B9771
:100780006F3F7F4F8F4F9F4FA9F068E415C0CD0199
:100790000E94F502698F7A8F8B8F9C8FD1015C96B6
:1007A0006D937D938D939C935F976F3F7F4F8F4F9A
:1007B0009F4FE9F4F1016789C101E8960FB6F894FB
:1007C000DEBF0FBECDBFDF91CF911F910F91FF9084
:1007D000EF90DF90CF90BF90AF909F908F907F90E1
:1007E0006F905F904F903F902F900C94C402D10176
:1007F0001D968D919C911E97A0E0B0E0BA2FA92F75
:10080000982F8827F101408D518D628D738D8A015B
:100810009B01081B190B2A0B3B0B0D8B1E8B2F8B7F
:10082000388F0384F485E02DD10117968D909C902C
:100830001897940140E050E060E070E080E090E0C4
:1008400000E10E94071229013A014B01898799832F
:100850009F0140E050E06D897E898F89988D0E94CC
:10086000CD11F22E032F142FB52FF62FE72FD82EF0
:10087000E92EA0E00E945C125CF4AFE70E944712F0
:10088000F22E032F142FB52FF62FE72FD82EE92E97
:100890002F2D302F412F5B2F6F2F7E2F8D2D9E2DD3
:1008A00007E00E94201259016A017B018C0192012C
:1008B000A301B401898599810E943E122FA338A714
:1008C00049A75AA76BA77CA78DA79EA7F1016581B1
:1008D00076810185128580E090E020E030E840E0FC
:1008E00050E00E94DC11298339872A013B014C0129
:1008F000980140E050E06D897E898F89988D0E9433
:10090000CD11122FD32EE42EB52FF62FE72FF82E70
:10091000092FA0E00E945C1284F421503F4F4F4FFA
:100920005F4F6F4F7F4F8F4F9F4F122FD32EE42E6D
:10093000B52FF62FE72FF82E092F212F3D2D4E2D05
:100940005B2F6F2F7E2F8F2D902F08E00E9420129B
:1009500059016A017B018C0129813985A201B3010A
:10096000C4010E943E122FA738AB49AB5AAB6BAB08
:100970007CAB8DAB9EABD1011F962D913C915097D6
:1009800040E050E06D897E898F89988D0E94CD115D
:10099000122FD32EE42EB52FF62FE72FF82E092F86
:1009A000A0E00E945C1284F42150310940485F4F5E
:1009B0006F4F7F4F8F4F9F4F122FD32EE42EB52FA7
:1009C000F62FE72FF82E092F212F3D2D4E2D5B2FCF
:1009D0006F2F7E2F8F2D902F07E10E9420122987E5
:1009E0003A874B875C876D877E878F87988B0985D1
:1009F0001A852B853C850053184F2F4F3F4F0D8F85
:100A00001E8F2F8F38A3003D1740210531050CF0B4
:100A1000A4C029853A854B855C85CA01B9010E942D
:100A200023119B01AC01A5E0B0E00E94A7164B0189
:100A30005C01B594A7949794879489A29AA2ABA2DB
:100A4000BCA28B019C01330F000B102F980109836E
:100A50001A832B833C8319811DA31EA318AF412F3A
:100A60001FAB8B019C01F2E03595279517950795F3
:100A7000FA95D1F7098B1A8B2B8B3C8B69887A8876
:100A8000CB88DC88E42EF42E0E2D142F2D8D3E8D78
:100A90004F8D58A124323A4F4F4F5F4F0CF06DC02D
:100AA00069857A858B859C856455724F8F4F9F4FE2
:100AB0009B01AC010E9423112B013C01A7E0B0E097
:100AC0009B01AC010E94A7167B018C01DC01CB01CC
:100AD000BB0F880B982FDC0189879A87AB87BC876F
:100AE0009401A5016981762F862F962F5701680101
:100AF000E984FE2C0E2D1E2D0E943E1229A33AA33E
:100B00004BA35CA36DA37EA388AF9FABABE0B0E02B
:100B1000A30192010E94A7167B018C0115950795F0
:100B2000F794E7942B013C01770C4408542C3201D4
:100B300029893A894B895C896981762F862F962F7E
:100B400057016801E42CF42C042D142D0E943E1250
:100B500039016A017B018C0110C0612C712CC12C00
:100B6000D12CE12CF12C00E010E019A21AA21BA25A
:100B70001CA21DA21EA218AE1FAA6D897E898F8994
:100B8000988D20E030E840E050E00E9455116D89DA
:100B90007E898F89988D0E94231120E030E041E00A
:100BA00050E00E9455118D8D9E8DAF8DB8A1821B96
:100BB000930BA40BB50BF10180A391A3A2A3B3A344
:100BC000498D5A8D6B8D7C8D9A01AB0160E070E090
:100BD000CB0129833A834B835C836D837E838F8330
:100BE00098872FA538A949A95AA96BA97CA98DA9CD
:100BF0009EA953010E94531259016A017B018C0185
:100C000029813A814B815C8160E070E080E090E076
:100C10000E947411F22E032F142FB52FF62FE72FF9
:100C2000D82EE92EA0E00E945C1284F421503109F4
:100C3000404E5F4F6F4F7F4F8F4F9F4FF22E032FCE
:100C4000142FB52FF62FE72FD82EE92E2F2D302F6A
:100C5000412F5B2F6F2F7E2F8D2D9E2D05E10E9442
:100C6000201239014A01B62FA72F582E492E2FA145
:100C700038A549A55AA56BA57CA58DA59EA5A9A0BB
:100C8000BAA0CBA0DCA0EDA0FEA008AD1FA90E94D9
:100C9000531259016A017B018C019301A4016B2F4E
:100CA0007A2F852D942D0E945312122FD32EE42ECD
:100CB000B52FF62FE72FF82E092FA0E00E945C1227
:100CC00084F4215030484F4F5F4F6F4F7F4F8F4F0D
:100CD0009F4F122FD32EE42EB52FF62FE72FF82E8D
:100CE000092F212F3D2D4E2D5B2F6F2F7E2F8F2D06
:100CF000902F0FE00E942012D10194962C9394978C
:100D000095963C93959796964C93969797965C9369
:100D1000E8960FB6F894DEBF0FBECDBFDF91CF913E
:100D20001F910F91FF90EF90DF90CF90BF90AF9009
:100D30009F908F907F906F905F904F903F902F90FB
:100D400008958F929F92AF92BF92CF92DF92EF92CF
:100D5000FF920F931F93CF93DF93EC018C8191E06F
:100D600090937F0180935C0110927D0110927E012F
:100D70006EE170E08A819B810E94BD028A819B8125
:100D80000E9460028CE39CE90197F1F77E0102EA80
:100D900010E0BB24B3948CEC882E87E0982E8C81D5
:100DA000B0927F0180935C0110927D0110927E01D0
:100DB000B8018A819B810E94BD028A819B810E9429
:100DC00060028C81B0927F0180935C0110927D0162
:100DD00010927E0166E00E94C70A10928101809302
:100DE0008001C4010197F1F78A819B81DC01ED91BB
:100DF000FC910480F581E02D0995892BD1F08A8141
:100E00009B81DC01ED91FC910680F781E02D099535
:100E1000A82E8A819B81DC01ED91FC910680F781EF
:100E2000E02D0995DA2CC12C8C299D29F701968398
:100E300085830E5F1F4FF2E0EF0EF11C0E3A110595
:100E400009F0ADCFDF91CF911F910F91FF90EF90FF
:100E5000DF90CF90BF90AF909F908F900895EF92CA
:100E6000FF920F931F93CF93DF93EC017B018A01D5
:100E700088819981009729F02A813B8124173507C1
:100E8000F8F4B8016F5F7F4F0E944314009759F048
:100E9000998388831B830A832C813D81232B81F4D2
:100EA000FC0110820DC088819981009711F00E9489
:100EB000AB13198218821D821C821B821A8207C002
:100EC0001D830C83B701888199810E942F15CE0163
:100ED000DF91CF911F910F91FF90EF900895FC014A
:100EE000808191810C94AB13FC01118210821382DA
:100EF0001282158214826115710551F0FB01019077
:100F00000020E9F73197AF01461B570B0C942F07D0
:100F100008951F920F920FB60F9211242F933F93B3
:100F20004F935F936F937F938F939F93AF93BF93F1
:100F3000EF93FF9389E192E00E94EA00FF91EF9125
:100F4000BF91AF919F918F917F916F915F914F91E1
:100F50003F912F910F900FBE0F901F9018951F92E9
:100F60000F920FB60F9211242F938F939F93EF93AD
:100F7000FF93E0912902F0912A028081E0912F02F3
:100F8000F091300282FD12C09081809132028F5F19
:100F90008F7320913302821751F0E0913202F0E01A
:100FA000E75EFD4F958F8093320201C08081FF91F3
:100FB000EF919F918F912F910F900FBE0F901F90E7
:100FC000189590E0FC01E859FF4F3491FC01EC5575
:100FD000FF4F2491FC01E057FF4FE491EE2309F409
:100FE0003BC0332339F1333091F038F43130A9F07C
:100FF000323001F584B58F7D12C0373091F0383032
:10100000A1F03430B9F4809180008F7D03C08091CD
:1010100080008F77809380000DC084B58F7784BD6A
:1010200009C08091B0008F7703C08091B0008F7DA0
:101030008093B000F0E0EE0FFF1FE458FF4FA59142
:10104000B4918FB7F894EC91611103C020952E23D1
:1010500001C02E2B2C938FBF08958F929F92AF9239
:10106000BF92CF92DF92EF92FF926B017C010E94C0
:101070007E014B015C01C114D104E104F104F1F0E3
:101080000E947E01DC01CB0188199909AA09BB09DC
:10109000883E9340A105B10570F321E0C21AD10842
:1010A000E108F10888EE880E83E0981EA11CB11CAF
:1010B000C114D104E104F10419F7DDCFFF90EF90E2
:1010C000DF90CF90BF90AF909F908F9008951F9228
:1010D0000F920FB60F9211242F933F938F939F93EC
:1010E000AF93BF938091150290911602A0911702C1
:1010F000B09118023091C90126E0230F2D3720F45A
:101100000296A11DB11D05C029E8230F0396A11D5C
:10111000B11D2093C9018093150290931602A093EC
:101120001702B09318028091CA019091CB01A0914F
:10113000CC01B091CD010196A11DB11D8093CA01D2
:101140009093CB01A093CC01B093CD01BF91AF910F
:101150009F918F913F912F910F900FBE0F901F90F5
:1011600018951F920F920FB60F9211242F933F9351
:101170004F935F936F937F938F939F93AF93BF939F
:10118000EF93FF938091B900887F803609F49CC06B
:1011900068F5883209F45BC090F4803109F454C0DA
:1011A00038F4882309F4F6C0883009F44DC0F6C03D
:1011B000883109F44CC0803209F45DC0EFC080343E
:1011C00009F468C048F4803309F455C0883309F045
:1011D000E5C080931202D8C0803509F44FC088352D
:1011E00009F45DC0883409F0D9C0D6C0883909F443
:1011F000C7C0A8F4883709F467C038F4883609F402
:1012000063C0803709F460C0C9C0883809F4B8C029
:10121000803909F45FC0803809F0C0C05BC0803BF2
:1012200009F486C038F4803A09F466C0883A09F4B3
:101230007FC0B4C0803C09F4A7C0883C09F4A4C0B6
:10124000883B09F48AC0AAC080910F0210C0909117
:10125000110280911002981770F5E091110281E05F
:101260008E0F80931102F0E0E251FE4F8081809357
:10127000BB0085EC86C0809312028EC0E091110203
:1012800081E08E0F809311028091BB00F0E0E2516B
:10129000FE4F808390911102809110026EC0E09108
:1012A000110281E08E0F809311028091BB00F0E06B
:1012B000E251FE4F80838091130281116DC081E065
:1012C00080930E0284EA61C083E08093140210923E
:1012D000C801CFCF8091C801803208F051C0E091A1
:1012E000C80181E08E0F8093C8018091BB00F0E0BF
:1012F000E855FE4F8083BDCF85EC8093BC001092F3
:1013000014028091C801803230F4E091C801F0E00D
:10131000E855FE4F10826091C80170E0E091A6018F
:10132000F091A70188EA91E009951092C80136C0B2
:1013300084E0809314021092A5011092A401E09120
:10134000A201F091A30109958091A401811105C02A
:1013500081E08093A40110928201E091A50181E0D7
:101360008E0F8093A501F0E0EE57FE4F80818093B1
:10137000BB009091A5018091A401981708F479CF42
:1013800085E88093BC000AC085EC8093BC00109275
:10139000140204C0109212020E94A301FF91EF9167
:1013A000BF91AF919F918F917F916F915F914F917D
:1013B0003F912F910F900FBE0F901F90189590E0C6
:1013C000FC01EC55FF4F2491FC01E057FF4F849145
:1013D000882399F090E0880F991FFC01EA57FF4F8E
:1013E000A591B491FC01E458FF4F859194918FB77A
:1013F000F894EC91E22BEC938FBF0895FC012481CB
:1014000035816217730720F480819181009729F458
:101410001092B60286EB92E00895860F971F08950A
:10142000009769F0FC0101900020E9F73197AF01C6
:10143000481B590BBC0189E192E00C94870080E0C5
:1014400090E00895CF93DF93FC0124813581232B15
:1014500061F0C081D1816AE270E0CE010E94241562
:10146000009719F08C1B9D0B02C08FEF9FEFDF914F
:10147000CF9108950E940D15FC0180819181009704
:1014800011F00C94441560E070E0CB010895BF9218
:10149000CF92DF92EF92FF920F931F93CF93DF9340
:1014A0007C016B01EA0189012417350720F48D2F97
:1014B000E901042F182F68E571E0C7010E94740745
:1014C000D60114968D919C911597C817D907C8F528
:1014D0008017910708F48C01D601ED91FC911197CA
:1014E000E00FF11FB08010824D915C91BA016C0F3A
:1014F0007D1F6115710561F0FB0101900020E9F786
:101500003197AF01461B570BC7010E942F0713C02D
:10151000F70180819181009711F00E94AB13D701F0
:1015200011961C921E9215961C921E921497139659
:101530001C921E921297D601ED91FC91E00FF11FC3
:10154000B082C701DF91CF911F910F91FF90EF9073
:10155000DF90CF90BF900895FB0144815581FC013D
:10156000248135812417350778F080819181009797
:1015700059F0FB01608171816115710529F00E94AC
:10158000361521E0892B09F020E0822F08959091F3
:1015900014029111FCCF91E09093140290931302E6
:1015A0002FEF2093120210921102260F20931002A7
:1015B00090930F0290910F02880F892B80930F0256
:1015C00080910E02813061F410920E0280910F0220
:1015D0008093BB008091BC0083FDF8CF85EC01C0F7
:1015E00085EE8093BC00809114028130E1F38091FC
:1015F0001102861710F460911102AEEEB1E02EECEC
:1016000031E0F9018E2F821B861718F48D9181939A
:10161000F9CF862F0895CF93DF93E9E1F2E01382AB
:10162000128288EE93E0A0E0B0E084839583A683E5
:10163000B78324E131E03183208325EC30E0358726
:10164000248724EC30E03787268720EC30E0318B8C
:10165000208B21EC30E0338B228B22EC30E0358B79
:10166000248B26EC30E0378B268B118E128E138E56
:10167000148EC3EED3E01B821A828C839D83AE83CB
:10168000BF8384E291E099838883AFEEB3E084E383
:1016900091E011969C938E931396DC93CE931297C0
:1016A00086E714968C9314978FB7F894409115029F
:1016B0005091160260911702709118028FBF4C5022
:1016C0005E4F6F4F7F4F53964D935D936D937C9319
:1016D000569757961C92579716961C921E921597DE
:1016E00018961C921E9217971A961C921E92199782
:1016F0001C961C921E921B971E961C921E921D9762
:1017000050961C921E921F971092E203F093DE02F5
:10171000E093DD021092E0031092DF031092E103E8
:10172000DF91CF910895CF93DF93CDB7DEB7AC971C
:101730000FB6F894DEBF0FBECDBF789484B582603B
:1017400084BD84B5816084BD85B5826085BD85B565
:10175000816085BD80916E00816080936E001092E3
:10176000810080918100826080938100809181005E
:1017700081608093810080918000816080938000EF
:101780008091B10084608093B1008091B00081604D
:101790008093B00080917A00846080937A00809179
:1017A0007A00826080937A0080917A008E7F8093A5
:1017B0007A0080917A00806880937A001092C1004C
:1017C00061E082E00E94E107E0912902F0912A02A3
:1017D00082E08083E0912502F09126021082E09160
:1017E0002702F091280280E1808310923102E0917B
:1017F0002D02F0912E0286E08083E0912B02F09181
:101800002C02808180618083E0912B02F0912C0278
:10181000808188608083E0912B02F0912C0280818E
:1018200080688083E0912B02F0912C0280818F7D73
:1018300080838FEE93E00E94A106809106048111BF
:101840007EC06091130470911404809115049091EE
:1018500016048B019C0101531547210931090731F9
:1018600013472140310508F06AC00E948515609336
:10187000D5027093D6028093D7029093D8026093DA
:10188000CD027093CE028093CF029093D0026093EA
:10189000D1027093D2028093D3029093D40210921B
:1018A000C9021092CA021092CB021092CC0210927E
:1018B000E20380E090E0A8ECB1E48093B70290935B
:1018C000B802A093B902B093BA0280E090E4ACE110
:1018D000B4E48093BF029093C002A093C102B0937E
:1018E000C20280E090E0A8ECB1EC8093BB02909340
:1018F000BC02A093BD02B093BE0280E090E0A1E6DE
:10190000B3EC8093C3029093C402A093C502B0933A
:10191000C6023324339480EB282E8091DD0290910F
:10192000DE02DC01ED91FC910480F581E02D09954A
:101930002091E103892B91F0211110C020C48FEE7A
:1019400093E00E947B0389E591E00E94100A68EE13
:1019500073E080E090E00E942D086FCF222309F40D
:1019600062C26FED72E0CE0182960E9474071092FF
:10197000E0031092DF031092E1031092DF0268E3AC
:1019800071E0CE0101960E947407BE016F5F7F4F28
:10199000CE0182960E94AC0A882341F0CE01829645
:1019A0000E94220A11E0181619060CF010E0CE0170
:1019B00001960E946F07112391F104E010E0B80135
:1019C000CE0182960E94FE09FC018081082E000C47
:1019D000990B0E941215892B19F40F5F1F4FEFCF3F
:1019E000CE0182960E94220A9C01A801BE016E5D72
:1019F0007F4FCE0101960E94470ACE0101960E94B8
:101A00003C0ACE0101966CA70E946F076CA56B3053
:101A10000CF06AE067FD60E06093E20300C26DE3F2
:101A200071E0CE0101960E947407BE016F5F7F4F87
:101A3000CE0182960E94AC0A882349F0CE0182969C
:101A40000E94220A11E0181619060CF010E0CE01CF
:101A500001960E946F07112309F46CC004E010E0A6
:101A6000B801CE0182960E94FE09DC018C91082EFD
:101A7000000C990B0E941215892B19F40F5F1F4F50
:101A8000EFCFCE0182960E94220A9C01A801BE01DE
:101A90006E5D7F4FCE0101960E94470ACE010196EE
:101AA0000E943C0A6B017C01CE0101960E946F07E7
:101AB000C601B1E9CB16B1E0DB0614F080E991E094
:101AC000BC0197FF02C060E070E0072E000C880B9D
:101AD000990B0E9487152DEC3CEC4CEC5FE30E94C7
:101AE000E6156B017C0120E030E048EC51E40E94F7
:101AF000801587FF06C0C12CD12C68ECE62E61E46E
:101B0000F62EC092B702D092B802E092B902F092DB
:101B1000BA0220E030E046E154E4C701B6010E9479
:101B20006F126093BF027093C0028093C1029093C2
:101B3000C20275C162E471E0CE0101960E94740791
:101B4000BE016F5F7F4FCE0182960E94AC0A882350
:101B500049F0CE0182960E94220A11E01816190659
:101B60000CF010E0CE0101960E946F07112309F4DA
:101B70006CC004E010E0B801CE0182960E94FE091C
:101B8000FC018081082E000C990B0E941215892BF4
:101B900019F40F5F1F4FEFCFCE0182960E94220AE9
:101BA0009C01A801BE016E5D7F4FCE0101960E948F
:101BB000470ACE0101960E943C0A6B017C01CE01CE
:101BC00001960E946F07C601F1E9CF16F1E0DF062A
:101BD00014F080E991E0BC0197FF02C060E070E082
:101BE000072E000C880B990B0E9487152DEC3CECFE
:101BF0004CEC5FEB0E94E6156B017C0120E030E0CD
:101C000048EC51EC0E941113181634F4C12CD12C5D
:101C100058ECE52E51ECF52EC092BB02D092BC02DE
:101C2000E092BD02F092BE0220E030E048E453E4CE
:101C3000C701B6010E946E126093C3027093C40282
:101C40008093C5029093C602EAC067E471E0CE01BA
:101C500001960E947407BE016F5F7F4FCE0182968E
:101C60000E94AC0A882349F0CE0182960E94220A83
:101C700011E0181619060CF010E0CE0101960E9432
:101C80006F07112309F473C004E010E0B801CE011E
:101C900082960E94FE09DC018C91082E000C990BA3
:101CA0000E941215892B19F40F5F1F4FEFCFCE0141
:101CB00082960E94220A9C01A801BE016E5D7F4FA0
:101CC000CE0101960E94470ACE0101960E943C0A6D
:101CD0006B017C01CE0101960E946F0789E192E0C1
:101CE0000E945201E0912B02F0912C0280818F7EA4
:101CF0008083E0912B02F0912C028081877F80838A
:101D0000E0912B02F0912C0280818F778083E0910B
:101D10002B02F0912C0280818F7D80838091330291
:101D20008093320280E00E94DF0981E00E94DF0997
:101D300082E00E94DF0960E080E00E94E10760E04D
:101D400081E00E94E107E8EEF3E0CE9EC001CF9E65
:101D5000900DDE9E900D1124BC01990F880B990BFC
:101D60000E942D0860E082E00E94E10758C06CE408
:101D700071E0CE0101960E947407BE016F5F7F4F34
:101D8000CE0182960E94AC0A882349F0CE01829649
:101D90000E94220A11E0181619060CF010E0CE017C
:101DA00001960E946F071123D1F144E0E42EF12C3B
:101DB000B701CE0182960E94FE09DC018C91082EAB
:101DC000000C990B0E941215892B21F4FFEFEF1ADA
:101DD000FF0AEECFCE0182960E94220A9C01A70143
:101DE000BE016E5D7F4FCE0101960E94470ACE0173
:101DF00001960E943C0A0E9487152DEC3CEC4CECAD
:101E00005FE30E94E6156093D9027093DA02809333
:101E1000DB029093DC02CE0101960E946F07CE0197
:101E200082960E946F078FEE93E00E947B03809161
:101E300006048111A1C140901304509014046090D5
:101E4000150470901604D301C20181539547A1096E
:101E5000B10987319347A140B10508F08DC1C30195
:101E6000B2010E9485156B017C016093D5027093CD
:101E7000D6028093D7029093D8028090D10290909E
:101E8000D202A090D302B090D402A50194010E9486
:101E90006E122DEC3CEC4CEC5DE30E94E6159B01D0
:101EA000AC01C501B4010E946F124B015C0160934B
:101EB000D1027093D2028093D3029093D402809186
:101EC000CD029091CE02A091CF02B091D00288A70E
:101ED00099A7AAA7BBA79C01AD01C701B6010E94A3
:101EE0006E122DEC3CEC4CE45DE30E94E6159B0188
:101EF000AC0168A579A58AA59BA50E946F12609385
:101F0000CD027093CE028093CF029093D002C09006
:101F1000C902D090CA02E090CB02F090CC02A50199
:101F200094010E946E1220E030E048E452E40E94E6
:101F3000E615A70196010E946E122DEC3CEC4CECCC
:101F40005DE30E94E6159B01AC01C701B6010E944A
:101F50006F126093C9027093CA028093CB02909370
:101F6000CC022091D9023091DA024091DB025091EB
:101F7000DC020E946F12B62EA72E982E892EC090DA
:101F8000C302D090C402E090C502F090C602960150
:101F9000A7010E94801587FD16C0C090BF02D09097
:101FA000C002E090C102F090C2029601A7016B2D21
:101FB0007A2D892D982D0E941113181624F0CB2C00
:101FC000DA2CE92CF82C8090BB029090BC02A090F7
:101FD000BD02B090BE029401A501B601C7010E94E6
:101FE000801587FF06C19401A501B601C7010E94B3
:101FF0006E124B015C016091C7027091C802072EFE
:10200000000C880B990B0E9487156B017C0120E066
:1020100030E040EA51E4C501B4010E94E61520E039
:1020200030E048EC53E40E946F129B01AC01C70101
:10203000B6010E946F120E94DB127B017093C802EE
:102040006093C70220E030E040E85FE3C501B401DF
:102050000E94111318160CF0E0C01E141F040CF09F
:10206000DCC020E030E048EC53E4C501B4010E943C
:102070006F120E94E2129B01AC01672B682B692B47
:1020800009F4D8C08091E203882309F4D3C0219ACF
:1020900060E079E08DE390E00E943311CA01B9015C
:1020A000615071098109910961157105F1E08F078E
:1020B000910508F4BDC0BB27A92F982F872FBC011D
:1020C000CD01615071098109910924E07093870065
:1020D00060938600C0908400D0908500E12CF12CA4
:1020E0006C157D058E059F0520F470938500609327
:1020F0008400206120938100E091E2030E2E000C09
:10210000FF0BEB5FFE4F208130E040E050E00E948B
:10211000331130938B0020938A00309389002093F1
:1021200088002092800081E591E00E94100A19A2A7
:10213000CE018196B301A2014F70552766277727FC
:1021400024E076946794579447942A95D1F70197A1
:102150004A3051056105710508F073C0405DDC012E
:102160004C93411451046104710421F70E94100A38
:1021700086E591E00E94100A0E947401CECB809106
:10218000DD029091DE02DC01ED91FC910680F78189
:10219000E02D0995F82EBAE08B1304C081E08093FE
:1021A000E1031FC08F2D0F2C000C990B0E941415FA
:1021B000892B09F4B2CB2091DF033091E003C901F0
:1021C00001969093E0038093DF03F901E352FD4F02
:1021D000F2828F3F910529F020F01092E0031092D7
:1021E000DF03E091DF03F091E003E352FD4F128241
:1021F00094CB8090B7029090B802A090B902B090B2
:10220000BA029401A501B601C7010E941113181664
:102210000CF4E9CE46015701E6CE20E030E040E87C
:102220005FEBC501B4010E94801587FF03C019CF81
:1022300021E04CCF82E08093810030928000299889
:1022400072CF495C8CCFDB018F939F930E94A716BE
:10225000BF91AF91A29F800D911DA39F900DB29F42
:10226000900D11240895A1E21A2EAA1BBB1BFD019B
:102270000DC0AA1FBB1FEE1FFF1FA217B307E40765
:10228000F50720F0A21BB30BE40BF50B661F771FBD
:10229000881F991F1A9469F760957095809590959D
:1022A0009B01AC01BD01CF010895052E97FB1EF4E3
:1022B00000940E946C1157FD07D00E94331107FC57
:1022C00003D04EF40C946C115095409530952195A7
:1022D0003F4F4F4F5F4F0895909580957095619552
:1022E0007F4F8F4F9F4F0895DF93CF931F930F938F
:1022F0009A9DF02D219FF00D8B9DF00D8A9DE02D74
:10230000F10D039FF00D029FE00DF11D4E9DE00DBC
:10231000F11D5E9DF00D4F9DF00D7F936F93BF9269
:10232000AF925F934F93D5010E94E9168B01AC01E8
:10233000D7010E94E916EB01E80FF91FD6010E94B0
:10234000C4112F913F91D6010E94E916C60FD71FE5
:10235000E81FF91FAF91BF910E94C4112F913F91C7
:102360000E94E916C60FD71FE81FF91FD6010E9469
:10237000E916E60FF71F9801BE01CF0111240F9156
:102380001F91CF91DF9108950E94E916460F571FC4
:10239000C81FD91F08F43196089597FB57FF0C9476
:1023A000DD119F938F930E94DD116E1B7F0BAF9108
:1023B000BF918A0B9B0B0895E894DF93CF93FC01A8
:1023C000DB010E94E9167F936F93E9019A01AC014A
:1023D000BF93AF933F932F93DF010E94E91626F43A
:1023E0006C1B7D0B820B930B9E01EB01FC010E9489
:1023F000C411AF91BF912F913F910E94C411BE01B2
:10240000CF01F9012F913F91CF91DF9108950F9363
:10241000083090F0982F872F762F652F542F432F59
:10242000322F22270850F4CF220F331F441F551F8D
:10243000661F771F881F991F0A95B2F70F9108959D
:1024400097FB10F8169400080F93083098F0085086
:10245000232F342F452F562F672F782F892F902D1C
:10246000F4CF0594979587957795679557954795F8
:10247000379527950A95AAF70F9108952A0D3B1DC8
:102480004C1D5D1D6E1D7F1D801F911F0895002432
:10249000A7FD00942A0F301D401D501D601D701DAA
:1024A000801D901D08952A193B094C095D096E098C
:1024B0007F09800B910B08950024A7FD00942A1733
:1024C00030054005500560057005800590050895AC
:1024D000EE0FFF1F0590F491E02D09945058BB2793
:1024E000AA270E9486120C946D160E945F1638F07F
:1024F0000E94661620F039F49F3F19F426F40C94DC
:102500005C160EF4E095E7FB0C945616E92F0E943A
:102510007E1658F3BA17620773078407950720F0F1
:1025200079F4A6F50C94A0160EF4E0950B2EBA2FB4
:10253000A02D0B01B90190010C01CA01A0011124C9
:10254000FF27591B99F0593F50F4503E68F11A1675
:10255000F040A22F232F342F4427585FF3CF469506
:1025600037952795A795F0405395C9F77EF41F1628
:10257000BA0B620B730B840BBAF09150A1F0FF0FF2
:10258000BB1F661F771F881FC2F70EC0BA0F621FDE
:10259000731F841F48F4879577956795B795F795CE
:1025A0009E3F08F0B0CF9395880F08F09927EE0F63
:1025B0009795879508950E94E2126894B1110C9442
:1025C000A11608950E94861688F09F5798F0B92F9B
:1025D0009927B751B0F0E1F0660F771F881F991F58
:1025E0001AF0BA95C9F714C0B13091F00E94A01644
:1025F000B1E008950C94A016672F782F8827B85F54
:1026000039F0B93FCCF3869577956795B395D9F7AF
:102610003EF490958095709561957F4F8F4F9F4FB9
:1026200008950E94C21508F48FEF0895CF93DF93A9
:102630008230910510F482E090E0E0911904F0916D
:102640001A0420E030E0C0E0D0E0309711F1408182
:10265000518148175907C0F04817590761F4828122
:102660009381209719F09B838A832BC090931A043F
:102670008093190426C02115310519F0421753071C
:1026800018F49A01BE01DF01EF010280F381E02D11
:10269000DCCF2115310509F1281B390B2430310518
:1026A00090F412968D919C9113976115710521F00C
:1026B000FB019383828304C090931A0480931904CE
:1026C000FD01329644C0FD01E20FF31F8193919307
:1026D000225031092D933C933AC020911704309138
:1026E0001804232B41F4209102013091030130930F
:1026F0001804209317042091000130910101211545
:10270000310541F42DB73EB74091040150910501C8
:10271000241B350BE0911704F0911804E217F3071E
:10272000A0F42E1B3F0B2817390778F0AC014E5F41
:102730005F4F2417350748F04E0F5F1F5093180462
:10274000409317048193919302C0E0E0F0E0CF0141
:10275000DF91CF9108950F931F93CF93DF9300974D
:1027600009F48CC0FC013297138212820091190483
:1027700010911A040115110581F420813181820F15
:10278000931F20911704309118042817390779F501
:10279000F0931804E093170471C0D80140E050E0B2
:1027A000AE17BF0750F412962D913C911397AD01CF
:1027B0002115310509F1D901F3CF9D01DA013383E8
:1027C000228360817181860F971F8217930769F4B6
:1027D000EC0128813981260F371F2E5F3F4F31834F
:1027E00020838A819B8193838283452B29F4F093F4
:1027F0001A04E093190442C01396FC93EE931297C7
:10280000ED01499159919E01240F351FE217F307FD
:1028100071F480819181840F951F029611969C938B
:102820008E938281938113969C938E931297E0E00E
:10283000F0E0D80112968D919C911397009719F0B2
:10284000F8018C01F6CF8D919C9198012E5F3F4F3E
:10285000820F931F2091170430911804281739070D
:1028600069F4309729F410921A041092190402C0E6
:10287000138212821093180400931704DF91CF91F2
:102880001F910F910895A0E0B0E0E9E4F4E10C9409
:10289000B616EC01009721F4CB010E941613B8C0C4
:1028A000FC01E60FF71F9C0122503109E217F307E4
:1028B00008F4ACC0D9010D911C91119706171707A8
:1028C000B0F00530110508F49FC0C80104978617C1
:1028D000970708F499C002501109061B170B0193C2
:1028E00011936D937C93CF010E94AB138DC05B015C
:1028F000A01AB10A4C01800E911EA0911904B0914A
:102900001A0440E050E0E12CF12C109709F44AC081
:10291000A815B905D1F56D907C901197630182E0FF
:10292000C80ED11CCA14DB0480F1A3014A195B094B
:102930006A0182E0C80ED11C1296BC9012971396C1
:10294000AC91B5E0CB16D10440F0B282A3835183A1
:102950004083D9016D937C930AC00E5F1F4FC30162
:10296000800F911FF90191838083EB2DFA2FE114E1
:10297000F10431F0D7011396FC93EE93129744C003
:10298000F0931A04E09319043FC08D919C91119724
:102990004817590708F4AC017D0112960D90BC91BF
:1029A000A02DB3CF80911704909118048815990534
:1029B000E1F446175707C8F4809100019091010196
:1029C000009741F48DB79EB74091040150910501E5
:1029D000841B950BE817F907C8F4F0931804E093EB
:1029E0001704F901718360830FC0CB010E94161395
:1029F0007C01009759F0A801BE010E941B15CE0171
:102A00000E94AB13C70104C0CE0102C080E090E079
:102A1000CDB7DEB7EEE00C94D21681E090E0F894EA
:102A20000C94F816803209F091110C9453168052D0
:102A30008F55D8F70895FB01DC0102C001900D927B
:102A400041505040D8F70895FC018191861721F03C
:102A50008823D9F7992708953197CF010895FB016D
:102A6000DC0101900D920020E1F70895FB01DC01EB
:102A70004150504030F08D910190801919F40020A0
:102A8000B9F7881B990B08951F93FC019927882794
:102A9000BC01E89411911032E9F3193010F01E30A6
:102AA000C8F31B3251F01D3249F4689406C00E94ED
:102AB0006B15610F711D811D911D119110531A30FD
:102AC000B0F33EF490958095709561957F4F8F4F50
:102AD0009F4F1F910895592F482F372F262F660F8C
:102AE000771F881F991F660F771F881F991F620F16
:102AF000731F841F951F660F771F881F991F0895E6
:102B00000E94C21508F481E00895E89409C097FB7B
:102B10003EF490958095709561957F4F8F4F9F4FB4
:102B20009923A9F0F92F96E9BB279395F6958795F8
:102B300077956795B795F111F8CFFAF4BB0F11F4BB
:102B400060FF1BC06F5F7F4F8F4F9F4F16C0882362
:102B500011F096E911C0772321F09EE8872F762F98
:102B600005C0662371F096E8862F70E060E02AF0D9
:102B70009A95660F771F881FDAF7880F96958795C5
:102B800097F90895990F0008550FAA0BE0E8FEEF9A
:102B900016161706E807F907C0F012161306E40721
:102BA000F50798F0621B730B840B950B39F40A261A
:102BB00061F0232B242B252B21F408950A2609F4F8
:102BC000A140A6958FEF811D811D08950E94F915E2
:102BD0000C946D160E945F1638F00E94661620F065
:102BE000952311F00C9456160C945C1611240C9439
:102BF000A1160E947E1670F3959FC1F3950F50E0C9
:102C0000551F629FF001729FBB27F00DB11D639F9E
:102C1000AA27F00DB11DAA1F649F6627B00DA11D44
:102C2000661F829F2227B00DA11D621F739FB00DEA
:102C3000A11D621F839FA00D611D221F749F33275A
:102C4000A00D611D231F849F600D211D822F762FF3
:102C50006A2F11249F5750409AF0F1F088234AF0D0
:102C6000EE0FFF1FBB1F661F771F881F915050403C
:102C7000A9F79E3F510580F00C9456160C94A116AE
:102C80005F3FE4F3983ED4F3869577956795B795C3
:102C9000F795E7959F5FC1F7FE2B880F911D9695DD
:102CA000879597F9089599278827089597F99F6739
:102CB00080E870E060E008959FEF80EC08950024C4
:102CC0000A941616170618060906089500240A9491
:102CD00012161306140605060895092E0394000C17
:102CE00011F4882352F0BB0F40F4BF2B11F460FFA6
:102CF00004C06F5F7F4F8F4F9F4F089557FD9058CF
:102D0000440F551F59F05F3F71F04795880F97FBAF
:102D1000991F61F09F3F79F0879508951216130669
:102D20001406551FF2CF4695F1DF08C01616170698
:102D30001806991FF1CF86957105610508940895CD
:102D4000E894BB2766277727CB0197F908950E945F
:102D5000E916A59F900DB49F900DA49F800D911D25
:102D6000112408952F923F924F925F926F927F921B
:102D70008F929F92AF92BF92CF92DF92EF92FF928B
:102D80000F931F93CF93DF93CDB7DEB7CA1BDB0B37
:102D90000FB6F894DEBF0FBECDBF09942A883988DC
:102DA00048885F846E847D848C849B84AA84B984E3
:102DB000C884DF80EE80FD800C811B81AA81B981EF
:102DC000CE0FD11D0FB6F894DEBF0FBECDBFED0103
:102DD0000895A29FB001B39FC001A39F700D811DF4
:102DE0001124911DB29F700D811D1124911D089514
:042DF000F894FFCF85
:102DF40000001B048000C864433228211D160A0207
:102E0400000000000B018700D400B200C60052018C
:102E14000000000031020102F901E501D601D501EB
:102E2400000000007B03A1062442564C00244255B6
:102E34005000244244570024525354002453494D13
:0C2E44000050525320000D0A002E000028
:00000001FF
